{
  "contractName": "Buffer",
  "abi": [
    {
      "inputs": [],
      "payable": false,
      "stateMutability": "nonpayable",
      "type": "constructor"
    },
    {
      "anonymous": false,
      "inputs": [
        {
          "indexed": false,
          "name": "publicKey",
          "type": "bytes32"
        }
      ],
      "name": "PublicKeyControlChange",
      "type": "event"
    },
    {
      "constant": false,
      "inputs": [
        {
          "name": "factoryAddress",
          "type": "address"
        }
      ],
      "name": "setFactory",
      "outputs": [],
      "payable": false,
      "stateMutability": "nonpayable",
      "type": "function"
    },
    {
      "constant": false,
      "inputs": [
        {
          "name": "masterNode",
          "type": "address"
        }
      ],
      "name": "addMasterNode",
      "outputs": [],
      "payable": false,
      "stateMutability": "nonpayable",
      "type": "function"
    },
    {
      "constant": false,
      "inputs": [
        {
          "name": "key",
          "type": "bytes32"
        }
      ],
      "name": "addKey",
      "outputs": [
        {
          "name": "",
          "type": "bool"
        }
      ],
      "payable": false,
      "stateMutability": "nonpayable",
      "type": "function"
    },
    {
      "constant": false,
      "inputs": [],
      "name": "giveKey",
      "outputs": [
        {
          "name": "",
          "type": "bytes32"
        }
      ],
      "payable": false,
      "stateMutability": "nonpayable",
      "type": "function"
    }
  ],
  "bytecode": "0x6080604052600060025534801561001557600080fd5b50336000806101000a81548173ffffffffffffffffffffffffffffffffffffffff021916908373ffffffffffffffffffffffffffffffffffffffff1602179055506104e6806100656000396000f300608060405260043610610062576000357c0100000000000000000000000000000000000000000000000000000000900463ffffffff1680635bb478081461006757806360e6cfd8146100aa5780636b8a98a9146100f3578063e9d8509714610136575b600080fd5b34801561007357600080fd5b506100a8600480360381019080803573ffffffffffffffffffffffffffffffffffffffff169060200190929190505050610169565b005b3480156100b657600080fd5b506100d96004803603810190808035600019169060200190929190505050610208565b604051808215151515815260200191505060405180910390f35b3480156100ff57600080fd5b50610134600480360381019080803573ffffffffffffffffffffffffffffffffffffffff16906020019092919050505061030e565b005b34801561014257600080fd5b5061014b6103c4565b60405180826000191660001916815260200191505060405180910390f35b3373ffffffffffffffffffffffffffffffffffffffff166000809054906101000a900473ffffffffffffffffffffffffffffffffffffffff1673ffffffffffffffffffffffffffffffffffffffff161415156101c457600080fd5b80600160006101000a81548173ffffffffffffffffffffffffffffffffffffffff021916908373ffffffffffffffffffffffffffffffffffffffff16021790555050565b60008060009054906101000a900473ffffffffffffffffffffffffffffffffffffffff1673ffffffffffffffffffffffffffffffffffffffff163373ffffffffffffffffffffffffffffffffffffffff1614806102b5575060011515600460003373ffffffffffffffffffffffffffffffffffffffff1673ffffffffffffffffffffffffffffffffffffffff16815260200190815260200160002060009054906101000a900460ff161515145b80156102c65750622dc6c060025411155b156103045781600360006002548152602001908152602001600020816000191690555060026000815480929190600101919050555060019050610309565b600090505b919050565b3373ffffffffffffffffffffffffffffffffffffffff166000809054906101000a900473ffffffffffffffffffffffffffffffffffffffff1673ffffffffffffffffffffffffffffffffffffffff1614151561036957600080fd5b6001600460008373ffffffffffffffffffffffffffffffffffffffff1673ffffffffffffffffffffffffffffffffffffffff16815260200190815260200160002060006101000a81548160ff02191690831515021790555050565b6000806001600254101580156104275750600160009054906101000a900473ffffffffffffffffffffffffffffffffffffffff1673ffffffffffffffffffffffffffffffffffffffff163373ffffffffffffffffffffffffffffffffffffffff16145b151561043257600080fd5b6001600260008282540392505081905550600360006002548152602001908152602001600020549050600360006002548152602001908152602001600020600090557ff5851451cc08b3dc3922a7b3093a461b92477564a1ec9d3ab1dcb8055ddfd4958160405180826000191660001916815260200191505060405180910390a180915050905600a165627a7a72305820d2bd50c3d6d763bee95537a72531da3a08428f398d1f7ce0fa184d0d40fbee4b0029",
  "source": "pragma solidity ^0.4.23;\n\ncontract Buffer{\n    \n    address private owner;\n    address private smartFactory;\n    uint private keysCount = 0;\n    uint private constant MAXKEYS = 3000000;\n    \n    mapping (uint => bytes32) keysNumerator;\n    mapping (address => bool) masterNodes;\n    \n    event PublicKeyControlChange(bytes32 publicKey);\n    constructor() public{\n        owner = msg.sender;\n    }\n    \n    modifier onlyOwner {\n        require(owner == msg.sender);\n        _;\n    }\n    \n    function setFactory(address factoryAddress) onlyOwner public{\n        smartFactory = factoryAddress;\n    }\n    \n    function addMasterNode(address masterNode) onlyOwner public{\n        masterNodes[masterNode] = true;\n    }\n    \n    function addKey(bytes32 key) public returns (bool){\n        if(((msg.sender == owner) || (masterNodes[msg.sender] == true)) && (keysCount <= MAXKEYS)){\n            keysNumerator[keysCount] = key;\n            keysCount++;\n            return true;\n        }else{\n            return false;\n        }\n    }\n    \n    function giveKey() public returns(bytes32){\n        require(keysCount >= 1 && msg.sender == smartFactory);\n        keysCount -= 1;\n        bytes32 keyToGive = keysNumerator[keysCount];\n        delete keysNumerator[keysCount];\n        emit PublicKeyControlChange(keyToGive);\n        return keyToGive;\n    }\n    \n    \n}\n",
  "sourcePath": "/home/thplease/Desktop/ERC20/contracts/Buffer/Buffer.sol",
  "compiler": {
    "name": "solc",
    "version": "0.4.24+commit.e67f0147.Emscripten.clang"
  },
  "schemaVersion": "2.0.1",
  "updatedAt": "2018-08-22T07:32:04.012Z"
}