{
  "contractName": "Buffer",
  "abi": [
    {
      "constant": true,
      "inputs": [],
      "name": "keysCount",
      "outputs": [
        {
          "name": "",
          "type": "uint256"
        }
      ],
      "payable": false,
      "stateMutability": "view",
      "type": "function"
    },
    {
      "inputs": [],
      "payable": false,
      "stateMutability": "nonpayable",
      "type": "constructor"
    },
    {
      "anonymous": false,
      "inputs": [
        {
          "indexed": false,
          "name": "publicKey",
          "type": "string"
        }
      ],
      "name": "PublicKeyControlChange",
      "type": "event"
    },
    {
      "constant": false,
      "inputs": [
        {
          "name": "factoryAddress",
          "type": "address"
        }
      ],
      "name": "setMiraFactory",
      "outputs": [],
      "payable": false,
      "stateMutability": "nonpayable",
      "type": "function"
    },
    {
      "constant": false,
      "inputs": [
        {
          "name": "masterNode",
          "type": "address"
        }
      ],
      "name": "addMasterNode",
      "outputs": [],
      "payable": false,
      "stateMutability": "nonpayable",
      "type": "function"
    },
    {
      "constant": false,
      "inputs": [
        {
          "name": "key",
          "type": "string"
        }
      ],
      "name": "addKey",
      "outputs": [
        {
          "name": "",
          "type": "bool"
        }
      ],
      "payable": false,
      "stateMutability": "nonpayable",
      "type": "function"
    },
    {
      "constant": true,
      "inputs": [
        {
          "name": "_address",
          "type": "address"
        }
      ],
      "name": "isMasterNode",
      "outputs": [
        {
          "name": "",
          "type": "bool"
        }
      ],
      "payable": false,
      "stateMutability": "view",
      "type": "function"
    },
    {
      "constant": false,
      "inputs": [],
      "name": "giveKey",
      "outputs": [
        {
          "name": "",
          "type": "string"
        }
      ],
      "payable": false,
      "stateMutability": "nonpayable",
      "type": "function"
    }
  ],
  "bytecode": "0x6080604052600060025534801561001557600080fd5b50336000806101000a81548173ffffffffffffffffffffffffffffffffffffffff021916908373ffffffffffffffffffffffffffffffffffffffff160217905550610867806100656000396000f300608060405260043610610078576000357c0100000000000000000000000000000000000000000000000000000000900463ffffffff1680630458a3351461007d57806350382c1a146100d85780636b8a98a914610159578063993cbd1d1461019c578063e4f627fe146101df578063e9d850971461020a575b600080fd5b34801561008957600080fd5b506100be600480360381019080803573ffffffffffffffffffffffffffffffffffffffff16906020019092919050505061029a565b604051808215151515815260200191505060405180910390f35b3480156100e457600080fd5b5061013f600480360381019080803590602001908201803590602001908080601f01602080910402602001604051908101604052809392919081815260200183838082843782019150505050505091929192905050506102f0565b604051808215151515815260200191505060405180910390f35b34801561016557600080fd5b5061019a600480360381019080803573ffffffffffffffffffffffffffffffffffffffff169060200190929190505050610400565b005b3480156101a857600080fd5b506101dd600480360381019080803573ffffffffffffffffffffffffffffffffffffffff1690602001909291905050506104b6565b005b3480156101eb57600080fd5b506101f4610555565b6040518082815260200191505060405180910390f35b34801561021657600080fd5b5061021f61055b565b6040518080602001828103825283818151815260200191508051906020019080838360005b8381101561025f578082015181840152602081019050610244565b50505050905090810190601f16801561028c5780820380516001836020036101000a031916815260200191505b509250505060405180910390f35b6000600460008373ffffffffffffffffffffffffffffffffffffffff1673ffffffffffffffffffffffffffffffffffffffff16815260200190815260200160002060009054906101000a900460ff169050919050565b60008060009054906101000a900473ffffffffffffffffffffffffffffffffffffffff1673ffffffffffffffffffffffffffffffffffffffff163373ffffffffffffffffffffffffffffffffffffffff16148061039d575060011515600460003373ffffffffffffffffffffffffffffffffffffffff1673ffffffffffffffffffffffffffffffffffffffff16815260200190815260200160002060009054906101000a900460ff161515145b80156103ac5750606460025411155b156103f6578160036000600254815260200190815260200160002090805190602001906103da92919061074e565b50600260008154809291906001019190505550600190506103fb565b600090505b919050565b3373ffffffffffffffffffffffffffffffffffffffff166000809054906101000a900473ffffffffffffffffffffffffffffffffffffffff1673ffffffffffffffffffffffffffffffffffffffff1614151561045b57600080fd5b6001600460008373ffffffffffffffffffffffffffffffffffffffff1673ffffffffffffffffffffffffffffffffffffffff16815260200190815260200160002060006101000a81548160ff02191690831515021790555050565b3373ffffffffffffffffffffffffffffffffffffffff166000809054906101000a900473ffffffffffffffffffffffffffffffffffffffff1673ffffffffffffffffffffffffffffffffffffffff1614151561051157600080fd5b80600160006101000a81548173ffffffffffffffffffffffffffffffffffffffff021916908373ffffffffffffffffffffffffffffffffffffffff16021790555050565b60025481565b6060806001600254101580156105be5750600160009054906101000a900473ffffffffffffffffffffffffffffffffffffffff1673ffffffffffffffffffffffffffffffffffffffff163373ffffffffffffffffffffffffffffffffffffffff16145b15156105c957600080fd5b60016002600082825403925050819055506003600060025481526020019081526020016000208054600181600116156101000203166002900480601f0160208091040260200160405190810160405280929190818152602001828054600181600116156101000203166002900480156106835780601f1061065857610100808354040283529160200191610683565b820191906000526020600020905b81548152906001019060200180831161066657829003601f168201915b5050505050905060036000600254815260200190815260200160002060006106ab91906107ce565b7f5cda296f896379b052bcfe0cc1724748f10f6389480e01c08d468753359e958f816040518080602001828103825283818151815260200191508051906020019080838360005b8381101561070d5780820151818401526020810190506106f2565b50505050905090810190601f16801561073a5780820380516001836020036101000a031916815260200191505b509250505060405180910390a18091505090565b828054600181600116156101000203166002900490600052602060002090601f016020900481019282601f1061078f57805160ff19168380011785556107bd565b828001600101855582156107bd579182015b828111156107bc5782518255916020019190600101906107a1565b5b5090506107ca9190610816565b5090565b50805460018160011615610100020316600290046000825580601f106107f45750610813565b601f0160209004906000526020600020908101906108129190610816565b5b50565b61083891905b8082111561083457600081600090555060010161081c565b5090565b905600a165627a7a72305820e23774dbb06a357ff058f3e86bf233c559440f169075a5b79d1200d67304ef640029",
  "source": "pragma solidity ^0.4.23;\n\n\ncontract Buffer{\n    \n    address private owner;\n    address private miraFactory;\n    uint public keysCount = 0;\n    uint private constant MAXKEYS = 100;\n    \n    mapping (uint => string) keysNumerator;\n    mapping (address => bool) masterNodes;\n    \n    event PublicKeyControlChange(string publicKey);\n    constructor() public{\n        owner = msg.sender;\n    }\n    \n    modifier onlyOwner {\n        require(owner == msg.sender);\n        _;\n    }\n    \n    function setMiraFactory(address factoryAddress) onlyOwner public{\n        miraFactory = factoryAddress;\n    }\n    \n    function addMasterNode(address masterNode) onlyOwner public{\n        masterNodes[masterNode] = true;\n    }\n    \n    function addKey(string key) public returns (bool){\n        if(((msg.sender == owner) || (masterNodes[msg.sender] == true)) && (keysCount <= MAXKEYS)){\n            keysNumerator[keysCount] = key;\n            keysCount++;\n            return true;\n        }else{\n            return false;\n        }\n    }\n\n    function isMasterNode(address _address) public view returns (bool){\n        return(masterNodes[_address]);\n    }\n    \n    function giveKey() public returns(string){\n        require(keysCount >= 1 && msg.sender == miraFactory);\n        keysCount -= 1;\n        string memory keyToGive = keysNumerator[keysCount];\n        delete keysNumerator[keysCount];\n        emit PublicKeyControlChange(keyToGive);\n        return keyToGive;\n    }\n    \n    \n}\n",
  "sourcePath": "/home/thplease/Desktop/ERC20/contracts/Buffer/Buffer.sol",
  "compiler": {
    "name": "solc",
    "version": "0.4.24+commit.e67f0147.Emscripten.clang"
  },
  "schemaVersion": "2.0.1",
  "updatedAt": "2018-08-28T17:34:25.792Z"
}