{
  "contractName": "Buffer",
  "abi": [
    {
      "constant": true,
      "inputs": [],
      "name": "MAXKEYS",
      "outputs": [
        {
          "name": "",
          "type": "uint256"
        }
      ],
      "payable": false,
      "stateMutability": "view",
      "type": "function"
    },
    {
      "constant": true,
      "inputs": [],
      "name": "keysCount",
      "outputs": [
        {
          "name": "",
          "type": "uint256"
        }
      ],
      "payable": false,
      "stateMutability": "view",
      "type": "function"
    },
    {
      "inputs": [],
      "payable": false,
      "stateMutability": "nonpayable",
      "type": "constructor"
    },
    {
      "anonymous": false,
      "inputs": [
        {
          "indexed": true,
          "name": "publicKey",
          "type": "string"
        },
        {
          "indexed": true,
          "name": "contractAddress",
          "type": "address"
        }
      ],
      "name": "PublicKeyControlChange",
      "type": "event"
    },
    {
      "constant": false,
      "inputs": [
        {
          "name": "factoryAddress",
          "type": "address"
        }
      ],
      "name": "setMiraFactory",
      "outputs": [],
      "payable": false,
      "stateMutability": "nonpayable",
      "type": "function"
    },
    {
      "constant": false,
      "inputs": [
        {
          "name": "masterNode",
          "type": "address"
        }
      ],
      "name": "addMasterNode",
      "outputs": [],
      "payable": false,
      "stateMutability": "nonpayable",
      "type": "function"
    },
    {
      "constant": false,
      "inputs": [
        {
          "name": "key",
          "type": "string"
        }
      ],
      "name": "addKey",
      "outputs": [
        {
          "name": "",
          "type": "bool"
        }
      ],
      "payable": false,
      "stateMutability": "nonpayable",
      "type": "function"
    },
    {
      "constant": true,
      "inputs": [
        {
          "name": "_address",
          "type": "address"
        }
      ],
      "name": "isMasterNode",
      "outputs": [
        {
          "name": "",
          "type": "bool"
        }
      ],
      "payable": false,
      "stateMutability": "view",
      "type": "function"
    },
    {
      "constant": false,
      "inputs": [
        {
          "name": "contractAddress",
          "type": "address"
        }
      ],
      "name": "giveKey",
      "outputs": [
        {
          "name": "",
          "type": "string"
        }
      ],
      "payable": false,
      "stateMutability": "nonpayable",
      "type": "function"
    }
  ],
  "bytecode": "0x6080604052600060025534801561001557600080fd5b50336000806101000a81548173ffffffffffffffffffffffffffffffffffffffff021916908373ffffffffffffffffffffffffffffffffffffffff1602179055506109ea806100656000396000f300608060405260043610610083576000357c0100000000000000000000000000000000000000000000000000000000900463ffffffff1680630458a33514610088578063185f0581146100e357806350382c1a1461010e57806362b1d93c1461018f5780636b8a98a91461024b578063993cbd1d1461028e578063e4f627fe146102d1575b600080fd5b34801561009457600080fd5b506100c9600480360381019080803573ffffffffffffffffffffffffffffffffffffffff1690602001909291905050506102fc565b604051808215151515815260200191505060405180910390f35b3480156100ef57600080fd5b506100f8610352565b6040518082815260200191505060405180910390f35b34801561011a57600080fd5b50610175600480360381019080803590602001908201803590602001908080601f0160208091040260200160405190810160405280939291908181526020018383808284378201915050505050509192919290505050610357565b604051808215151515815260200191505060405180910390f35b34801561019b57600080fd5b506101d0600480360381019080803573ffffffffffffffffffffffffffffffffffffffff169060200190929190505050610467565b6040518080602001828103825283818151815260200191508051906020019080838360005b838110156102105780820151818401526020810190506101f5565b50505050905090810190601f16801561023d5780820380516001836020036101000a031916815260200191505b509250505060405180910390f35b34801561025757600080fd5b5061028c600480360381019080803573ffffffffffffffffffffffffffffffffffffffff169060200190929190505050610776565b005b34801561029a57600080fd5b506102cf600480360381019080803573ffffffffffffffffffffffffffffffffffffffff16906020019092919050505061082c565b005b3480156102dd57600080fd5b506102e66108cb565b6040518082815260200191505060405180910390f35b6000600460008373ffffffffffffffffffffffffffffffffffffffff1673ffffffffffffffffffffffffffffffffffffffff16815260200190815260200160002060009054906101000a900460ff169050919050565b606481565b60008060009054906101000a900473ffffffffffffffffffffffffffffffffffffffff1673ffffffffffffffffffffffffffffffffffffffff163373ffffffffffffffffffffffffffffffffffffffff161480610404575060011515600460003373ffffffffffffffffffffffffffffffffffffffff1673ffffffffffffffffffffffffffffffffffffffff16815260200190815260200160002060009054906101000a900460ff161515145b80156104135750606460025411155b1561045d578160036000600254815260200190815260200160002090805190602001906104419291906108d1565b5060026000815480929190600101919050555060019050610462565b600090505b919050565b6060806001600254101580156104ca5750600160009054906101000a900473ffffffffffffffffffffffffffffffffffffffff1673ffffffffffffffffffffffffffffffffffffffff163373ffffffffffffffffffffffffffffffffffffffff16145b15156104d557600080fd5b60016002600082825403925050819055506003600060025481526020019081526020016000208054600181600116156101000203166002900480601f01602080910402602001604051908101604052809291908181526020018280546001816001161561010002031660029004801561058f5780601f106105645761010080835404028352916020019161058f565b820191906000526020600020905b81548152906001019060200180831161057257829003601f168201915b5050505050905060036000600254815260200190815260200160002060006105b79190610951565b8273ffffffffffffffffffffffffffffffffffffffff16816040518082805190602001908083835b60208310151561060457805182526020820191506020810190506020830392506105df565b6001836020036101000a03801982511681845116808217855250505050505090500191505060405180910390207f709f12ad18daa98b29bda25da409d8c4be3a96df384a62b34b2c729b8780f29d60405160405180910390a38273ffffffffffffffffffffffffffffffffffffffff16636f6fc077826040518263ffffffff167c01000000000000000000000000000000000000000000000000000000000281526004018080602001828103825283818151815260200191508051906020019080838360005b838110156106e55780820151818401526020810190506106ca565b50505050905090810190601f1680156107125780820380516001836020036101000a031916815260200191505b5092505050602060405180830381600087803b15801561073157600080fd5b505af1158015610745573d6000803e3d6000fd5b505050506040513d602081101561075b57600080fd5b81019080805190602001909291905050505080915050919050565b3373ffffffffffffffffffffffffffffffffffffffff166000809054906101000a900473ffffffffffffffffffffffffffffffffffffffff1673ffffffffffffffffffffffffffffffffffffffff161415156107d157600080fd5b6001600460008373ffffffffffffffffffffffffffffffffffffffff1673ffffffffffffffffffffffffffffffffffffffff16815260200190815260200160002060006101000a81548160ff02191690831515021790555050565b3373ffffffffffffffffffffffffffffffffffffffff166000809054906101000a900473ffffffffffffffffffffffffffffffffffffffff1673ffffffffffffffffffffffffffffffffffffffff1614151561088757600080fd5b80600160006101000a81548173ffffffffffffffffffffffffffffffffffffffff021916908373ffffffffffffffffffffffffffffffffffffffff16021790555050565b60025481565b828054600181600116156101000203166002900490600052602060002090601f016020900481019282601f1061091257805160ff1916838001178555610940565b82800160010185558215610940579182015b8281111561093f578251825591602001919060010190610924565b5b50905061094d9190610999565b5090565b50805460018160011615610100020316600290046000825580601f106109775750610996565b601f0160209004906000526020600020908101906109959190610999565b5b50565b6109bb91905b808211156109b757600081600090555060010161099f565b5090565b905600a165627a7a72305820258512115f6d1d907aa8b252cf0ca95102710b3b844ce860432257fa310f64a30029",
  "source": "pragma solidity ^0.4.23;\n\nimport './BufferInterface.sol';\nimport '../SmartFactory/MiraboxContract.sol';\n\ncontract Buffer is BufferInterface{\n    \n    address private owner;\n    address private miraFactory;\n    uint public keysCount = 0;\n    uint public constant MAXKEYS = 100;\n    \n    mapping (uint => string) keysNumerator;\n    mapping (address => bool) masterNodes;\n\n    constructor() public{\n        owner = msg.sender;\n    }\n    \n    modifier onlyOwner {\n        require(owner == msg.sender);\n        _;\n    }\n    \n    function setMiraFactory(address factoryAddress) onlyOwner public{\n        miraFactory = factoryAddress;\n    }\n    \n    function addMasterNode(address masterNode) onlyOwner public{\n        masterNodes[masterNode] = true;\n    }\n    \n    function addKey(string key) public returns (bool){\n        if(((msg.sender == owner) || (masterNodes[msg.sender] == true)) && (keysCount <= MAXKEYS)){\n            keysNumerator[keysCount] = key;\n            keysCount++;\n            return true;\n        }else{\n            return false;\n        }\n    }\n\n    function isMasterNode(address _address) public view returns (bool){\n        return(masterNodes[_address]);\n    }\n    \n    function giveKey(address contractAddress) public returns(string){\n        require(keysCount >= 1 && msg.sender == miraFactory);\n        keysCount -= 1;\n        string memory keyToGive = keysNumerator[keysCount];\n        delete keysNumerator[keysCount];\n        emit PublicKeyControlChange(keyToGive, contractAddress);\n        MiraboxContract(contractAddress).setPublicKey(keyToGive);\n        return keyToGive;\n    }\n    \n    \n}\n",
  "sourcePath": "/home/thplease/Desktop/ERC20/contracts/Buffer/Buffer.sol",
  "compiler": {
    "name": "solc",
    "version": "0.4.24+commit.e67f0147.Emscripten.clang"
  },
  "schemaVersion": "2.0.1",
  "updatedAt": "2018-09-05T09:34:48.671Z"
}