{
  "contractName": "Buffer",
  "abi": [
    {
      "inputs": [],
      "payable": false,
      "stateMutability": "nonpayable",
      "type": "constructor"
    },
    {
      "anonymous": false,
      "inputs": [
        {
          "indexed": false,
          "name": "publicKey",
          "type": "string"
        }
      ],
      "name": "PublicKeyControlChange",
      "type": "event"
    },
    {
      "constant": false,
      "inputs": [
        {
          "name": "factoryAddress",
          "type": "address"
        }
      ],
      "name": "setMiraFactory",
      "outputs": [],
      "payable": false,
      "stateMutability": "nonpayable",
      "type": "function"
    },
    {
      "constant": false,
      "inputs": [
        {
          "name": "masterNode",
          "type": "address"
        }
      ],
      "name": "addMasterNode",
      "outputs": [],
      "payable": false,
      "stateMutability": "nonpayable",
      "type": "function"
    },
    {
      "constant": false,
      "inputs": [
        {
          "name": "key",
          "type": "string"
        }
      ],
      "name": "addKey",
      "outputs": [
        {
          "name": "",
          "type": "bool"
        }
      ],
      "payable": false,
      "stateMutability": "nonpayable",
      "type": "function"
    },
    {
      "constant": true,
      "inputs": [
        {
          "name": "_address",
          "type": "address"
        }
      ],
      "name": "isMasterNode",
      "outputs": [
        {
          "name": "",
          "type": "bool"
        }
      ],
      "payable": false,
      "stateMutability": "view",
      "type": "function"
    },
    {
      "constant": false,
      "inputs": [
        {
          "name": "source",
          "type": "string"
        }
      ],
      "name": "stringToBytes32",
      "outputs": [
        {
          "name": "result",
          "type": "bytes32"
        }
      ],
      "payable": false,
      "stateMutability": "nonpayable",
      "type": "function"
    },
    {
      "constant": false,
      "inputs": [],
      "name": "giveKey",
      "outputs": [
        {
          "name": "",
          "type": "string"
        }
      ],
      "payable": false,
      "stateMutability": "nonpayable",
      "type": "function"
    }
  ],
  "bytecode": "0x6080604052600060025534801561001557600080fd5b50336000806101000a81548173ffffffffffffffffffffffffffffffffffffffff021916908373ffffffffffffffffffffffffffffffffffffffff160217905550610906806100656000396000f300608060405260043610610078576000357c0100000000000000000000000000000000000000000000000000000000900463ffffffff1680630458a3351461007d57806350382c1a146100d85780636b8a98a914610159578063993cbd1d1461019c578063cfb51928146101df578063e9d8509714610264575b600080fd5b34801561008957600080fd5b506100be600480360381019080803573ffffffffffffffffffffffffffffffffffffffff1690602001909291905050506102f4565b604051808215151515815260200191505060405180910390f35b3480156100e457600080fd5b5061013f600480360381019080803590602001908201803590602001908080601f016020809104026020016040519081016040528093929190818152602001838380828437820191505050505050919291929050505061034a565b604051808215151515815260200191505060405180910390f35b34801561016557600080fd5b5061019a600480360381019080803573ffffffffffffffffffffffffffffffffffffffff16906020019092919050505061045c565b005b3480156101a857600080fd5b506101dd600480360381019080803573ffffffffffffffffffffffffffffffffffffffff169060200190929190505050610512565b005b3480156101eb57600080fd5b50610246600480360381019080803590602001908201803590602001908080601f01602080910402602001604051908101604052809392919081815260200183838082843782019150505050505091929192905050506105b1565b60405180826000191660001916815260200191505060405180910390f35b34801561027057600080fd5b506102796105dc565b6040518080602001828103825283818151815260200191508051906020019080838360005b838110156102b957808201518184015260208101905061029e565b50505050905090810190601f1680156102e65780820380516001836020036101000a031916815260200191505b509250505060405180910390f35b6000600460008373ffffffffffffffffffffffffffffffffffffffff1673ffffffffffffffffffffffffffffffffffffffff16815260200190815260200160002060009054906101000a900460ff169050919050565b60008060009054906101000a900473ffffffffffffffffffffffffffffffffffffffff1673ffffffffffffffffffffffffffffffffffffffff163373ffffffffffffffffffffffffffffffffffffffff1614806103f7575060011515600460003373ffffffffffffffffffffffffffffffffffffffff1673ffffffffffffffffffffffffffffffffffffffff16815260200190815260200160002060009054906101000a900460ff161515145b80156104085750622dc6c060025411155b15610452578160036000600254815260200190815260200160002090805190602001906104369291906107ed565b5060026000815480929190600101919050555060019050610457565b600090505b919050565b3373ffffffffffffffffffffffffffffffffffffffff166000809054906101000a900473ffffffffffffffffffffffffffffffffffffffff1673ffffffffffffffffffffffffffffffffffffffff161415156104b757600080fd5b6001600460008373ffffffffffffffffffffffffffffffffffffffff1673ffffffffffffffffffffffffffffffffffffffff16815260200190815260200160002060006101000a81548160ff02191690831515021790555050565b3373ffffffffffffffffffffffffffffffffffffffff166000809054906101000a900473ffffffffffffffffffffffffffffffffffffffff1673ffffffffffffffffffffffffffffffffffffffff1614151561056d57600080fd5b80600160006101000a81548173ffffffffffffffffffffffffffffffffffffffff021916908373ffffffffffffffffffffffffffffffffffffffff16021790555050565b600060608290506000815114156105ce57600060010291506105d6565b602083015191505b50919050565b606060006001600254101580156106405750600160009054906101000a900473ffffffffffffffffffffffffffffffffffffffff1673ffffffffffffffffffffffffffffffffffffffff163373ffffffffffffffffffffffffffffffffffffffff16145b151561064b57600080fd5b600160026000828254039250508190555060036000600254815260200190815260200160002090506003600060025481526020019081526020016000206000610694919061086d565b7f5cda296f896379b052bcfe0cc1724748f10f6389480e01c08d468753359e958f81604051808060200182810382528381815460018160011615610100020316600290048152602001915080546001816001161561010002031660029004801561073f5780601f106107145761010080835404028352916020019161073f565b820191906000526020600020905b81548152906001019060200180831161072257829003601f168201915b50509250505060405180910390a1808054600181600116156101000203166002900480601f0160208091040260200160405190810160405280929190818152602001828054600181600116156101000203166002900480156107e25780601f106107b7576101008083540402835291602001916107e2565b820191906000526020600020905b8154815290600101906020018083116107c557829003601f168201915b505050505091505090565b828054600181600116156101000203166002900490600052602060002090601f016020900481019282601f1061082e57805160ff191683800117855561085c565b8280016001018555821561085c579182015b8281111561085b578251825591602001919060010190610840565b5b50905061086991906108b5565b5090565b50805460018160011615610100020316600290046000825580601f1061089357506108b2565b601f0160209004906000526020600020908101906108b191906108b5565b5b50565b6108d791905b808211156108d35760008160009055506001016108bb565b5090565b905600a165627a7a72305820d4d4df4002ca9869ccb936e0377c16f1dc97edb2de646d26b8061e2f599fdd240029",
  "source": "pragma solidity ^0.4.23;\n\n\ncontract Buffer{\n    \n    address private owner;\n    address private miraFactory;\n    uint private keysCount = 0;\n    uint private constant MAXKEYS = 3000000;\n    \n    mapping (uint => string) keysNumerator;\n    mapping (address => bool) masterNodes;\n    \n    event PublicKeyControlChange(string publicKey);\n    constructor() public{\n        owner = msg.sender;\n    }\n    \n    modifier onlyOwner {\n        require(owner == msg.sender);\n        _;\n    }\n    \n    function setMiraFactory(address factoryAddress) onlyOwner public{\n        miraFactory = factoryAddress;\n    }\n    \n    function addMasterNode(address masterNode) onlyOwner public{\n        masterNodes[masterNode] = true;\n    }\n    \n    function addKey(string key) public returns (bool){\n        if(((msg.sender == owner) || (masterNodes[msg.sender] == true)) && (keysCount <= MAXKEYS)){\n            keysNumerator[keysCount] = key;\n            keysCount++;\n            return true;\n        }else{\n            return false;\n        }\n    }\n\n    function isMasterNode(address _address) public view returns (bool){\n        return(masterNodes[_address]);\n    }\n\n    function stringToBytes32(string memory source) returns (bytes32 result) {\n        bytes memory tempEmptyStringTest = bytes(source);\n        if (tempEmptyStringTest.length == 0) {\n            return 0x0;\n        }\n\n        assembly {\n            result := mload(add(source, 32))\n        }\n    }\n    \n    function giveKey() public returns(string){\n        require(keysCount >= 1 && msg.sender == miraFactory);\n        keysCount -= 1;\n        string keyToGive = keysNumerator[keysCount];\n        delete keysNumerator[keysCount];\n        emit PublicKeyControlChange(keyToGive);\n        return keyToGive;\n    }\n    \n    \n}\n",
  "sourcePath": "/home/thplease/Desktop/ERC20/contracts/Buffer/Buffer.sol",
  "compiler": {
    "name": "solc",
    "version": "0.4.24+commit.e67f0147.Emscripten.clang"
  },
  "schemaVersion": "2.0.1",
  "updatedAt": "2018-08-28T08:35:04.985Z"
}