{
  "contractName": "BuilderOnrequest",
  "abi": [
    {
      "constant": false,
      "inputs": [
        {
          "name": "creator",
          "type": "address"
        }
      ],
      "name": "create",
      "outputs": [
        {
          "name": "",
          "type": "address"
        }
      ],
      "payable": false,
      "stateMutability": "nonpayable",
      "type": "function"
    },
    {
      "constant": true,
      "inputs": [],
      "name": "getName",
      "outputs": [
        {
          "name": "",
          "type": "bytes32"
        }
      ],
      "payable": false,
      "stateMutability": "pure",
      "type": "function"
    },
    {
      "constant": true,
      "inputs": [],
      "name": "getVersion",
      "outputs": [
        {
          "name": "",
          "type": "bytes32"
        }
      ],
      "payable": false,
      "stateMutability": "pure",
      "type": "function"
    },
    {
      "constant": true,
      "inputs": [],
      "name": "getAuthor",
      "outputs": [
        {
          "name": "",
          "type": "bytes32"
        }
      ],
      "payable": false,
      "stateMutability": "pure",
      "type": "function"
    },
    {
      "constant": true,
      "inputs": [],
      "name": "getAbi",
      "outputs": [
        {
          "name": "",
          "type": "string"
        }
      ],
      "payable": false,
      "stateMutability": "pure",
      "type": "function"
    },
    {
      "constant": true,
      "inputs": [],
      "name": "getDescription",
      "outputs": [
        {
          "name": "",
          "type": "string"
        }
      ],
      "payable": false,
      "stateMutability": "pure",
      "type": "function"
    }
  ],
  "bytecode": "0x608060405234801561001057600080fd5b50610c31806100206000396000f300608060405260043610610078576000357c0100000000000000000000000000000000000000000000000000000000900463ffffffff1680630ae09c891461007d5780630d8e6e2c1461010d57806317d7de7c146101405780631a092541146101735780639ed9331814610203578063a5faa12514610286575b600080fd5b34801561008957600080fd5b506100926102b9565b6040518080602001828103825283818151815260200191508051906020019080838360005b838110156100d25780820151818401526020810190506100b7565b50505050905090810190601f1680156100ff5780820380516001836020036101000a031916815260200191505b509250505060405180910390f35b34801561011957600080fd5b506101226102dd565b60405180826000191660001916815260200191505060405180910390f35b34801561014c57600080fd5b50610155610305565b60405180826000191660001916815260200191505060405180910390f35b34801561017f57600080fd5b5061018861032d565b6040518080602001828103825283818151815260200191508051906020019080838360005b838110156101c85780820151818401526020810190506101ad565b50505050905090810190601f1680156101f55780820380516001836020036101000a031916815260200191505b509250505060405180910390f35b34801561020f57600080fd5b50610244600480360381019080803573ffffffffffffffffffffffffffffffffffffffff169060200190929190505050610390565b604051808273ffffffffffffffffffffffffffffffffffffffff1673ffffffffffffffffffffffffffffffffffffffff16815260200191505060405180910390f35b34801561029257600080fd5b5061029b610436565b60405180826000191660001916815260200191505060405180910390f35b60606103406040519081016040528061031681526020016108f06103169139905090565b60007f302e302e31000000000000000000000000000000000000000000000000000000905090565b60007f4f6e726571756573740000000000000000000000000000000000000000000000905090565b60608060405190810160405280603381526020017f43616e206265206f70656e6564206f6e6c792062792061737369676e6564206181526020017f646472657373206f72206279206f776e65722e00000000000000000000000000815250905090565b600080600073ffffffffffffffffffffffffffffffffffffffff168373ffffffffffffffffffffffffffffffffffffffff16141515156103cf57600080fd5b826103d861045e565b808273ffffffffffffffffffffffffffffffffffffffff1673ffffffffffffffffffffffffffffffffffffffff168152602001915050604051809103906000f08015801561042a573d6000803e3d6000fd5b50905080915050919050565b60007f4d6972614c616200000000000000000000000000000000000000000000000000905090565b6040516104818061046f833901905600608060405260008060006101000a81548160ff02191690831515021790555034801561002a57600080fd5b506040516020806104818339810180604052810190808051906020019092919050505080600160006101000a81548173ffffffffffffffffffffffffffffffffffffffff021916908373ffffffffffffffffffffffffffffffffffffffff160217905550506103e38061009e6000396000f300608060405260043610610062576000357c0100000000000000000000000000000000000000000000000000000000900463ffffffff168063a01d3c2c14610067578063a6f9dae1146100aa578063d6409545146100ed578063fcfff16f1461011c575b600080fd5b34801561007357600080fd5b506100a8600480360381019080803573ffffffffffffffffffffffffffffffffffffffff16906020019092919050505061014b565b005b3480156100b657600080fd5b506100eb600480360381019080803573ffffffffffffffffffffffffffffffffffffffff169060200190929190505050610227565b005b3480156100f957600080fd5b506101026102c7565b604051808215151515815260200191505060405180910390f35b34801561012857600080fd5b506101316102dd565b604051808215151515815260200191505060405180910390f35b600160009054906101000a900473ffffffffffffffffffffffffffffffffffffffff1673ffffffffffffffffffffffffffffffffffffffff163373ffffffffffffffffffffffffffffffffffffffff161415156101a757600080fd5b600073ffffffffffffffffffffffffffffffffffffffff168173ffffffffffffffffffffffffffffffffffffffff16141515156101e357600080fd5b80600060016101000a81548173ffffffffffffffffffffffffffffffffffffffff021916908373ffffffffffffffffffffffffffffffffffffffff16021790555050565b600160009054906101000a900473ffffffffffffffffffffffffffffffffffffffff1673ffffffffffffffffffffffffffffffffffffffff163373ffffffffffffffffffffffffffffffffffffffff1614151561028357600080fd5b80600160006101000a81548173ffffffffffffffffffffffffffffffffffffffff021916908373ffffffffffffffffffffffffffffffffffffffff16021790555050565b60008060009054906101000a900460ff16905090565b60008060019054906101000a900473ffffffffffffffffffffffffffffffffffffffff1673ffffffffffffffffffffffffffffffffffffffff163373ffffffffffffffffffffffffffffffffffffffff1614806103875750600160009054906101000a900473ffffffffffffffffffffffffffffffffffffffff1673ffffffffffffffffffffffffffffffffffffffff163373ffffffffffffffffffffffffffffffffffffffff16145b156103af5760016000806101000a81548160ff021916908315150217905550600190506103b4565b600090505b905600a165627a7a7230582014e3fff3969e440342a9d38274f110735c1379b41d6d4d74bf3661f48307357900295b7b22636f6e7374616e74223a2066616c73652c22696e70757473223a205b7b226e616d65223a20226e65774f70656e41646472657373222c2274797065223a202261646472657373227d5d2c226e616d65223a202273657453657474696e6773222c226f757470757473223a205b5d2c2270617961626c65223a2066616c73652c2273746174654d75746162696c697479223a20226e6f6e70617961626c65222c2274797065223a202266756e6374696f6e227d2c7b22636f6e7374616e74223a2066616c73652c22696e70757473223a205b7b226e616d65223a20226e65774f776e6572222c2274797065223a202261646472657373227d5d2c226e616d65223a20226368616e67654f776e6572222c226f757470757473223a205b5d2c2270617961626c65223a2066616c73652c2273746174654d75746162696c697479223a20226e6f6e70617961626c65222c2274797065223a202266756e6374696f6e227d2c7b22636f6e7374616e74223a20747275652c22696e70757473223a205b5d2c226e616d65223a202261736b4f70656e222c226f757470757473223a205b7b226e616d65223a2022222c2274797065223a2022626f6f6c227d5d2c2270617961626c65223a2066616c73652c2273746174654d75746162696c697479223a202276696577222c2274797065223a202266756e6374696f6e227d2c7b22636f6e7374616e74223a2066616c73652c22696e70757473223a205b5d2c226e616d65223a20226f70656e222c226f757470757473223a205b7b226e616d65223a2022222c2274797065223a2022626f6f6c227d5d2c2270617961626c65223a2066616c73652c2273746174654d75746162696c697479223a20226e6f6e70617961626c65222c2274797065223a202266756e6374696f6e227d2c7b22696e70757473223a205b7b226e616d65223a202263726561746f72222c2274797065223a202261646472657373227d5d2c2270617961626c65223a2066616c73652c2273746174654d75746162696c697479223a20226e6f6e70617961626c65222c2274797065223a2022636f6e7374727563746f72227d5da165627a7a72305820b15233b92dd6bcc3d01139ba29662d8759d686728176d75d5e1b6bcd7c29d4dc0029",
  "source": "pragma solidity ^0.4.18;\n\nimport './Onrequest.sol';\ncontract BuilderOnrequest{\n    function create(address creator) public returns (address) {\n        require(creator != address(0));\n        address templateInstance =  new Onrequest(creator);\n        return templateInstance;\n    }\n    function getName() public pure returns (bytes32){\n        return \"Onrequest\";\n    }\n    function getVersion() public pure returns (bytes32){\n        return \"0.0.1\";\n    }\n    function getAuthor() public pure returns (bytes32){\n        return \"MiraLab\";\n    }\n    function getAbi() public pure returns (string){\n        return '[{\"constant\": false,\"inputs\": [{\"name\": \"newOpenAddress\",\"type\": \"address\"}],\"name\": \"setSettings\",\"outputs\": [],\"payable\": false,\"stateMutability\": \"nonpayable\",\"type\": \"function\"},{\"constant\": false,\"inputs\": [{\"name\": \"newOwner\",\"type\": \"address\"}],\"name\": \"changeOwner\",\"outputs\": [],\"payable\": false,\"stateMutability\": \"nonpayable\",\"type\": \"function\"},{\"constant\": true,\"inputs\": [],\"name\": \"askOpen\",\"outputs\": [{\"name\": \"\",\"type\": \"bool\"}],\"payable\": false,\"stateMutability\": \"view\",\"type\": \"function\"},{\"constant\": false,\"inputs\": [],\"name\": \"open\",\"outputs\": [{\"name\": \"\",\"type\": \"bool\"}],\"payable\": false,\"stateMutability\": \"nonpayable\",\"type\": \"function\"},{\"inputs\": [{\"name\": \"creator\",\"type\": \"address\"}],\"payable\": false,\"stateMutability\": \"nonpayable\",\"type\": \"constructor\"}]';\n    }\n    function getDescription() public pure returns (string){\n        return \"Can be opened only by assigned address or by owner.\";\n    }\n}\n",
  "sourcePath": "/home/thplease/Desktop/ERC20/contracts/SmartFactory/BuilderOnrequest.sol",
  "compiler": {
    "name": "solc",
    "version": "0.4.24+commit.e67f0147.Emscripten.clang"
  },
  "schemaVersion": "2.0.1",
  "updatedAt": "2018-08-22T07:32:04.002Z"
}