{
  "contractName": "Builder",
  "abi": [
    {
      "constant": false,
      "inputs": [
        {
          "name": "",
          "type": "address"
        }
      ],
      "name": "create",
      "outputs": [
        {
          "name": "",
          "type": "address"
        }
      ],
      "payable": false,
      "stateMutability": "nonpayable",
      "type": "function"
    },
    {
      "constant": true,
      "inputs": [],
      "name": "getName",
      "outputs": [
        {
          "name": "",
          "type": "bytes32"
        }
      ],
      "payable": false,
      "stateMutability": "pure",
      "type": "function"
    },
    {
      "constant": true,
      "inputs": [],
      "name": "getVersion",
      "outputs": [
        {
          "name": "",
          "type": "bytes32"
        }
      ],
      "payable": false,
      "stateMutability": "pure",
      "type": "function"
    },
    {
      "constant": true,
      "inputs": [],
      "name": "getAuthor",
      "outputs": [
        {
          "name": "",
          "type": "bytes32"
        }
      ],
      "payable": false,
      "stateMutability": "pure",
      "type": "function"
    }
  ],
  "bytecode": "0x608060405234801561001057600080fd5b506101c5806100206000396000f300608060405260043610610062576000357c0100000000000000000000000000000000000000000000000000000000900463ffffffff1680630d8e6e2c1461006757806317d7de7c1461009a5780639ed93318146100cd578063a5faa12514610150575b600080fd5b34801561007357600080fd5b5061007c610183565b60405180826000191660001916815260200191505060405180910390f35b3480156100a657600080fd5b506100af610188565b60405180826000191660001916815260200191505060405180910390f35b3480156100d957600080fd5b5061010e600480360381019080803573ffffffffffffffffffffffffffffffffffffffff16906020019092919050505061018d565b604051808273ffffffffffffffffffffffffffffffffffffffff1673ffffffffffffffffffffffffffffffffffffffff16815260200191505060405180910390f35b34801561015c57600080fd5b50610165610194565b60405180826000191660001916815260200191505060405180910390f35b600090565b600090565b6000919050565b6000905600a165627a7a723058201e872f5aee09b5b09a1114e72e41f62aa040e300c58dfec971f9be7b2ebddd7e0029",
  "source": "pragma solidity ^0.4.18;\r\nimport \"./strings.sol\";\r\ncontract Builder{\r\n    function create(address) public returns (address) {}\r\n    function getName() public pure returns (bytes32){}\r\n    function getVersion() public pure returns (bytes32){}\r\n    function getAuthor() public pure returns (bytes32){}\r\n}\r\ncontract MiraFactory{\r\n    using strings for *;\r\n    \r\n    address public owner;\r\n    address private acl;\r\n    \r\n    mapping(bytes32 => address) public templates;\r\n    \r\n    string public templatesList;\r\n    bool private firstTemplate = true;\r\n    \r\n    function MiraFactory() public{\r\n        owner = msg.sender;\r\n        templatesList = '{\"templates\": []}';\r\n    }\r\n    \r\n    modifier onlyOwner {\r\n        require(msg.sender == owner);\r\n        _;\r\n    }\r\n    \r\n    modifier onlyACL{\r\n        require(acl != address(0) && msg.sender == acl);\r\n        _;\r\n    }\r\n    \r\n    function setOwner(address _owner) public onlyOwner{\r\n        require(_owner != address(0));\r\n        owner = _owner;\r\n    }\r\n    \r\n    function setACLcontract(address _acl) public onlyOwner{\r\n        acl = _acl;\r\n    }\r\n    \r\n    function bytes32ToString(bytes32 x) private pure returns (string) {\r\n        bytes memory bytesString = new bytes(32);\r\n        uint charCount = 0;\r\n        for (uint j = 0; j < 32; j++) {\r\n            byte char = byte(bytes32(uint(x) * 2 ** (8 * j)));\r\n            if (char != 0) {\r\n                bytesString[charCount] = char;\r\n                charCount++;\r\n            }\r\n        }\r\n        bytes memory bytesStringTrimmed = new bytes(charCount);\r\n        for (j = 0; j < charCount; j++) {\r\n            bytesStringTrimmed[j] = bytesString[j];\r\n        }\r\n        return string(bytesStringTrimmed);\r\n    }\r\n    \r\n    function toAsciiString(address x) pure private returns (string) {\r\n        bytes memory s = new bytes(40);\r\n        for (uint i = 0; i < 20; i++) {\r\n            byte b = byte(uint8(uint(x) / (2**(8*(19 - i)))));\r\n            byte hi = byte(uint8(b) / 16);\r\n            byte lo = byte(uint8(b) - 16 * uint8(hi));\r\n            s[2*i] = char(hi);\r\n            s[2*i+1] = char(lo);            \r\n        }\r\n        return string(s);\r\n    }\r\n\r\n    function char(byte b) pure private returns (byte c) {\r\n        if (b < 10) return byte(uint8(b) + 0x30);\r\n        else return byte(uint8(b) + 0x57);\r\n    }\r\n    \r\n    function addTemplate(address templateAddress) public onlyOwner returns(bool){\r\n        require(templateAddress != address(0)); \r\n        Builder template = Builder(templateAddress);\r\n        if(templates[template.getName()] != address(0))\r\n            return false;\r\n        templates[template.getName()] = templateAddress;\r\n        addToTemplatesList(template);\r\n        return true;\r\n    }\r\n    \r\n    function addToTemplatesList(Builder template) private{\r\n        string memory name = bytes32ToString(template.getName());\r\n        string memory version = bytes32ToString(template.getVersion());\r\n        string memory author =  bytes32ToString(template.getAuthor());\r\n        string memory _address = toAsciiString(templates[template.getName()]);\r\n        if(firstTemplate){\r\n            var newContent = '{\"name\": \"'.toSlice().concat(name.toSlice());\r\n            firstTemplate = false;\r\n        }else{\r\n            newContent = ', {\"name\": \"'.toSlice().concat(name.toSlice());\r\n        }\r\n        newContent = newContent.toSlice().concat('\",\"version\": \"'.toSlice());\r\n        newContent = newContent.toSlice().concat(version.toSlice());\r\n        newContent = newContent.toSlice().concat('\",\"author\": \"'.toSlice());\r\n        newContent = newContent.toSlice().concat(author.toSlice());\r\n        newContent = newContent.toSlice().concat('\",\"address\": \"0x'.toSlice());\r\n        newContent = newContent.toSlice().concat(_address.toSlice());\r\n        newContent = newContent.toSlice().concat('\"}]}'.toSlice());\r\n        var prevContent = templatesList.toSlice();\r\n        prevContent.until(\"]}\".toSlice());\r\n        templatesList =  prevContent.concat(newContent.toSlice());\r\n    }\r\n    \r\n    function getTemplatesList() public view returns(string){\r\n        return templatesList;\r\n    }\r\n    \r\n    function createSmartOpener(bytes32 name, bytes32 documentid, address creator) public onlyACL returns(address){\r\n        require(name[0]!=0 && \r\n            documentid[0]!= 0 && \r\n            creator!=address(0) &&\r\n            templates[name] != address(0));\r\n        Builder templateInstance = Builder(templates[name]); \r\n        return templateInstance.create(creator);\r\n    }\r\n}\r\n",
  "sourcePath": "/home/thplease/Desktop/ERC20/contracts/SmartFactory/MiraFactory.sol",
  "compiler": {
    "name": "solc",
    "version": "0.4.24+commit.e67f0147.Emscripten.clang"
  },
  "schemaVersion": "2.0.1",
  "updatedAt": "2018-08-22T07:32:01.981Z"
}