{
  "contractName": "BuilderOnrequest2fa",
  "abi": [
    {
      "constant": false,
      "inputs": [
        {
          "name": "creator",
          "type": "address"
        },
        {
          "name": "bufferAddress",
          "type": "address"
        }
      ],
      "name": "create",
      "outputs": [
        {
          "name": "",
          "type": "address"
        }
      ],
      "payable": false,
      "stateMutability": "nonpayable",
      "type": "function"
    },
    {
      "constant": true,
      "inputs": [],
      "name": "getName",
      "outputs": [
        {
          "name": "",
          "type": "bytes32"
        }
      ],
      "payable": false,
      "stateMutability": "pure",
      "type": "function"
    },
    {
      "constant": true,
      "inputs": [],
      "name": "getVersion",
      "outputs": [
        {
          "name": "",
          "type": "bytes32"
        }
      ],
      "payable": false,
      "stateMutability": "pure",
      "type": "function"
    },
    {
      "constant": true,
      "inputs": [],
      "name": "getAuthor",
      "outputs": [
        {
          "name": "",
          "type": "bytes32"
        }
      ],
      "payable": false,
      "stateMutability": "pure",
      "type": "function"
    },
    {
      "constant": true,
      "inputs": [],
      "name": "getAbi",
      "outputs": [
        {
          "name": "",
          "type": "string"
        }
      ],
      "payable": false,
      "stateMutability": "pure",
      "type": "function"
    },
    {
      "constant": true,
      "inputs": [],
      "name": "getDescription",
      "outputs": [
        {
          "name": "",
          "type": "string"
        }
      ],
      "payable": false,
      "stateMutability": "pure",
      "type": "function"
    }
  ],
  "bytecode": "0x608060405234801561001057600080fd5b50612306806100206000396000f300608060405260043610610078576000357c0100000000000000000000000000000000000000000000000000000000900463ffffffff1680630ae09c891461007d5780630d8e6e2c1461010d57806317d7de7c146101405780631a092541146101735780633e68680a14610203578063a5faa125146102a6575b600080fd5b34801561008957600080fd5b506100926102d9565b6040518080602001828103825283818151815260200191508051906020019080838360005b838110156100d25780820151818401526020810190506100b7565b50505050905090810190601f1680156100ff5780820380516001836020036101000a031916815260200191505b509250505060405180910390f35b34801561011957600080fd5b506101226102fd565b60405180826000191660001916815260200191505060405180910390f35b34801561014c57600080fd5b50610155610325565b60405180826000191660001916815260200191505060405180910390f35b34801561017f57600080fd5b5061018861034d565b6040518080602001828103825283818151815260200191508051906020019080838360005b838110156101c85780820151818401526020810190506101ad565b50505050905090810190601f1680156101f55780820380516001836020036101000a031916815260200191505b509250505060405180910390f35b34801561020f57600080fd5b50610264600480360381019080803573ffffffffffffffffffffffffffffffffffffffff169060200190929190803573ffffffffffffffffffffffffffffffffffffffff1690602001909291905050506103d7565b604051808273ffffffffffffffffffffffffffffffffffffffff1673ffffffffffffffffffffffffffffffffffffffff16815260200191505060405180910390f35b3480156102b257600080fd5b506102bb6104b2565b60405180826000191660001916815260200191505060405180910390f35b6060610b0060405190810160405280610ad48152602001611807610ad49139905090565b60007f302e302e31000000000000000000000000000000000000000000000000000000905090565b60007f4f6e726571756573743266610000000000000000000000000000000000000000905090565b6060608060405190810160405280605e81526020017f43616e206265206f70656e6564206f6e6c792062792061737369676e6564206181526020017f646472657373206f72206279206f776e65722c20326e6420706172747920636181526020017f6e20626520616464656420746f20636f6e6669726d206f70656e696e672e0000815250905090565b600080600073ffffffffffffffffffffffffffffffffffffffff168473ffffffffffffffffffffffffffffffffffffffff161415151561041657600080fd5b83836104206104da565b808373ffffffffffffffffffffffffffffffffffffffff1673ffffffffffffffffffffffffffffffffffffffff1681526020018273ffffffffffffffffffffffffffffffffffffffff1673ffffffffffffffffffffffffffffffffffffffff16815260200192505050604051809103906000f0801580156104a5573d6000803e3d6000fd5b5090508091505092915050565b60007f4d6972614c616200000000000000000000000000000000000000000000000000905090565b60405161131c806104eb833901905600608060405260008060006101000a81548160ff0219169083151502179055506001600060016101000a81548160ff0219169083151502179055506001600060026101000a81548160ff02191690831515021790555060206040519081016040528060008152506002908051906020019061007a929190610204565b5034801561008757600080fd5b506040516040806200131c833981018060405281019080805190602001909291908051906020019092919050505081600360006101000a81548173ffffffffffffffffffffffffffffffffffffffff021916908373ffffffffffffffffffffffffffffffffffffffff16021790555080600460006101000a81548173ffffffffffffffffffffffffffffffffffffffff021916908373ffffffffffffffffffffffffffffffffffffffff160217905550600460009054906101000a900473ffffffffffffffffffffffffffffffffffffffff16600660006101000a81548173ffffffffffffffffffffffffffffffffffffffff021916908373ffffffffffffffffffffffffffffffffffffffff1602179055507fcf78cf0d6f3d8371e1075c69c492ab4ec5d8cf23a1a239b6a51a1d00be7ca31230604051808273ffffffffffffffffffffffffffffffffffffffff1673ffffffffffffffffffffffffffffffffffffffff16815260200191505060405180910390a150506102a9565b828054600181600116156101000203166002900490600052602060002090601f016020900481019282601f1061024557805160ff1916838001178555610273565b82800160010185558215610273579182015b82811115610272578251825591602001919060010190610257565b5b5090506102809190610284565b5090565b6102a691905b808211156102a257600081600090555060010161028a565b5090565b90565b61106380620002b96000396000f3006080604052600436106100c5576000357c0100000000000000000000000000000000000000000000000000000000900463ffffffff168063257c7d0a146100ca5780632e33445214610125578063578c95f0146101b557806363ffab31146102365780636f6fc077146102c65780638041cf4914610347578063a50f7fa614610429578063a6f9dae114610458578063c63d71df1461049b578063d64095451461051c578063f61e38181461054b578063f7260d3e1461057a578063fcfff16f1461060a575b600080fd5b3480156100d657600080fd5b5061010b600480360381019080803573ffffffffffffffffffffffffffffffffffffffff169060200190929190505050610639565b604051808215151515815260200191505060405180910390f35b34801561013157600080fd5b5061013a6106fb565b6040518080602001828103825283818151815260200191508051906020019080838360005b8381101561017a57808201518184015260208101905061015f565b50505050905090810190601f1680156101a75780820380516001836020036101000a031916815260200191505b509250505060405180910390f35b3480156101c157600080fd5b5061021c600480360381019080803590602001908201803590602001908080601f016020809104026020016040519081016040528093929190818152602001838380828437820191505050505050919291929050505061079d565b604051808215151515815260200191505060405180910390f35b34801561024257600080fd5b5061024b61091e565b6040518080602001828103825283818151815260200191508051906020019080838360005b8381101561028b578082015181840152602081019050610270565b50505050905090810190601f1680156102b85780820380516001836020036101000a031916815260200191505b509250505060405180910390f35b3480156102d257600080fd5b5061032d600480360381019080803590602001908201803590602001908080601f01602080910402602001604051908101604052809392919081815260200183838082843782019150505050505091929192905050506109bc565b604051808215151515815260200191505060405180910390f35b34801561035357600080fd5b506103ae600480360381019080803590602001908201803590602001908080601f0160208091040260200160405190810160405280939291908181526020018383808284378201915050505050509192919290505050610a3a565b6040518080602001828103825283818151815260200191508051906020019080838360005b838110156103ee5780820151818401526020810190506103d3565b50505050905090810190601f16801561041b5780820380516001836020036101000a031916815260200191505b509250505060405180910390f35b34801561043557600080fd5b5061043e610bfa565b604051808215151515815260200191505060405180910390f35b34801561046457600080fd5b50610499600480360381019080803573ffffffffffffffffffffffffffffffffffffffff169060200190929190505050610c0d565b005b3480156104a757600080fd5b50610502600480360381019080803590602001908201803590602001908080601f0160208091040260200160405190810160405280939291908181526020018383808284378201915050505050509192919290505050610cad565b604051808215151515815260200191505060405180910390f35b34801561052857600080fd5b50610531610e04565b604051808215151515815260200191505060405180910390f35b34801561055757600080fd5b50610560610e1a565b604051808215151515815260200191505060405180910390f35b34801561058657600080fd5b5061058f610e2d565b6040518080602001828103825283818151815260200191508051906020019080838360005b838110156105cf5780820151818401526020810190506105b4565b50505050905090810190601f1680156105fc5780820380516001836020036101000a031916815260200191505b509250505060405180910390f35b34801561061657600080fd5b5061061f610ecb565b604051808215151515815260200191505060405180910390f35b6000600360009054906101000a900473ffffffffffffffffffffffffffffffffffffffff1673ffffffffffffffffffffffffffffffffffffffff163373ffffffffffffffffffffffffffffffffffffffff1614151561069757600080fd5b60008060016101000a81548160ff02191690831515021790555081600560006101000a81548173ffffffffffffffffffffffffffffffffffffffff021916908373ffffffffffffffffffffffffffffffffffffffff16021790555060019050919050565b606060028054600181600116156101000203166002900480601f0160208091040260200160405190810160405280929190818152602001828054600181600116156101000203166002900480156107935780601f1061076857610100808354040283529160200191610793565b820191906000526020600020905b81548152906001019060200180831161077657829003601f168201915b5050505050905090565b6000600560009054906101000a900473ffffffffffffffffffffffffffffffffffffffff1673ffffffffffffffffffffffffffffffffffffffff163373ffffffffffffffffffffffffffffffffffffffff161415156107fb57600080fd5b816040518082805190602001908083835b602083101515610831578051825260208201915060208101905060208303925061080c565b6001836020036101000a038019825116818451168082178552505050505050905001915050604051809103902060001916600160405180828054600181600116156101000203166002900480156108bf5780601f1061089d5761010080835404028352918201916108bf565b820191906000526020600020905b8154815290600101906020018083116108ab575b50509150506040518091039020600019161415610914576001600060016101000a81548160ff02191690831515021790555060008060026101000a81548160ff02191690831515021790555060019050610919565b600090505b919050565b60028054600181600116156101000203166002900480601f0160208091040260200160405190810160405280929190818152602001828054600181600116156101000203166002900480156109b45780601f10610989576101008083540402835291602001916109b4565b820191906000526020600020905b81548152906001019060200180831161099757829003601f168201915b505050505081565b6000600460009054906101000a900473ffffffffffffffffffffffffffffffffffffffff1673ffffffffffffffffffffffffffffffffffffffff163373ffffffffffffffffffffffffffffffffffffffff16141515610a1a57600080fd5b8160029080519060200190610a30929190610f92565b5060019050919050565b6060600660009054906101000a900473ffffffffffffffffffffffffffffffffffffffff1673ffffffffffffffffffffffffffffffffffffffff16630458a335336040518263ffffffff167c0100000000000000000000000000000000000000000000000000000000028152600401808273ffffffffffffffffffffffffffffffffffffffff1673ffffffffffffffffffffffffffffffffffffffff168152602001915050602060405180830381600087803b158015610af957600080fd5b505af1158015610b0d573d6000803e3d6000fd5b505050506040513d6020811015610b2357600080fd5b81019080805190602001909291905050508015610b4b57506000809054906101000a900460ff165b1515610b5657600080fd5b7fe43f583156267bee3009c69d3c9c63c0ba5e3e9f25c2cd8819f1b9bfaaa31826826040518080602001828103825283818151815260200191508051906020019080838360005b83811015610bb8578082015181840152602081019050610b9d565b50505050905090810190601f168015610be55780820380516001836020036101000a031916815260200191505b509250505060405180910390a1819050919050565b600060029054906101000a900460ff1681565b600360009054906101000a900473ffffffffffffffffffffffffffffffffffffffff1673ffffffffffffffffffffffffffffffffffffffff163373ffffffffffffffffffffffffffffffffffffffff16141515610c6957600080fd5b80600360006101000a81548173ffffffffffffffffffffffffffffffffffffffff021916908373ffffffffffffffffffffffffffffffffffffffff16021790555050565b6000600360009054906101000a900473ffffffffffffffffffffffffffffffffffffffff1673ffffffffffffffffffffffffffffffffffffffff163373ffffffffffffffffffffffffffffffffffffffff16141515610d0b57600080fd5b600060029054906101000a900460ff1615610dfa578160019080519060200190610d36929190610f92565b507ffea7433eaf3da19b31aace36b2cc0589574c1b1ec64a132c10d46d6b586657ad60016040518080602001828103825283818154600181600116156101000203166002900481526020019150805460018160011615610100020316600290048015610de35780601f10610db857610100808354040283529160200191610de3565b820191906000526020600020905b815481529060010190602001808311610dc657829003601f168201915b50509250505060405180910390a160019050610dff565b600090505b919050565b60008060009054906101000a900460ff16905090565b600060019054906101000a900460ff1681565b60018054600181600116156101000203166002900480601f016020809104026020016040519081016040528092919081815260200182805460018160011615610100020316600290048015610ec35780601f10610e9857610100808354040283529160200191610ec3565b820191906000526020600020905b815481529060010190602001808311610ea657829003601f168201915b505050505081565b6000600360009054906101000a900473ffffffffffffffffffffffffffffffffffffffff1673ffffffffffffffffffffffffffffffffffffffff163373ffffffffffffffffffffffffffffffffffffffff16148015610f365750600060019054906101000a900460ff165b15610f8a5760016000806101000a81548160ff0219169083151502179055507f59ebeb90bc63057b6515673c3ecf9438e5058bca0f92585014eced636878c9a560405160405180910390a160019050610f8f565b600090505b90565b828054600181600116156101000203166002900490600052602060002090601f016020900481019282601f10610fd357805160ff1916838001178555611001565b82800160010185558215611001579182015b82811115611000578251825591602001919060010190610fe5565b5b50905061100e9190611012565b5090565b61103491905b80821115611030576000816000905550600101611018565b5090565b905600a165627a7a7230582096629534585316146f8f2490a1b981a368d21b10ca82116d6e40b379b7aa74a700295b7b22636f6e7374616e74223a747275652c22696e70757473223a5b5d2c226e616d65223a227075626c69634b6579222c226f757470757473223a5b7b226e616d65223a22222c2274797065223a22737472696e67227d5d2c2270617961626c65223a66616c73652c2273746174654d75746162696c697479223a2276696577222c2274797065223a2266756e6374696f6e227d2c7b22636f6e7374616e74223a747275652c22696e70757473223a5b5d2c226e616d65223a2263616e4368616e67655265636569766572222c226f757470757473223a5b7b226e616d65223a22222c2274797065223a22626f6f6c227d5d2c2270617961626c65223a66616c73652c2273746174654d75746162696c697479223a2276696577222c2274797065223a2266756e6374696f6e227d2c7b22636f6e7374616e74223a747275652c22696e70757473223a5b5d2c226e616d65223a22636f6e6669726d4f70656e326661222c226f757470757473223a5b7b226e616d65223a22222c2274797065223a22626f6f6c227d5d2c2270617961626c65223a66616c73652c2273746174654d75746162696c697479223a2276696577222c2274797065223a2266756e6374696f6e227d2c7b22636f6e7374616e74223a747275652c22696e70757473223a5b5d2c226e616d65223a227265636569766572222c226f757470757473223a5b7b226e616d65223a22222c2274797065223a22737472696e67227d5d2c2270617961626c65223a66616c73652c2273746174654d75746162696c697479223a2276696577222c2274797065223a2266756e6374696f6e227d2c7b22696e70757473223a5b7b226e616d65223a2263726561746f72222c2274797065223a2261646472657373227d2c7b226e616d65223a225f62756666657241646472657373222c2274797065223a2261646472657373227d5d2c2270617961626c65223a66616c73652c2273746174654d75746162696c697479223a226e6f6e70617961626c65222c2274797065223a22636f6e7374727563746f72227d2c7b22616e6f6e796d6f7573223a66616c73652c22696e70757473223a5b7b22696e6465786564223a66616c73652c226e616d65223a225f76616c7565222c2274797065223a22737472696e67227d5d2c226e616d65223a22507269766174654b6579222c2274797065223a226576656e74227d2c7b22616e6f6e796d6f7573223a66616c73652c22696e70757473223a5b5d2c226e616d65223a224f70656e222c2274797065223a226576656e74227d2c7b22616e6f6e796d6f7573223a66616c73652c22696e70757473223a5b7b22696e6465786564223a66616c73652c226e616d65223a227265636569766572222c2274797065223a22737472696e67227d5d2c226e616d65223a225570646174655265636569766572222c2274797065223a226576656e74227d2c7b22616e6f6e796d6f7573223a66616c73652c22696e70757473223a5b7b22696e6465786564223a66616c73652c226e616d65223a22636f6e747261637441646472657373222c2274797065223a2261646472657373227d5d2c226e616d65223a22436f6e747261637443726561746564222c2274797065223a226576656e74227d2c7b22636f6e7374616e74223a66616c73652c22696e70757473223a5b7b226e616d65223a226e65774f776e6572222c2274797065223a2261646472657373227d5d2c226e616d65223a226368616e67654f776e6572222c226f757470757473223a5b5d2c2270617961626c65223a66616c73652c2273746174654d75746162696c697479223a226e6f6e70617961626c65222c2274797065223a2266756e6374696f6e227d2c7b22636f6e7374616e74223a747275652c22696e70757473223a5b5d2c226e616d65223a2261736b4f70656e222c226f757470757473223a5b7b226e616d65223a22222c2274797065223a22626f6f6c227d5d2c2270617961626c65223a66616c73652c2273746174654d75746162696c697479223a2276696577222c2274797065223a2266756e6374696f6e227d2c7b22636f6e7374616e74223a66616c73652c22696e70757473223a5b7b226e616d65223a225f61646472657373326661222c2274797065223a2261646472657373227d5d2c226e616d65223a22616464324661222c226f757470757473223a5b7b226e616d65223a22222c2274797065223a22626f6f6c227d5d2c2270617961626c65223a66616c73652c2273746174654d75746162696c697479223a226e6f6e70617961626c65222c2274797065223a2266756e6374696f6e227d2c7b22636f6e7374616e74223a66616c73652c22696e70757473223a5b7b226e616d65223a225f7265636569766572222c2274797065223a22737472696e67227d5d2c226e616d65223a22636f6e6669726d4f70656e222c226f757470757473223a5b7b226e616d65223a22222c2274797065223a22626f6f6c227d5d2c2270617961626c65223a66616c73652c2273746174654d75746162696c697479223a226e6f6e70617961626c65222c2274797065223a2266756e6374696f6e227d2c7b22636f6e7374616e74223a66616c73652c22696e70757473223a5b7b226e616d65223a226e65775265636569766572222c2274797065223a22737472696e67227d5d2c226e616d65223a226368616e67655265636569766572222c226f757470757473223a5b7b226e616d65223a22222c2274797065223a22626f6f6c227d5d2c2270617961626c65223a66616c73652c2273746174654d75746162696c697479223a226e6f6e70617961626c65222c2274797065223a2266756e6374696f6e227d2c7b22636f6e7374616e74223a66616c73652c22696e70757473223a5b5d2c226e616d65223a226f70656e222c226f757470757473223a5b7b226e616d65223a22222c2274797065223a22626f6f6c227d5d2c2270617961626c65223a66616c73652c2273746174654d75746162696c697479223a226e6f6e70617961626c65222c2274797065223a2266756e6374696f6e227d2c7b22636f6e7374616e74223a66616c73652c22696e70757473223a5b5d2c226e616d65223a226765745075626c69634b6579222c226f757470757473223a5b7b226e616d65223a22222c2274797065223a22737472696e67227d5d2c2270617961626c65223a66616c73652c2273746174654d75746162696c697479223a226e6f6e70617961626c65222c2274797065223a2266756e6374696f6e227d2c7b22636f6e7374616e74223a66616c73652c22696e70757473223a5b7b226e616d65223a225f76616c7565222c2274797065223a22737472696e67227d5d2c226e616d65223a227075626c697368507269766174654b6579222c226f757470757473223a5b7b226e616d65223a22222c2274797065223a22737472696e67227d5d2c2270617961626c65223a66616c73652c2273746174654d75746162696c697479223a226e6f6e70617961626c65222c2274797065223a2266756e6374696f6e227d2c7b22636f6e7374616e74223a66616c73652c22696e70757473223a5b7b226e616d65223a225f7075626c69634b6579222c2274797065223a22737472696e67227d5d2c226e616d65223a227365745075626c69634b6579222c226f757470757473223a5b7b226e616d65223a22222c2274797065223a22626f6f6c227d5d2c2270617961626c65223a66616c73652c2273746174654d75746162696c697479223a226e6f6e70617961626c65222c2274797065223a2266756e6374696f6e227d5da165627a7a7230582051b3fa8da8635c9f223e15bc79bba134909d3bc377f6268acd9d7ac7694123a50029",
  "source": "pragma solidity ^0.4.18;\n\nimport './Onrequest2fa.sol';\ncontract BuilderOnrequest2fa{\n    function create(address creator, address bufferAddress) public returns (address) {\n        require(creator != address(0));\n        address templateInstance =  new Onrequest2fa(creator, bufferAddress);\n        return templateInstance;\n    }\n    function getName() public pure returns (bytes32){\n        return \"Onrequest2fa\";\n    }\n    function getVersion() public pure returns (bytes32){\n        return \"0.0.1\";\n    }\n    function getAuthor() public pure returns (bytes32){\n        return \"MiraLab\";\n    }\n    function getAbi() public pure returns (string){\n        return '[{\"constant\":true,\"inputs\":[],\"name\":\"publicKey\",\"outputs\":[{\"name\":\"\",\"type\":\"string\"}],\"payable\":false,\"stateMutability\":\"view\",\"type\":\"function\"},{\"constant\":true,\"inputs\":[],\"name\":\"canChangeReceiver\",\"outputs\":[{\"name\":\"\",\"type\":\"bool\"}],\"payable\":false,\"stateMutability\":\"view\",\"type\":\"function\"},{\"constant\":true,\"inputs\":[],\"name\":\"confirmOpen2fa\",\"outputs\":[{\"name\":\"\",\"type\":\"bool\"}],\"payable\":false,\"stateMutability\":\"view\",\"type\":\"function\"},{\"constant\":true,\"inputs\":[],\"name\":\"receiver\",\"outputs\":[{\"name\":\"\",\"type\":\"string\"}],\"payable\":false,\"stateMutability\":\"view\",\"type\":\"function\"},{\"inputs\":[{\"name\":\"creator\",\"type\":\"address\"},{\"name\":\"_bufferAddress\",\"type\":\"address\"}],\"payable\":false,\"stateMutability\":\"nonpayable\",\"type\":\"constructor\"},{\"anonymous\":false,\"inputs\":[{\"indexed\":false,\"name\":\"_value\",\"type\":\"string\"}],\"name\":\"PrivateKey\",\"type\":\"event\"},{\"anonymous\":false,\"inputs\":[],\"name\":\"Open\",\"type\":\"event\"},{\"anonymous\":false,\"inputs\":[{\"indexed\":false,\"name\":\"receiver\",\"type\":\"string\"}],\"name\":\"UpdateReceiver\",\"type\":\"event\"},{\"anonymous\":false,\"inputs\":[{\"indexed\":false,\"name\":\"contractAddress\",\"type\":\"address\"}],\"name\":\"ContractCreated\",\"type\":\"event\"},{\"constant\":false,\"inputs\":[{\"name\":\"newOwner\",\"type\":\"address\"}],\"name\":\"changeOwner\",\"outputs\":[],\"payable\":false,\"stateMutability\":\"nonpayable\",\"type\":\"function\"},{\"constant\":true,\"inputs\":[],\"name\":\"askOpen\",\"outputs\":[{\"name\":\"\",\"type\":\"bool\"}],\"payable\":false,\"stateMutability\":\"view\",\"type\":\"function\"},{\"constant\":false,\"inputs\":[{\"name\":\"_address2fa\",\"type\":\"address\"}],\"name\":\"add2Fa\",\"outputs\":[{\"name\":\"\",\"type\":\"bool\"}],\"payable\":false,\"stateMutability\":\"nonpayable\",\"type\":\"function\"},{\"constant\":false,\"inputs\":[{\"name\":\"_receiver\",\"type\":\"string\"}],\"name\":\"confirmOpen\",\"outputs\":[{\"name\":\"\",\"type\":\"bool\"}],\"payable\":false,\"stateMutability\":\"nonpayable\",\"type\":\"function\"},{\"constant\":false,\"inputs\":[{\"name\":\"newReceiver\",\"type\":\"string\"}],\"name\":\"changeReceiver\",\"outputs\":[{\"name\":\"\",\"type\":\"bool\"}],\"payable\":false,\"stateMutability\":\"nonpayable\",\"type\":\"function\"},{\"constant\":false,\"inputs\":[],\"name\":\"open\",\"outputs\":[{\"name\":\"\",\"type\":\"bool\"}],\"payable\":false,\"stateMutability\":\"nonpayable\",\"type\":\"function\"},{\"constant\":false,\"inputs\":[],\"name\":\"getPublicKey\",\"outputs\":[{\"name\":\"\",\"type\":\"string\"}],\"payable\":false,\"stateMutability\":\"nonpayable\",\"type\":\"function\"},{\"constant\":false,\"inputs\":[{\"name\":\"_value\",\"type\":\"string\"}],\"name\":\"publishPrivateKey\",\"outputs\":[{\"name\":\"\",\"type\":\"string\"}],\"payable\":false,\"stateMutability\":\"nonpayable\",\"type\":\"function\"},{\"constant\":false,\"inputs\":[{\"name\":\"_publicKey\",\"type\":\"string\"}],\"name\":\"setPublicKey\",\"outputs\":[{\"name\":\"\",\"type\":\"bool\"}],\"payable\":false,\"stateMutability\":\"nonpayable\",\"type\":\"function\"}]';\n    }\n    function getDescription() public pure returns (string){\n        return \"Can be opened only by assigned address or by owner, 2nd party can be added to confirm opening.\";\n    }\n}\n",
  "sourcePath": "/home/thplease/Desktop/ERC20/contracts/SmartFactory/BuilderOnrequest2fa.sol",
  "compiler": {
    "name": "solc",
    "version": "0.4.24+commit.e67f0147.Emscripten.clang"
  },
  "schemaVersion": "2.0.1",
  "updatedAt": "2018-09-03T11:42:05.228Z"
}