{
  "contractName": "BuilderOnrequest",
  "abi": [
    {
      "constant": false,
      "inputs": [
        {
          "name": "creator",
          "type": "address"
        },
        {
          "name": "bufferAddress",
          "type": "address"
        }
      ],
      "name": "create",
      "outputs": [
        {
          "name": "",
          "type": "address"
        }
      ],
      "payable": false,
      "stateMutability": "nonpayable",
      "type": "function"
    },
    {
      "constant": true,
      "inputs": [],
      "name": "getName",
      "outputs": [
        {
          "name": "",
          "type": "bytes32"
        }
      ],
      "payable": false,
      "stateMutability": "pure",
      "type": "function"
    },
    {
      "constant": true,
      "inputs": [],
      "name": "getVersion",
      "outputs": [
        {
          "name": "",
          "type": "bytes32"
        }
      ],
      "payable": false,
      "stateMutability": "pure",
      "type": "function"
    },
    {
      "constant": true,
      "inputs": [],
      "name": "getAuthor",
      "outputs": [
        {
          "name": "",
          "type": "bytes32"
        }
      ],
      "payable": false,
      "stateMutability": "pure",
      "type": "function"
    },
    {
      "constant": true,
      "inputs": [],
      "name": "getAbi",
      "outputs": [
        {
          "name": "",
          "type": "string"
        }
      ],
      "payable": false,
      "stateMutability": "pure",
      "type": "function"
    },
    {
      "constant": true,
      "inputs": [],
      "name": "getDescription",
      "outputs": [
        {
          "name": "",
          "type": "string"
        }
      ],
      "payable": false,
      "stateMutability": "pure",
      "type": "function"
    }
  ],
  "bytecode": "0x608060405234801561001057600080fd5b50611bbc806100206000396000f300608060405260043610610078576000357c0100000000000000000000000000000000000000000000000000000000900463ffffffff1680630ae09c891461007d5780630d8e6e2c1461010d57806317d7de7c146101405780631a092541146101735780633e68680a14610203578063a5faa125146102a6575b600080fd5b34801561008957600080fd5b506100926102d9565b6040518080602001828103825283818151815260200191508051906020019080838360005b838110156100d25780820151818401526020810190506100b7565b50505050905090810190601f1680156100ff5780820380516001836020036101000a031916815260200191505b509250505060405180910390f35b34801561011957600080fd5b506101226102fd565b60405180826000191660001916815260200191505060405180910390f35b34801561014c57600080fd5b50610155610325565b60405180826000191660001916815260200191505060405180910390f35b34801561017f57600080fd5b5061018861034d565b6040518080602001828103825283818151815260200191508051906020019080838360005b838110156101c85780820151818401526020810190506101ad565b50505050905090810190601f1680156101f55780820380516001836020036101000a031916815260200191505b509250505060405180910390f35b34801561020f57600080fd5b50610264600480360381019080803573ffffffffffffffffffffffffffffffffffffffff169060200190929190803573ffffffffffffffffffffffffffffffffffffffff1690602001909291905050506103b0565b604051808273ffffffffffffffffffffffffffffffffffffffff1673ffffffffffffffffffffffffffffffffffffffff16815260200191505060405180910390f35b3480156102b257600080fd5b506102bb61048b565b60405180826000191660001916815260200191505060405180910390f35b606061086060405190810160405280610826815260200161136b6108269139905090565b60007f302e302e31000000000000000000000000000000000000000000000000000000905090565b60007f4f6e726571756573740000000000000000000000000000000000000000000000905090565b60608060405190810160405280603381526020017f43616e206265206f70656e6564206f6e6c792062792061737369676e6564206181526020017f646472657373206f72206279206f776e65722e00000000000000000000000000815250905090565b600080600073ffffffffffffffffffffffffffffffffffffffff168473ffffffffffffffffffffffffffffffffffffffff16141515156103ef57600080fd5b83836103f96104b3565b808373ffffffffffffffffffffffffffffffffffffffff1673ffffffffffffffffffffffffffffffffffffffff1681526020018273ffffffffffffffffffffffffffffffffffffffff1673ffffffffffffffffffffffffffffffffffffffff16815260200192505050604051809103906000f08015801561047e573d6000803e3d6000fd5b5090508091505092915050565b60007f4d6972614c616200000000000000000000000000000000000000000000000000905090565b604051610ea7806104c4833901905600608060405260008060006101000a81548160ff0219169083151502179055506020604051908101604052806000815250600390805190602001906100449291906101ad565b5034801561005157600080fd5b50604051604080610ea7833981018060405281019080805190602001909291908051906020019092919050505081600260006101000a81548173ffffffffffffffffffffffffffffffffffffffff021916908373ffffffffffffffffffffffffffffffffffffffff16021790555080600560006101000a81548173ffffffffffffffffffffffffffffffffffffffff021916908373ffffffffffffffffffffffffffffffffffffffff160217905550600560009054906101000a900473ffffffffffffffffffffffffffffffffffffffff16600460006101000a81548173ffffffffffffffffffffffffffffffffffffffff021916908373ffffffffffffffffffffffffffffffffffffffff1602179055503073ffffffffffffffffffffffffffffffffffffffff167fcf78cf0d6f3d8371e1075c69c492ab4ec5d8cf23a1a239b6a51a1d00be7ca31260405160405180910390a25050610252565b828054600181600116156101000203166002900490600052602060002090601f016020900481019282601f106101ee57805160ff191683800117855561021c565b8280016001018555821561021c579182015b8281111561021b578251825591602001919060010190610200565b5b509050610229919061022d565b5090565b61024f91905b8082111561024b576000816000905550600101610233565b5090565b90565b610c46806102616000396000f300608060405260043610610099576000357c0100000000000000000000000000000000000000000000000000000000900463ffffffff1680632e3344521461009e57806363ffab311461012e5780636f6fc077146101be5780638041cf491461023f578063a6f9dae114610321578063c63d71df14610364578063d6409545146103e5578063f7260d3e14610414578063fcfff16f146104a4575b600080fd5b3480156100aa57600080fd5b506100b36104d3565b6040518080602001828103825283818151815260200191508051906020019080838360005b838110156100f35780820151818401526020810190506100d8565b50505050905090810190601f1680156101205780820380516001836020036101000a031916815260200191505b509250505060405180910390f35b34801561013a57600080fd5b50610143610575565b6040518080602001828103825283818151815260200191508051906020019080838360005b83811015610183578082015181840152602081019050610168565b50505050905090810190601f1680156101b05780820380516001836020036101000a031916815260200191505b509250505060405180910390f35b3480156101ca57600080fd5b50610225600480360381019080803590602001908201803590602001908080601f0160208091040260200160405190810160405280939291908181526020018383808284378201915050505050509192919290505050610613565b604051808215151515815260200191505060405180910390f35b34801561024b57600080fd5b506102a6600480360381019080803590602001908201803590602001908080601f0160208091040260200160405190810160405280939291908181526020018383808284378201915050505050509192919290505050610691565b6040518080602001828103825283818151815260200191508051906020019080838360005b838110156102e65780820151818401526020810190506102cb565b50505050905090810190601f1680156103135780820380516001836020036101000a031916815260200191505b509250505060405180910390f35b34801561032d57600080fd5b50610362600480360381019080803573ffffffffffffffffffffffffffffffffffffffff16906020019092919050505061083a565b005b34801561037057600080fd5b506103cb600480360381019080803590602001908201803590602001908080601f01602080910402602001604051908101604052809392919081815260200183838082843782019150505050505091929192905050506108da565b604051808215151515815260200191505060405180910390f35b3480156103f157600080fd5b506103fa610a12565b604051808215151515815260200191505060405180910390f35b34801561042057600080fd5b50610429610a28565b6040518080602001828103825283818151815260200191508051906020019080838360005b8381101561046957808201518184015260208101905061044e565b50505050905090810190601f1680156104965780820380516001836020036101000a031916815260200191505b509250505060405180910390f35b3480156104b057600080fd5b506104b9610ac6565b604051808215151515815260200191505060405180910390f35b606060038054600181600116156101000203166002900480601f01602080910402602001604051908101604052809291908181526020018280546001816001161561010002031660029004801561056b5780601f106105405761010080835404028352916020019161056b565b820191906000526020600020905b81548152906001019060200180831161054e57829003601f168201915b5050505050905090565b60038054600181600116156101000203166002900480601f01602080910402602001604051908101604052809291908181526020018280546001816001161561010002031660029004801561060b5780601f106105e05761010080835404028352916020019161060b565b820191906000526020600020905b8154815290600101906020018083116105ee57829003601f168201915b505050505081565b6000600560009054906101000a900473ffffffffffffffffffffffffffffffffffffffff1673ffffffffffffffffffffffffffffffffffffffff163373ffffffffffffffffffffffffffffffffffffffff1614151561067157600080fd5b8160039080519060200190610687929190610b75565b5060019050919050565b6060600460009054906101000a900473ffffffffffffffffffffffffffffffffffffffff1673ffffffffffffffffffffffffffffffffffffffff16630458a335336040518263ffffffff167c0100000000000000000000000000000000000000000000000000000000028152600401808273ffffffffffffffffffffffffffffffffffffffff1673ffffffffffffffffffffffffffffffffffffffff168152602001915050602060405180830381600087803b15801561075057600080fd5b505af1158015610764573d6000803e3d6000fd5b505050506040513d602081101561077a57600080fd5b8101908080519060200190929190505050151561079657600080fd5b7fe43f583156267bee3009c69d3c9c63c0ba5e3e9f25c2cd8819f1b9bfaaa31826826040518080602001828103825283818151815260200191508051906020019080838360005b838110156107f85780820151818401526020810190506107dd565b50505050905090810190601f1680156108255780820380516001836020036101000a031916815260200191505b509250505060405180910390a1819050919050565b600260009054906101000a900473ffffffffffffffffffffffffffffffffffffffff1673ffffffffffffffffffffffffffffffffffffffff163373ffffffffffffffffffffffffffffffffffffffff1614151561089657600080fd5b80600260006101000a81548173ffffffffffffffffffffffffffffffffffffffff021916908373ffffffffffffffffffffffffffffffffffffffff16021790555050565b6000600260009054906101000a900473ffffffffffffffffffffffffffffffffffffffff1673ffffffffffffffffffffffffffffffffffffffff163373ffffffffffffffffffffffffffffffffffffffff1614151561093857600080fd5b816001908051906020019061094e929190610b75565b507ffea7433eaf3da19b31aace36b2cc0589574c1b1ec64a132c10d46d6b586657ad600160405180806020018281038252838181546001816001161561010002031660029004815260200191508054600181600116156101000203166002900480156109fb5780601f106109d0576101008083540402835291602001916109fb565b820191906000526020600020905b8154815290600101906020018083116109de57829003601f168201915b50509250505060405180910390a160019050919050565b60008060009054906101000a900460ff16905090565b60018054600181600116156101000203166002900480601f016020809104026020016040519081016040528092919081815260200182805460018160011615610100020316600290048015610abe5780601f10610a9357610100808354040283529160200191610abe565b820191906000526020600020905b815481529060010190602001808311610aa157829003601f168201915b505050505081565b6000600260009054906101000a900473ffffffffffffffffffffffffffffffffffffffff1673ffffffffffffffffffffffffffffffffffffffff163373ffffffffffffffffffffffffffffffffffffffff161415610b6d5760016000806101000a81548160ff0219169083151502179055507f59ebeb90bc63057b6515673c3ecf9438e5058bca0f92585014eced636878c9a560405160405180910390a160019050610b72565b600090505b90565b828054600181600116156101000203166002900490600052602060002090601f016020900481019282601f10610bb657805160ff1916838001178555610be4565b82800160010185558215610be4579182015b82811115610be3578251825591602001919060010190610bc8565b5b509050610bf19190610bf5565b5090565b610c1791905b80821115610c13576000816000905550600101610bfb565b5090565b905600a165627a7a72305820c715cc18a8624c6857849ed6bf53ba684c7ee281c8b802324651c7a36cfde79800295b7b22636f6e7374616e74223a747275652c22696e70757473223a5b5d2c226e616d65223a227075626c69634b6579222c226f757470757473223a5b7b226e616d65223a22222c2274797065223a22737472696e67227d5d2c2270617961626c65223a66616c73652c2273746174654d75746162696c697479223a2276696577222c2274797065223a2266756e6374696f6e227d2c7b22636f6e7374616e74223a747275652c22696e70757473223a5b5d2c226e616d65223a227265636569766572222c226f757470757473223a5b7b226e616d65223a22222c2274797065223a22737472696e67227d5d2c2270617961626c65223a66616c73652c2273746174654d75746162696c697479223a2276696577222c2274797065223a2266756e6374696f6e227d2c7b22696e70757473223a5b7b226e616d65223a2263726561746f72222c2274797065223a2261646472657373227d2c7b226e616d65223a225f62756666657241646472657373222c2274797065223a2261646472657373227d5d2c2270617961626c65223a66616c73652c2273746174654d75746162696c697479223a226e6f6e70617961626c65222c2274797065223a22636f6e7374727563746f72227d2c7b22616e6f6e796d6f7573223a66616c73652c22696e70757473223a5b7b22696e6465786564223a66616c73652c226e616d65223a225f76616c7565222c2274797065223a22737472696e67227d5d2c226e616d65223a22507269766174654b6579222c2274797065223a226576656e74227d2c7b22616e6f6e796d6f7573223a66616c73652c22696e70757473223a5b5d2c226e616d65223a224f70656e222c2274797065223a226576656e74227d2c7b22616e6f6e796d6f7573223a66616c73652c22696e70757473223a5b7b22696e6465786564223a66616c73652c226e616d65223a227265636569766572222c2274797065223a22737472696e67227d5d2c226e616d65223a225570646174655265636569766572222c2274797065223a226576656e74227d2c7b22616e6f6e796d6f7573223a66616c73652c22696e70757473223a5b7b22696e6465786564223a747275652c226e616d65223a22636f6e747261637441646472657373222c2274797065223a2261646472657373227d5d2c226e616d65223a22436f6e747261637443726561746564222c2274797065223a226576656e74227d2c7b22636f6e7374616e74223a66616c73652c22696e70757473223a5b7b226e616d65223a226e65774f776e6572222c2274797065223a2261646472657373227d5d2c226e616d65223a226368616e67654f776e6572222c226f757470757473223a5b5d2c2270617961626c65223a66616c73652c2273746174654d75746162696c697479223a226e6f6e70617961626c65222c2274797065223a2266756e6374696f6e227d2c7b22636f6e7374616e74223a747275652c22696e70757473223a5b5d2c226e616d65223a2261736b4f70656e222c226f757470757473223a5b7b226e616d65223a22222c2274797065223a22626f6f6c227d5d2c2270617961626c65223a66616c73652c2273746174654d75746162696c697479223a2276696577222c2274797065223a2266756e6374696f6e227d2c7b22636f6e7374616e74223a66616c73652c22696e70757473223a5b7b226e616d65223a226e65775265636569766572222c2274797065223a22737472696e67227d5d2c226e616d65223a226368616e67655265636569766572222c226f757470757473223a5b7b226e616d65223a22222c2274797065223a22626f6f6c227d5d2c2270617961626c65223a66616c73652c2273746174654d75746162696c697479223a226e6f6e70617961626c65222c2274797065223a2266756e6374696f6e227d2c7b22636f6e7374616e74223a66616c73652c22696e70757473223a5b5d2c226e616d65223a226f70656e222c226f757470757473223a5b7b226e616d65223a22222c2274797065223a22626f6f6c227d5d2c2270617961626c65223a66616c73652c2273746174654d75746162696c697479223a226e6f6e70617961626c65222c2274797065223a2266756e6374696f6e227d2c7b22636f6e7374616e74223a66616c73652c22696e70757473223a5b5d2c226e616d65223a226765745075626c69634b6579222c226f757470757473223a5b7b226e616d65223a22222c2274797065223a22737472696e67227d5d2c2270617961626c65223a66616c73652c2273746174654d75746162696c697479223a226e6f6e70617961626c65222c2274797065223a2266756e6374696f6e227d2c7b22636f6e7374616e74223a66616c73652c22696e70757473223a5b7b226e616d65223a225f76616c7565222c2274797065223a22737472696e67227d5d2c226e616d65223a227075626c697368507269766174654b6579222c226f757470757473223a5b7b226e616d65223a22222c2274797065223a22737472696e67227d5d2c2270617961626c65223a66616c73652c2273746174654d75746162696c697479223a226e6f6e70617961626c65222c2274797065223a2266756e6374696f6e227d2c7b22636f6e7374616e74223a66616c73652c22696e70757473223a5b7b226e616d65223a225f7075626c69634b6579222c2274797065223a22737472696e67227d5d2c226e616d65223a227365745075626c69634b6579222c226f757470757473223a5b7b226e616d65223a22222c2274797065223a22626f6f6c227d5d2c2270617961626c65223a66616c73652c2273746174654d75746162696c697479223a226e6f6e70617961626c65222c2274797065223a2266756e6374696f6e227d5da165627a7a72305820b0be7b3985f9204c95a4609715c4fadc2f4e64de2ee2014d25b5576985b1980e0029",
  "source": "pragma solidity ^0.4.18;\n\nimport './Onrequest.sol';\ncontract BuilderOnrequest{\n    function create(address creator, address bufferAddress) public returns (address) {\n        require(creator != address(0));\n        address templateInstance =  new Onrequest(creator, bufferAddress);\n        return templateInstance;\n    }\n    function getName() public pure returns (bytes32){\n        return \"Onrequest\";\n    }\n    function getVersion() public pure returns (bytes32){\n        return \"0.0.1\";\n    }\n    function getAuthor() public pure returns (bytes32){\n        return \"MiraLab\";\n    }\n    function getAbi() public pure returns (string){\n        return '[{\"constant\":true,\"inputs\":[],\"name\":\"publicKey\",\"outputs\":[{\"name\":\"\",\"type\":\"string\"}],\"payable\":false,\"stateMutability\":\"view\",\"type\":\"function\"},{\"constant\":true,\"inputs\":[],\"name\":\"receiver\",\"outputs\":[{\"name\":\"\",\"type\":\"string\"}],\"payable\":false,\"stateMutability\":\"view\",\"type\":\"function\"},{\"inputs\":[{\"name\":\"creator\",\"type\":\"address\"},{\"name\":\"_bufferAddress\",\"type\":\"address\"}],\"payable\":false,\"stateMutability\":\"nonpayable\",\"type\":\"constructor\"},{\"anonymous\":false,\"inputs\":[{\"indexed\":false,\"name\":\"_value\",\"type\":\"string\"}],\"name\":\"PrivateKey\",\"type\":\"event\"},{\"anonymous\":false,\"inputs\":[],\"name\":\"Open\",\"type\":\"event\"},{\"anonymous\":false,\"inputs\":[{\"indexed\":false,\"name\":\"receiver\",\"type\":\"string\"}],\"name\":\"UpdateReceiver\",\"type\":\"event\"},{\"anonymous\":false,\"inputs\":[{\"indexed\":true,\"name\":\"contractAddress\",\"type\":\"address\"}],\"name\":\"ContractCreated\",\"type\":\"event\"},{\"constant\":false,\"inputs\":[{\"name\":\"newOwner\",\"type\":\"address\"}],\"name\":\"changeOwner\",\"outputs\":[],\"payable\":false,\"stateMutability\":\"nonpayable\",\"type\":\"function\"},{\"constant\":true,\"inputs\":[],\"name\":\"askOpen\",\"outputs\":[{\"name\":\"\",\"type\":\"bool\"}],\"payable\":false,\"stateMutability\":\"view\",\"type\":\"function\"},{\"constant\":false,\"inputs\":[{\"name\":\"newReceiver\",\"type\":\"string\"}],\"name\":\"changeReceiver\",\"outputs\":[{\"name\":\"\",\"type\":\"bool\"}],\"payable\":false,\"stateMutability\":\"nonpayable\",\"type\":\"function\"},{\"constant\":false,\"inputs\":[],\"name\":\"open\",\"outputs\":[{\"name\":\"\",\"type\":\"bool\"}],\"payable\":false,\"stateMutability\":\"nonpayable\",\"type\":\"function\"},{\"constant\":false,\"inputs\":[],\"name\":\"getPublicKey\",\"outputs\":[{\"name\":\"\",\"type\":\"string\"}],\"payable\":false,\"stateMutability\":\"nonpayable\",\"type\":\"function\"},{\"constant\":false,\"inputs\":[{\"name\":\"_value\",\"type\":\"string\"}],\"name\":\"publishPrivateKey\",\"outputs\":[{\"name\":\"\",\"type\":\"string\"}],\"payable\":false,\"stateMutability\":\"nonpayable\",\"type\":\"function\"},{\"constant\":false,\"inputs\":[{\"name\":\"_publicKey\",\"type\":\"string\"}],\"name\":\"setPublicKey\",\"outputs\":[{\"name\":\"\",\"type\":\"bool\"}],\"payable\":false,\"stateMutability\":\"nonpayable\",\"type\":\"function\"}]';\n    }\n    function getDescription() public pure returns (string){\n        return \"Can be opened only by assigned address or by owner.\";\n    }\n}\n",
  "sourcePath": "/home/thplease/Desktop/ERC20/contracts/SmartFactory/BuilderOnrequest.sol",
  "compiler": {
    "name": "solc",
    "version": "0.4.24+commit.e67f0147.Emscripten.clang"
  },
  "schemaVersion": "2.0.1",
  "updatedAt": "2018-09-05T14:32:02.963Z"
}