{
  "contractName": "BuilderOnrequest",
  "abi": [
    {
      "constant": false,
      "inputs": [
        {
          "name": "creator",
          "type": "address"
        },
        {
          "name": "publicKey",
          "type": "string"
        },
        {
          "name": "bufferAddress",
          "type": "address"
        }
      ],
      "name": "create",
      "outputs": [
        {
          "name": "",
          "type": "address"
        }
      ],
      "payable": false,
      "stateMutability": "nonpayable",
      "type": "function"
    },
    {
      "constant": true,
      "inputs": [],
      "name": "getName",
      "outputs": [
        {
          "name": "",
          "type": "bytes32"
        }
      ],
      "payable": false,
      "stateMutability": "pure",
      "type": "function"
    },
    {
      "constant": true,
      "inputs": [],
      "name": "getVersion",
      "outputs": [
        {
          "name": "",
          "type": "bytes32"
        }
      ],
      "payable": false,
      "stateMutability": "pure",
      "type": "function"
    },
    {
      "constant": true,
      "inputs": [],
      "name": "getAuthor",
      "outputs": [
        {
          "name": "",
          "type": "bytes32"
        }
      ],
      "payable": false,
      "stateMutability": "pure",
      "type": "function"
    },
    {
      "constant": true,
      "inputs": [],
      "name": "getAbi",
      "outputs": [
        {
          "name": "",
          "type": "string"
        }
      ],
      "payable": false,
      "stateMutability": "pure",
      "type": "function"
    },
    {
      "constant": true,
      "inputs": [],
      "name": "getDescription",
      "outputs": [
        {
          "name": "",
          "type": "string"
        }
      ],
      "payable": false,
      "stateMutability": "pure",
      "type": "function"
    }
  ],
  "bytecode": "0x608060405234801561001057600080fd5b5061145d806100206000396000f300608060405260043610610078576000357c0100000000000000000000000000000000000000000000000000000000900463ffffffff1680630ae09c891461007d5780630d8e6e2c1461010d57806317d7de7c146101405780631a09254114610173578063a5faa12514610203578063c7b05fd414610236575b600080fd5b34801561008957600080fd5b5061009261031f565b6040518080602001828103825283818151815260200191508051906020019080838360005b838110156100d25780820151818401526020810190506100b7565b50505050905090810190601f1680156100ff5780820380516001836020036101000a031916815260200191505b509250505060405180910390f35b34801561011957600080fd5b50610122610343565b60405180826000191660001916815260200191505060405180910390f35b34801561014c57600080fd5b5061015561036b565b60405180826000191660001916815260200191505060405180910390f35b34801561017f57600080fd5b50610188610393565b6040518080602001828103825283818151815260200191508051906020019080838360005b838110156101c85780820151818401526020810190506101ad565b50505050905090810190601f1680156101f55780820380516001836020036101000a031916815260200191505b509250505060405180910390f35b34801561020f57600080fd5b506102186103f6565b60405180826000191660001916815260200191505060405180910390f35b34801561024257600080fd5b506102dd600480360381019080803573ffffffffffffffffffffffffffffffffffffffff169060200190929190803590602001908201803590602001908080601f0160208091040260200160405190810160405280939291908181526020018383808284378201915050505050509192919290803573ffffffffffffffffffffffffffffffffffffffff16906020019092919050505061041e565b604051808273ffffffffffffffffffffffffffffffffffffffff1673ffffffffffffffffffffffffffffffffffffffff16815260200191505060405180910390f35b606061034060405190810160405280610316815260200161111c6103169139905090565b60007f302e302e31000000000000000000000000000000000000000000000000000000905090565b60007f4f6e726571756573740000000000000000000000000000000000000000000000905090565b60608060405190810160405280603381526020017f43616e206265206f70656e6564206f6e6c792062792061737369676e6564206181526020017f646472657373206f72206279206f776e65722e00000000000000000000000000815250905090565b60007f4d6972614c616200000000000000000000000000000000000000000000000000905090565b600080600073ffffffffffffffffffffffffffffffffffffffff168573ffffffffffffffffffffffffffffffffffffffff161415151561045d57600080fd5b848484610468610567565b808473ffffffffffffffffffffffffffffffffffffffff1673ffffffffffffffffffffffffffffffffffffffff168152602001806020018373ffffffffffffffffffffffffffffffffffffffff1673ffffffffffffffffffffffffffffffffffffffff168152602001828103825284818151815260200191508051906020019080838360005b838110156105095780820151818401526020810190506104ee565b50505050905090810190601f1680156105365780820380516001836020036101000a031916815260200191505b50945050505050604051809103906000f080158015610559573d6000803e3d6000fd5b509050809150509392505050565b604051610ba480610578833901905600608060405260008060006101000a81548160ff02191690831515021790555034801561002a57600080fd5b50604051610ba4380380610ba483398101806040528101908080519060200190929190805182019291906020018051906020019092919050505082600160006101000a81548173ffffffffffffffffffffffffffffffffffffffff021916908373ffffffffffffffffffffffffffffffffffffffff16021790555081600290805190602001906100bb9291906101d5565b5080600360006101000a81548173ffffffffffffffffffffffffffffffffffffffff021916908373ffffffffffffffffffffffffffffffffffffffff1602179055507f5748f17320a7bfc4dad968e541c61b9fa9923765f9efdfa3dffc76763e02d1963083604051808373ffffffffffffffffffffffffffffffffffffffff1673ffffffffffffffffffffffffffffffffffffffff16815260200180602001828103825283818151815260200191508051906020019080838360005b83811015610192578082015181840152602081019050610177565b50505050905090810190601f1680156101bf5780820380516001836020036101000a031916815260200191505b50935050505060405180910390a150505061027a565b828054600181600116156101000203166002900490600052602060002090601f016020900481019282601f1061021657805160ff1916838001178555610244565b82800160010185558215610244579182015b82811115610243578251825591602001919060010190610228565b5b5090506102519190610255565b5090565b61027791905b8082111561027357600081600090555060010161025b565b5090565b90565b61091b806102896000396000f300608060405260043610610083576000357c0100000000000000000000000000000000000000000000000000000000900463ffffffff1680632e3344521461008857806363ffab31146101185780638041cf49146101a8578063a01d3c2c1461028a578063a6f9dae1146102cd578063d640954514610310578063fcfff16f1461033f575b600080fd5b34801561009457600080fd5b5061009d61036e565b6040518080602001828103825283818151815260200191508051906020019080838360005b838110156100dd5780820151818401526020810190506100c2565b50505050905090810190601f16801561010a5780820380516001836020036101000a031916815260200191505b509250505060405180910390f35b34801561012457600080fd5b5061012d610410565b6040518080602001828103825283818151815260200191508051906020019080838360005b8381101561016d578082015181840152602081019050610152565b50505050905090810190601f16801561019a5780820380516001836020036101000a031916815260200191505b509250505060405180910390f35b3480156101b457600080fd5b5061020f600480360381019080803590602001908201803590602001908080601f01602080910402602001604051908101604052809392919081815260200183838082843782019150505050505091929192905050506104ae565b6040518080602001828103825283818151815260200191508051906020019080838360005b8381101561024f578082015181840152602081019050610234565b50505050905090810190601f16801561027c5780820380516001836020036101000a031916815260200191505b509250505060405180910390f35b34801561029657600080fd5b506102cb600480360381019080803573ffffffffffffffffffffffffffffffffffffffff169060200190929190505050610657565b005b3480156102d957600080fd5b5061030e600480360381019080803573ffffffffffffffffffffffffffffffffffffffff169060200190929190505050610733565b005b34801561031c57600080fd5b506103256107d3565b604051808215151515815260200191505060405180910390f35b34801561034b57600080fd5b506103546107e9565b604051808215151515815260200191505060405180910390f35b606060028054600181600116156101000203166002900480601f0160208091040260200160405190810160405280929190818152602001828054600181600116156101000203166002900480156104065780601f106103db57610100808354040283529160200191610406565b820191906000526020600020905b8154815290600101906020018083116103e957829003601f168201915b5050505050905090565b60028054600181600116156101000203166002900480601f0160208091040260200160405190810160405280929190818152602001828054600181600116156101000203166002900480156104a65780601f1061047b576101008083540402835291602001916104a6565b820191906000526020600020905b81548152906001019060200180831161048957829003601f168201915b505050505081565b6060600360009054906101000a900473ffffffffffffffffffffffffffffffffffffffff1673ffffffffffffffffffffffffffffffffffffffff16630458a335336040518263ffffffff167c0100000000000000000000000000000000000000000000000000000000028152600401808273ffffffffffffffffffffffffffffffffffffffff1673ffffffffffffffffffffffffffffffffffffffff168152602001915050602060405180830381600087803b15801561056d57600080fd5b505af1158015610581573d6000803e3d6000fd5b505050506040513d602081101561059757600080fd5b810190808051906020019092919050505015156105b357600080fd5b7fe43f583156267bee3009c69d3c9c63c0ba5e3e9f25c2cd8819f1b9bfaaa31826826040518080602001828103825283818151815260200191508051906020019080838360005b838110156106155780820151818401526020810190506105fa565b50505050905090810190601f1680156106425780820380516001836020036101000a031916815260200191505b509250505060405180910390a1819050919050565b600160009054906101000a900473ffffffffffffffffffffffffffffffffffffffff1673ffffffffffffffffffffffffffffffffffffffff163373ffffffffffffffffffffffffffffffffffffffff161415156106b357600080fd5b600073ffffffffffffffffffffffffffffffffffffffff168173ffffffffffffffffffffffffffffffffffffffff16141515156106ef57600080fd5b80600060016101000a81548173ffffffffffffffffffffffffffffffffffffffff021916908373ffffffffffffffffffffffffffffffffffffffff16021790555050565b600160009054906101000a900473ffffffffffffffffffffffffffffffffffffffff1673ffffffffffffffffffffffffffffffffffffffff163373ffffffffffffffffffffffffffffffffffffffff1614151561078f57600080fd5b80600160006101000a81548173ffffffffffffffffffffffffffffffffffffffff021916908373ffffffffffffffffffffffffffffffffffffffff16021790555050565b60008060009054906101000a900460ff16905090565b60008060019054906101000a900473ffffffffffffffffffffffffffffffffffffffff1673ffffffffffffffffffffffffffffffffffffffff163373ffffffffffffffffffffffffffffffffffffffff1614806108935750600160009054906101000a900473ffffffffffffffffffffffffffffffffffffffff1673ffffffffffffffffffffffffffffffffffffffff163373ffffffffffffffffffffffffffffffffffffffff16145b156108e75760016000806101000a81548160ff0219169083151502179055507f59ebeb90bc63057b6515673c3ecf9438e5058bca0f92585014eced636878c9a560405160405180910390a1600190506108ec565b600090505b905600a165627a7a72305820f0a58a9bf3c5fa44e4a0af357ed42959d9da69af2a4fda99a179a4c597a5d0c900295b7b22636f6e7374616e74223a2066616c73652c22696e70757473223a205b7b226e616d65223a20226e65774f70656e41646472657373222c2274797065223a202261646472657373227d5d2c226e616d65223a202273657453657474696e6773222c226f757470757473223a205b5d2c2270617961626c65223a2066616c73652c2273746174654d75746162696c697479223a20226e6f6e70617961626c65222c2274797065223a202266756e6374696f6e227d2c7b22636f6e7374616e74223a2066616c73652c22696e70757473223a205b7b226e616d65223a20226e65774f776e6572222c2274797065223a202261646472657373227d5d2c226e616d65223a20226368616e67654f776e6572222c226f757470757473223a205b5d2c2270617961626c65223a2066616c73652c2273746174654d75746162696c697479223a20226e6f6e70617961626c65222c2274797065223a202266756e6374696f6e227d2c7b22636f6e7374616e74223a20747275652c22696e70757473223a205b5d2c226e616d65223a202261736b4f70656e222c226f757470757473223a205b7b226e616d65223a2022222c2274797065223a2022626f6f6c227d5d2c2270617961626c65223a2066616c73652c2273746174654d75746162696c697479223a202276696577222c2274797065223a202266756e6374696f6e227d2c7b22636f6e7374616e74223a2066616c73652c22696e70757473223a205b5d2c226e616d65223a20226f70656e222c226f757470757473223a205b7b226e616d65223a2022222c2274797065223a2022626f6f6c227d5d2c2270617961626c65223a2066616c73652c2273746174654d75746162696c697479223a20226e6f6e70617961626c65222c2274797065223a202266756e6374696f6e227d2c7b22696e70757473223a205b7b226e616d65223a202263726561746f72222c2274797065223a202261646472657373227d5d2c2270617961626c65223a2066616c73652c2273746174654d75746162696c697479223a20226e6f6e70617961626c65222c2274797065223a2022636f6e7374727563746f72227d5da165627a7a72305820d964df18ac46b0df8585ed798c397145a7a929a3d6fcf4a298071d4124e0b0630029",
  "source": "pragma solidity ^0.4.18;\n\nimport './Onrequest.sol';\ncontract BuilderOnrequest{\n    function create(address creator, string publicKey, address bufferAddress) public returns (address) {\n        require(creator != address(0));\n        address templateInstance =  new Onrequest(creator, publicKey, bufferAddress);\n        return templateInstance;\n    }\n    function getName() public pure returns (bytes32){\n        return \"Onrequest\";\n    }\n    function getVersion() public pure returns (bytes32){\n        return \"0.0.1\";\n    }\n    function getAuthor() public pure returns (bytes32){\n        return \"MiraLab\";\n    }\n    function getAbi() public pure returns (string){\n        return '[{\"constant\": false,\"inputs\": [{\"name\": \"newOpenAddress\",\"type\": \"address\"}],\"name\": \"setSettings\",\"outputs\": [],\"payable\": false,\"stateMutability\": \"nonpayable\",\"type\": \"function\"},{\"constant\": false,\"inputs\": [{\"name\": \"newOwner\",\"type\": \"address\"}],\"name\": \"changeOwner\",\"outputs\": [],\"payable\": false,\"stateMutability\": \"nonpayable\",\"type\": \"function\"},{\"constant\": true,\"inputs\": [],\"name\": \"askOpen\",\"outputs\": [{\"name\": \"\",\"type\": \"bool\"}],\"payable\": false,\"stateMutability\": \"view\",\"type\": \"function\"},{\"constant\": false,\"inputs\": [],\"name\": \"open\",\"outputs\": [{\"name\": \"\",\"type\": \"bool\"}],\"payable\": false,\"stateMutability\": \"nonpayable\",\"type\": \"function\"},{\"inputs\": [{\"name\": \"creator\",\"type\": \"address\"}],\"payable\": false,\"stateMutability\": \"nonpayable\",\"type\": \"constructor\"}]';\n    }\n    function getDescription() public pure returns (string){\n        return \"Can be opened only by assigned address or by owner.\";\n    }\n}\n",
  "sourcePath": "/home/thplease/Desktop/ERC20/contracts/SmartFactory/BuilderOnrequest.sol",
  "compiler": {
    "name": "solc",
    "version": "0.4.24+commit.e67f0147.Emscripten.clang"
  },
  "schemaVersion": "2.0.1",
  "updatedAt": "2018-08-28T17:34:25.785Z"
}