{
  "contractName": "BuilderST",
  "abi": [
    {
      "constant": false,
      "inputs": [
        {
          "name": "creator",
          "type": "address"
        },
        {
          "name": "publicKey",
          "type": "bytes32"
        }
      ],
      "name": "create",
      "outputs": [
        {
          "name": "",
          "type": "address"
        }
      ],
      "payable": false,
      "stateMutability": "nonpayable",
      "type": "function"
    },
    {
      "constant": true,
      "inputs": [],
      "name": "getName",
      "outputs": [
        {
          "name": "",
          "type": "bytes32"
        }
      ],
      "payable": false,
      "stateMutability": "pure",
      "type": "function"
    },
    {
      "constant": true,
      "inputs": [],
      "name": "getVersion",
      "outputs": [
        {
          "name": "",
          "type": "bytes32"
        }
      ],
      "payable": false,
      "stateMutability": "pure",
      "type": "function"
    },
    {
      "constant": true,
      "inputs": [],
      "name": "getAuthor",
      "outputs": [
        {
          "name": "",
          "type": "bytes32"
        }
      ],
      "payable": false,
      "stateMutability": "pure",
      "type": "function"
    },
    {
      "constant": true,
      "inputs": [],
      "name": "getAbi",
      "outputs": [
        {
          "name": "",
          "type": "string"
        }
      ],
      "payable": false,
      "stateMutability": "pure",
      "type": "function"
    },
    {
      "constant": true,
      "inputs": [],
      "name": "getDescription",
      "outputs": [
        {
          "name": "",
          "type": "string"
        }
      ],
      "payable": false,
      "stateMutability": "pure",
      "type": "function"
    }
  ],
  "bytecode": "0x608060405234801561001057600080fd5b50611d09806100206000396000f300608060405260043610610078576000357c0100000000000000000000000000000000000000000000000000000000900463ffffffff1680630ae09c891461007d5780630d8e6e2c1461010d57806317d7de7c146101405780631a09254114610173578063a3def92314610203578063a5faa12514610294575b600080fd5b34801561008957600080fd5b506100926102c7565b6040518080602001828103825283818151815260200191508051906020019080838360005b838110156100d25780820151818401526020810190506100b7565b50505050905090810190601f1680156100ff5780820380516001836020036101000a031916815260200191505b509250505060405180910390f35b34801561011957600080fd5b506101226102eb565b60405180826000191660001916815260200191505060405180910390f35b34801561014c57600080fd5b50610155610313565b60405180826000191660001916815260200191505060405180910390f35b34801561017f57600080fd5b5061018861033b565b6040518080602001828103825283818151815260200191508051906020019080838360005b838110156101c85780820151818401526020810190506101ad565b50505050905090810190601f1680156101f55780820380516001836020036101000a031916815260200191505b509250505060405180910390f35b34801561020f57600080fd5b50610252600480360381019080803573ffffffffffffffffffffffffffffffffffffffff169060200190929190803560001916906020019092919050505061039e565b604051808273ffffffffffffffffffffffffffffffffffffffff1673ffffffffffffffffffffffffffffffffffffffff16815260200191505060405180910390f35b3480156102a057600080fd5b506102a9610455565b60405180826000191660001916815260200191505060405180910390f35b6060610500604051908101604052806104dc81526020016118026104dc9139905090565b60007f302e302e31000000000000000000000000000000000000000000000000000000905090565b60007f53696d706c6554696d6500000000000000000000000000000000000000000000905090565b60608060405190810160405280603481526020017f5365742074696d6520616e642064617465206166746572207768696368204d6981526020017f7261426f782063616e206265206f70656e65642e000000000000000000000000815250905090565b600080600073ffffffffffffffffffffffffffffffffffffffff168473ffffffffffffffffffffffffffffffffffffffff16141515156103dd57600080fd5b83836103e761047d565b808373ffffffffffffffffffffffffffffffffffffffff1673ffffffffffffffffffffffffffffffffffffffff168152602001826000191660001916815260200192505050604051809103906000f080158015610448573d6000803e3d6000fd5b5090508091505092915050565b60007f4d6972614c616200000000000000000000000000000000000000000000000000905090565b6040516113748061048e833901905600608060405234801561001057600080fd5b506040516040806113748339810180604052810190808051906020019092919080519060200190929190505050600082600260006101000a81548173ffffffffffffffffffffffffffffffffffffffff021916908373ffffffffffffffffffffffffffffffffffffffff16021790555081600181600019169055506100936100fb565b604051809103906000f0801580156100af573d6000803e3d6000fd5b50905080600460006101000a81548173ffffffffffffffffffffffffffffffffffffffff021916908373ffffffffffffffffffffffffffffffffffffffff16021790555050505061010b565b604051610dba806105ba83390190565b6104a08061011a6000396000f30060806040526004361061008e576000357c0100000000000000000000000000000000000000000000000000000000900463ffffffff168063298a3920146100935780632e334452146100be57806378c0ace0146100f157806385b4bb53146101635780638da5cb5b1461018e578063d6409545146101e5578063d9f4dd8f14610214578063ff02198614610245575b600080fd5b34801561009f57600080fd5b506100a8610270565b6040518082815260200191505060405180910390f35b3480156100ca57600080fd5b506100d3610278565b60405180826000191660001916815260200191505060405180910390f35b3480156100fd57600080fd5b50610161600480360381019080803561ffff169060200190929190803560ff169060200190929190803560ff169060200190929190803560ff169060200190929190803560ff169060200190929190803560ff169060200190929190505050610282565b005b34801561016f57600080fd5b50610178610406565b6040518082815260200191505060405180910390f35b34801561019a57600080fd5b506101a361040f565b604051808273ffffffffffffffffffffffffffffffffffffffff1673ffffffffffffffffffffffffffffffffffffffff16815260200191505060405180910390f35b3480156101f157600080fd5b506101fa610435565b604051808215151515815260200191505060405180910390f35b34801561022057600080fd5b506102436004803603810190808035600019169060200190929190505050610460565b005b34801561025157600080fd5b5061025a61046e565b6040518082815260200191505060405180910390f35b600042905090565b6000600154905090565b600260009054906101000a900473ffffffffffffffffffffffffffffffffffffffff1673ffffffffffffffffffffffffffffffffffffffff163373ffffffffffffffffffffffffffffffffffffffff161415156102de57600080fd5b600460009054906101000a900473ffffffffffffffffffffffffffffffffffffffff1673ffffffffffffffffffffffffffffffffffffffff16639054bdec8787878787876040518763ffffffff167c0100000000000000000000000000000000000000000000000000000000028152600401808761ffff1661ffff1681526020018660ff1660ff1681526020018560ff1660ff1681526020018460ff1660ff1681526020018360ff1660ff1681526020018260ff1660ff1681526020019650505050505050602060405180830381600087803b1580156103bd57600080fd5b505af11580156103d1573d6000803e3d6000fd5b505050506040513d60208110156103e757600080fd5b8101908080519060200190929190505050600081905550505050505050565b60008054905090565b600260009054906101000a900473ffffffffffffffffffffffffffffffffffffffff1681565b60008054421015801561044a57506000805414155b15610458576001905061045d565b600090505b90565b806003816000191690555050565b600054815600a165627a7a7230582073203d312e285ff9293acf868d545a444070063a6c57d1042acc345de111b6dc0029608060405234801561001057600080fd5b50610d9a806100206000396000f3006080604052600436106100d0576000357c0100000000000000000000000000000000000000000000000000000000900463ffffffff1680633e239e1a146100d55780634ac1ad781461011c57806362ba96871461016357806365c72840146101dc5780637f791833146102235780638aa001fc1461028f5780638c8d98a0146102d65780639054bdec1461033557806392d66313146103bb578063a324ad2414610404578063a6f0e5771461044b578063b199993714610494578063b238ad0e146104d5578063fa93f8831461052d575b600080fd5b3480156100e157600080fd5b5061010060048036038101908080359060200190929190505050610574565b604051808260ff1660ff16815260200191505060405180910390f35b34801561012857600080fd5b50610147600480360381019080803590602001909291905050506105a1565b604051808260ff1660ff16815260200191505060405180910390f35b34801561016f57600080fd5b506101c6600480360381019080803561ffff169060200190929190803560ff169060200190929190803560ff169060200190929190803560ff169060200190929190803560ff1690602001909291905050506105c8565b6040518082815260200191505060405180910390f35b3480156101e857600080fd5b50610207600480360381019080803590602001909291905050506105e4565b604051808260ff1660ff16815260200191505060405180910390f35b34801561022f57600080fd5b50610279600480360381019080803561ffff169060200190929190803560ff169060200190929190803560ff169060200190929190803560ff1690602001909291905050506105fa565b6040518082815260200191505060405180910390f35b34801561029b57600080fd5b506102ba60048036038101908080359060200190929190505050610615565b604051808260ff1660ff16815260200191505060405180910390f35b3480156102e257600080fd5b5061031f600480360381019080803561ffff169060200190929190803560ff169060200190929190803560ff16906020019092919050505061062b565b6040518082815260200191505060405180910390f35b34801561034157600080fd5b506103a5600480360381019080803561ffff169060200190929190803560ff169060200190929190803560ff169060200190929190803560ff169060200190929190803560ff169060200190929190803560ff169060200190929190505050610646565b6040518082815260200191505060405180910390f35b3480156103c757600080fd5b506103e6600480360381019080803590602001909291905050506108ed565b604051808261ffff1661ffff16815260200191505060405180910390f35b34801561041057600080fd5b5061042f60048036038101908080359060200190929190505050610998565b604051808260ff1660ff16815260200191505060405180910390f35b34801561045757600080fd5b5061047a600480360381019080803561ffff1690602001909291905050506109ae565b604051808215151515815260200191505060405180910390f35b3480156104a057600080fd5b506104bf60048036038101908080359060200190929190505050610a2f565b6040518082815260200191505060405180910390f35b3480156104e157600080fd5b50610511600480360381019080803560ff169060200190929190803561ffff169060200190929190505050610a68565b604051808260ff1660ff16815260200191505060405180910390f35b34801561053957600080fd5b5061055860048036038101908080359060200190929190505050610b34565b604051808260ff1660ff16815260200191505060405180910390f35b60006018603c808481151561058557fe5b0481151561058f57fe5b0481151561059957fe5b069050919050565b60006007600462015180848115156105b557fe5b04018115156105c057fe5b069050919050565b60006105d986868686866000610646565b905095945050505050565b60006105ef82610b55565b604001519050919050565b600061060b85858585600080610646565b9050949350505050565b6000603c8281151561062357fe5b069050919050565b600061063d8484846000806000610646565b90509392505050565b600080610651610cf6565b6107b291505b8861ffff168261ffff16101561069a57610670826109ae565b15610683576301e285008301925061068d565b6301e13380830192505b8180600101925050610657565b601f816000600c811015156106ab57fe5b602002019060ff16908160ff16815250506106c5896109ae565b156106f157601d816001600c811015156106db57fe5b602002019060ff16908160ff1681525050610714565b601c816001600c8110151561070257fe5b602002019060ff16908160ff16815250505b601f816002600c8110151561072557fe5b602002019060ff16908160ff1681525050601e816003600c8110151561074757fe5b602002019060ff16908160ff1681525050601f816004600c8110151561076957fe5b602002019060ff16908160ff1681525050601e816005600c8110151561078b57fe5b602002019060ff16908160ff1681525050601f816006600c811015156107ad57fe5b602002019060ff16908160ff1681525050601f816007600c811015156107cf57fe5b602002019060ff16908160ff1681525050601e816008600c811015156107f157fe5b602002019060ff16908160ff1681525050601f816009600c8110151561081357fe5b602002019060ff16908160ff1681525050601e81600a600c8110151561083557fe5b602002019060ff16908160ff1681525050601f81600b600c8110151561085757fe5b602002019060ff16908160ff1681525050600191505b8760ff168261ffff1610156108af57806001830361ffff16600c8110151561089157fe5b602002015160ff16620151800283019250818060010192505061086d565b6001870360ff166201518002830192508560ff16610e1002830192508460ff16603c02830192508360ff168301925082925050509695505050505050565b600080600080600092506301e133808581151561090657fe5b046107b261ffff160191506109206107b261ffff16610a2f565b61092d8361ffff16610a2f565b039050806301e285000283019250806107b2830361ffff16036301e1338002830192505b8483111561098d57610965600183036109ae565b15610978576301e2850083039250610982565b6301e13380830392505b600182039150610951565b819350505050919050565b60006109a382610b55565b602001519050919050565b60008060048361ffff168115156109c157fe5b0661ffff161415156109d65760009050610a2a565b600060648361ffff168115156109e857fe5b0661ffff161415156109fd5760019050610a2a565b60006101908361ffff16811515610a1057fe5b0661ffff16141515610a255760009050610a2a565b600190505b919050565b600060018203915061019082811515610a4457fe5b04606483811515610a5157fe5b04600484811515610a5e57fe5b0403019050919050565b600060018360ff161480610a7f575060038360ff16145b80610a8d575060058360ff16145b80610a9b575060078360ff16145b80610aa9575060088360ff16145b80610ab75750600a8360ff16145b80610ac55750600c8360ff16145b15610ad357601f9050610b2e565b60048360ff161480610ae8575060068360ff16145b80610af6575060098360ff16145b80610b045750600b8360ff16145b15610b1257601e9050610b2e565b610b1b826109ae565b15610b2957601d9050610b2e565b601c90505b92915050565b6000603c8083811515610b4357fe5b04811515610b4d57fe5b069050919050565b610b5d610d1a565b60008060008060009350610b70866108ed565b856000019061ffff16908161ffff1681525050610b926107b261ffff16610a2f565b610ba3866000015161ffff16610a2f565b039250826301e285000284019350826107b286600001510361ffff16036301e133800284019350600191505b600c8260ff16111515610c2757610bea828660000151610a68565b60ff1662015180029050858482011115610c155781856020019060ff16908160ff1681525050610c27565b80840193508180600101925050610bcf565b600191505b610c3e85602001518660000151610a68565b60ff168260ff16111515610c8557858462015180011115610c705781856040019060ff16908160ff1681525050610c85565b62015180840193508180600101925050610c2c565b610c8e86610574565b856060019060ff16908160ff1681525050610ca886610b34565b856080019060ff16908160ff1681525050610cc286610615565b8560a0019060ff16908160ff1681525050610cdc866105a1565b8560c0019060ff16908160ff168152505050505050919050565b61018060405190810160405280600c90602082028038833980820191505090505090565b60e060405190810160405280600061ffff168152602001600060ff168152602001600060ff168152602001600060ff168152602001600060ff168152602001600060ff168152602001600060ff16815250905600a165627a7a7230582029174f956721ad75f0b016cce5c193739a595c2261d5485c13d1da03737aed7f00295b7b22636f6e7374616e74223a20747275652c22696e70757473223a205b5d2c226e616d65223a202261736b4e6f77222c226f757470757473223a205b7b226e616d65223a2022222c2274797065223a202275696e74323536227d5d2c2270617961626c65223a2066616c73652c2273746174654d75746162696c697479223a202276696577222c2274797065223a202266756e6374696f6e227d2c7b22636f6e7374616e74223a2066616c73652c22696e70757473223a205b7b226e616d65223a202279656172222c2274797065223a202275696e743136227d2c7b226e616d65223a20226d6f6e7468222c2274797065223a202275696e7438227d2c7b226e616d65223a2022646179222c2274797065223a202275696e7438227d2c7b226e616d65223a2022686f7572222c2274797065223a202275696e7438227d2c7b226e616d65223a20226d696e757465222c2274797065223a202275696e7438227d2c7b226e616d65223a20227365636f6e64222c2274797065223a202275696e7438227d5d2c226e616d65223a202273657453657474696e6773222c226f757470757473223a205b5d2c2270617961626c65223a2066616c73652c2273746174654d75746162696c697479223a20226e6f6e70617961626c65222c2274797065223a202266756e6374696f6e227d2c7b22636f6e7374616e74223a20747275652c22696e70757473223a205b5d2c226e616d65223a202267657453657474696e6773222c226f757470757473223a205b7b226e616d65223a2022222c2274797065223a202275696e74323536227d5d2c2270617961626c65223a2066616c73652c2273746174654d75746162696c697479223a202276696577222c2274797065223a202266756e6374696f6e227d2c7b22636f6e7374616e74223a20747275652c22696e70757473223a205b5d2c226e616d65223a20226f776e6572222c226f757470757473223a205b7b226e616d65223a2022222c2274797065223a202261646472657373227d5d2c2270617961626c65223a2066616c73652c2273746174654d75746162696c697479223a202276696577222c2274797065223a202266756e6374696f6e227d2c7b22636f6e7374616e74223a20747275652c22696e70757473223a205b5d2c226e616d65223a202261736b4f70656e222c226f757470757473223a205b7b226e616d65223a2022222c2274797065223a2022626f6f6c227d5d2c2270617961626c65223a2066616c73652c2273746174654d75746162696c697479223a202276696577222c2274797065223a202266756e6374696f6e227d2c7b22636f6e7374616e74223a20747275652c22696e70757473223a205b5d2c226e616d65223a202274696d65546f4f70656e222c226f757470757473223a205b7b226e616d65223a2022222c2274797065223a202275696e74323536227d5d2c2270617961626c65223a2066616c73652c2273746174654d75746162696c697479223a202276696577222c2274797065223a202266756e6374696f6e227d2c7b22696e70757473223a205b7b226e616d65223a202263726561746f72222c2274797065223a202261646472657373227d5d2c2270617961626c65223a2066616c73652c2273746174654d75746162696c697479223a20226e6f6e70617961626c65222c2274797065223a2022636f6e7374727563746f72227d5da165627a7a723058200225f180a115c0a72e55c42dfb47b0da205ad6438db9bfc249bbf668681176b60029",
  "source": "pragma solidity ^0.4.18;\r\n\r\nimport './SimpleTime.sol';\r\ncontract BuilderST{\r\n    function create(address creator, bytes32 publicKey) public returns (address) {\r\n        require(creator != address(0));\r\n        address templateInstance =  new SimpleTime(creator, publicKey);\r\n        return templateInstance;\r\n    }\r\n    function getName() public pure returns (bytes32){\r\n        return \"SimpleTime\";\r\n    }\r\n    function getVersion() public pure returns (bytes32){\r\n        return \"0.0.1\";\r\n    }\r\n    function getAuthor() public pure returns (bytes32){\r\n        return \"MiraLab\";\r\n    }\r\n    function getAbi() public pure returns (string){\r\n        return '[{\"constant\": true,\"inputs\": [],\"name\": \"askNow\",\"outputs\": [{\"name\": \"\",\"type\": \"uint256\"}],\"payable\": false,\"stateMutability\": \"view\",\"type\": \"function\"},{\"constant\": false,\"inputs\": [{\"name\": \"year\",\"type\": \"uint16\"},{\"name\": \"month\",\"type\": \"uint8\"},{\"name\": \"day\",\"type\": \"uint8\"},{\"name\": \"hour\",\"type\": \"uint8\"},{\"name\": \"minute\",\"type\": \"uint8\"},{\"name\": \"second\",\"type\": \"uint8\"}],\"name\": \"setSettings\",\"outputs\": [],\"payable\": false,\"stateMutability\": \"nonpayable\",\"type\": \"function\"},{\"constant\": true,\"inputs\": [],\"name\": \"getSettings\",\"outputs\": [{\"name\": \"\",\"type\": \"uint256\"}],\"payable\": false,\"stateMutability\": \"view\",\"type\": \"function\"},{\"constant\": true,\"inputs\": [],\"name\": \"owner\",\"outputs\": [{\"name\": \"\",\"type\": \"address\"}],\"payable\": false,\"stateMutability\": \"view\",\"type\": \"function\"},{\"constant\": true,\"inputs\": [],\"name\": \"askOpen\",\"outputs\": [{\"name\": \"\",\"type\": \"bool\"}],\"payable\": false,\"stateMutability\": \"view\",\"type\": \"function\"},{\"constant\": true,\"inputs\": [],\"name\": \"timeToOpen\",\"outputs\": [{\"name\": \"\",\"type\": \"uint256\"}],\"payable\": false,\"stateMutability\": \"view\",\"type\": \"function\"},{\"inputs\": [{\"name\": \"creator\",\"type\": \"address\"}],\"payable\": false,\"stateMutability\": \"nonpayable\",\"type\": \"constructor\"}]';\r\n    }\r\n    function getDescription() public pure returns (string){\r\n        return \"Set time and date after which MiraBox can be opened.\";\r\n    }\r\n}\r\n",
  "sourcePath": "/home/thplease/Desktop/ERC20/contracts/SmartFactory/BuilderST.sol",
  "compiler": {
    "name": "solc",
    "version": "0.4.24+commit.e67f0147.Emscripten.clang"
  },
  "schemaVersion": "2.0.1",
  "updatedAt": "2018-09-05T09:33:44.233Z"
}