{
  "contractName": "MiraFactory",
  "abi": [
    {
      "constant": true,
      "inputs": [
        {
          "name": "",
          "type": "bytes32"
        }
      ],
      "name": "templates",
      "outputs": [
        {
          "name": "",
          "type": "address"
        }
      ],
      "payable": false,
      "stateMutability": "view",
      "type": "function"
    },
    {
      "constant": true,
      "inputs": [],
      "name": "owner",
      "outputs": [
        {
          "name": "",
          "type": "address"
        }
      ],
      "payable": false,
      "stateMutability": "view",
      "type": "function"
    },
    {
      "constant": true,
      "inputs": [],
      "name": "templatesList",
      "outputs": [
        {
          "name": "",
          "type": "string"
        }
      ],
      "payable": false,
      "stateMutability": "view",
      "type": "function"
    },
    {
      "inputs": [],
      "payable": false,
      "stateMutability": "nonpayable",
      "type": "constructor"
    },
    {
      "constant": false,
      "inputs": [
        {
          "name": "_owner",
          "type": "address"
        }
      ],
      "name": "setOwner",
      "outputs": [],
      "payable": false,
      "stateMutability": "nonpayable",
      "type": "function"
    },
    {
      "constant": false,
      "inputs": [
        {
          "name": "_acl",
          "type": "address"
        }
      ],
      "name": "setACLcontract",
      "outputs": [],
      "payable": false,
      "stateMutability": "nonpayable",
      "type": "function"
    },
    {
      "constant": false,
      "inputs": [
        {
          "name": "templateAddress",
          "type": "address"
        }
      ],
      "name": "addTemplate",
      "outputs": [
        {
          "name": "",
          "type": "bool"
        }
      ],
      "payable": false,
      "stateMutability": "nonpayable",
      "type": "function"
    },
    {
      "constant": true,
      "inputs": [],
      "name": "getTemplatesList",
      "outputs": [
        {
          "name": "",
          "type": "string"
        }
      ],
      "payable": false,
      "stateMutability": "view",
      "type": "function"
    },
    {
      "constant": false,
      "inputs": [
        {
          "name": "name",
          "type": "bytes32"
        },
        {
          "name": "documentid",
          "type": "bytes32"
        },
        {
          "name": "creator",
          "type": "address"
        }
      ],
      "name": "createSmartOpener",
      "outputs": [
        {
          "name": "",
          "type": "address"
        }
      ],
      "payable": false,
      "stateMutability": "nonpayable",
      "type": "function"
    }
  ],
  "bytecode": "0x60806040526001600460006101000a81548160ff0219169083151502179055503480156200002c57600080fd5b50336000806101000a81548173ffffffffffffffffffffffffffffffffffffffff021916908373ffffffffffffffffffffffffffffffffffffffff1602179055506040805190810160405280601181526020017f7b2274656d706c61746573223a205b5d7d00000000000000000000000000000081525060039080519060200190620000ba929190620000c1565b5062000170565b828054600181600116156101000203166002900490600052602060002090601f016020900481019282601f106200010457805160ff191683800117855562000135565b8280016001018555821562000135579182015b828111156200013457825182559160200191906001019062000117565b5b50905062000144919062000148565b5090565b6200016d91905b80821115620001695760008160009055506001016200014f565b5090565b90565b611ba180620001806000396000f30060806040526004361061008e576000357c0100000000000000000000000000000000000000000000000000000000900463ffffffff16806306bb29da146100935780630a6315761461013257806313af4035146101a357806355b30266146101e6578063788a1699146102415780638da5cb5b146102d1578063905ffeb914610328578063fb2bc7aa146103b8575b600080fd5b34801561009f57600080fd5b506100f060048036038101908080356000191690602001909291908035600019169060200190929190803573ffffffffffffffffffffffffffffffffffffffff1690602001909291905050506103fb565b604051808273ffffffffffffffffffffffffffffffffffffffff1673ffffffffffffffffffffffffffffffffffffffff16815260200191505060405180910390f35b34801561013e57600080fd5b506101616004803603810190808035600019169060200190929190505050610787565b604051808273ffffffffffffffffffffffffffffffffffffffff1673ffffffffffffffffffffffffffffffffffffffff16815260200191505060405180910390f35b3480156101af57600080fd5b506101e4600480360381019080803573ffffffffffffffffffffffffffffffffffffffff1690602001909291905050506107ba565b005b3480156101f257600080fd5b50610227600480360381019080803573ffffffffffffffffffffffffffffffffffffffff169060200190929190505050610894565b604051808215151515815260200191505060405180910390f35b34801561024d57600080fd5b50610256610b55565b6040518080602001828103825283818151815260200191508051906020019080838360005b8381101561029657808201518184015260208101905061027b565b50505050905090810190601f1680156102c35780820380516001836020036101000a031916815260200191505b509250505060405180910390f35b3480156102dd57600080fd5b506102e6610bf7565b604051808273ffffffffffffffffffffffffffffffffffffffff1673ffffffffffffffffffffffffffffffffffffffff16815260200191505060405180910390f35b34801561033457600080fd5b5061033d610c1c565b6040518080602001828103825283818151815260200191508051906020019080838360005b8381101561037d578082015181840152602081019050610362565b50505050905090810190601f1680156103aa5780820380516001836020036101000a031916815260200191505b509250505060405180910390f35b3480156103c457600080fd5b506103f9600480360381019080803573ffffffffffffffffffffffffffffffffffffffff169060200190929190505050610cba565b005b600080600073ffffffffffffffffffffffffffffffffffffffff16600160009054906101000a900473ffffffffffffffffffffffffffffffffffffffff1673ffffffffffffffffffffffffffffffffffffffff16141580156104aa5750600160009054906101000a900473ffffffffffffffffffffffffffffffffffffffff1673ffffffffffffffffffffffffffffffffffffffff163373ffffffffffffffffffffffffffffffffffffffff16145b15156104b557600080fd5b60007f0100000000000000000000000000000000000000000000000000000000000000028560006020811015156104e857fe5b1a7f0100000000000000000000000000000000000000000000000000000000000000027effffffffffffffffffffffffffffffffffffffffffffffffffffffffffffff1916141580156105b1575060007f01000000000000000000000000000000000000000000000000000000000000000284600060208110151561056957fe5b1a7f0100000000000000000000000000000000000000000000000000000000000000027effffffffffffffffffffffffffffffffffffffffffffffffffffffffffffff191614155b80156105ea5750600073ffffffffffffffffffffffffffffffffffffffff168373ffffffffffffffffffffffffffffffffffffffff1614155b801561065e5750600073ffffffffffffffffffffffffffffffffffffffff1660026000876000191660001916815260200190815260200160002060009054906101000a900473ffffffffffffffffffffffffffffffffffffffff1673ffffffffffffffffffffffffffffffffffffffff1614155b151561066957600080fd5b60026000866000191660001916815260200190815260200160002060009054906101000a900473ffffffffffffffffffffffffffffffffffffffff1690508073ffffffffffffffffffffffffffffffffffffffff16639ed93318846040518263ffffffff167c0100000000000000000000000000000000000000000000000000000000028152600401808273ffffffffffffffffffffffffffffffffffffffff1673ffffffffffffffffffffffffffffffffffffffff168152602001915050602060405180830381600087803b15801561074257600080fd5b505af1158015610756573d6000803e3d6000fd5b505050506040513d602081101561076c57600080fd5b81019080805190602001909291905050509150509392505050565b60026020528060005260406000206000915054906101000a900473ffffffffffffffffffffffffffffffffffffffff1681565b6000809054906101000a900473ffffffffffffffffffffffffffffffffffffffff1673ffffffffffffffffffffffffffffffffffffffff163373ffffffffffffffffffffffffffffffffffffffff1614151561081557600080fd5b600073ffffffffffffffffffffffffffffffffffffffff168173ffffffffffffffffffffffffffffffffffffffff161415151561085157600080fd5b806000806101000a81548173ffffffffffffffffffffffffffffffffffffffff021916908373ffffffffffffffffffffffffffffffffffffffff16021790555050565b6000806000809054906101000a900473ffffffffffffffffffffffffffffffffffffffff1673ffffffffffffffffffffffffffffffffffffffff163373ffffffffffffffffffffffffffffffffffffffff161415156108f257600080fd5b600073ffffffffffffffffffffffffffffffffffffffff168373ffffffffffffffffffffffffffffffffffffffff161415151561092e57600080fd5b829050600073ffffffffffffffffffffffffffffffffffffffff16600260008373ffffffffffffffffffffffffffffffffffffffff166317d7de7c6040518163ffffffff167c0100000000000000000000000000000000000000000000000000000000028152600401602060405180830381600087803b1580156109b157600080fd5b505af11580156109c5573d6000803e3d6000fd5b505050506040513d60208110156109db57600080fd5b81019080805190602001909291905050506000191660001916815260200190815260200160002060009054906101000a900473ffffffffffffffffffffffffffffffffffffffff1673ffffffffffffffffffffffffffffffffffffffff16141515610a495760009150610b4f565b82600260008373ffffffffffffffffffffffffffffffffffffffff166317d7de7c6040518163ffffffff167c0100000000000000000000000000000000000000000000000000000000028152600401602060405180830381600087803b158015610ab257600080fd5b505af1158015610ac6573d6000803e3d6000fd5b505050506040513d6020811015610adc57600080fd5b81019080805190602001909291905050506000191660001916815260200190815260200160002060006101000a81548173ffffffffffffffffffffffffffffffffffffffff021916908373ffffffffffffffffffffffffffffffffffffffff160217905550610b4a81610d59565b600191505b50919050565b606060038054600181600116156101000203166002900480601f016020809104026020016040519081016040528092919081815260200182805460018160011615610100020316600290048015610bed5780601f10610bc257610100808354040283529160200191610bed565b820191906000526020600020905b815481529060010190602001808311610bd057829003601f168201915b5050505050905090565b6000809054906101000a900473ffffffffffffffffffffffffffffffffffffffff1681565b60038054600181600116156101000203166002900480601f016020809104026020016040519081016040528092919081815260200182805460018160011615610100020316600290048015610cb25780601f10610c8757610100808354040283529160200191610cb2565b820191906000526020600020905b815481529060010190602001808311610c9557829003601f168201915b505050505081565b6000809054906101000a900473ffffffffffffffffffffffffffffffffffffffff1673ffffffffffffffffffffffffffffffffffffffff163373ffffffffffffffffffffffffffffffffffffffff16141515610d1557600080fd5b80600160006101000a81548173ffffffffffffffffffffffffffffffffffffffff021916908373ffffffffffffffffffffffffffffffffffffffff16021790555050565b6060806060806060610d69611ab6565b610e108773ffffffffffffffffffffffffffffffffffffffff166317d7de7c6040518163ffffffff167c0100000000000000000000000000000000000000000000000000000000028152600401602060405180830381600087803b158015610dd057600080fd5b505af1158015610de4573d6000803e3d6000fd5b505050506040513d6020811015610dfa57600080fd5b8101908080519060200190929190505050611439565b9550610eb98773ffffffffffffffffffffffffffffffffffffffff16630d8e6e2c6040518163ffffffff167c0100000000000000000000000000000000000000000000000000000000028152600401602060405180830381600087803b158015610e7957600080fd5b505af1158015610e8d573d6000803e3d6000fd5b505050506040513d6020811015610ea357600080fd5b8101908080519060200190929190505050611439565b9450610f628773ffffffffffffffffffffffffffffffffffffffff1663a5faa1256040518163ffffffff167c0100000000000000000000000000000000000000000000000000000000028152600401602060405180830381600087803b158015610f2257600080fd5b505af1158015610f36573d6000803e3d6000fd5b505050506040513d6020811015610f4c57600080fd5b8101908080519060200190929190505050611439565b9350611046600260008973ffffffffffffffffffffffffffffffffffffffff166317d7de7c6040518163ffffffff167c0100000000000000000000000000000000000000000000000000000000028152600401602060405180830381600087803b158015610fcf57600080fd5b505af1158015610fe3573d6000803e3d6000fd5b505050506040513d6020811015610ff957600080fd5b81019080805190602001909291905050506000191660001916815260200190815260200160002060009054906101000a900473ffffffffffffffffffffffffffffffffffffffff16611635565b9250600460009054906101000a900460ff16156110d7576110b56110698761184a565b6110a76040805190810160405280600a81526020017f7b226e616d65223a20220000000000000000000000000000000000000000000081525061184a565b61187890919063ffffffff16565b91506000600460006101000a81548160ff021916908315150217905550611132565b61112f6110e38761184a565b6111216040805190810160405280600c81526020017f2c207b226e616d65223a2022000000000000000000000000000000000000000081525061184a565b61187890919063ffffffff16565b91505b61118a6111736040805190810160405280600e81526020017f222c2276657273696f6e223a202200000000000000000000000000000000000081525061184a565b61117c8461184a565b61187890919063ffffffff16565b91506111af6111988661184a565b6111a18461184a565b61187890919063ffffffff16565b91506112096111f26040805190810160405280600d81526020017f222c22617574686f72223a20220000000000000000000000000000000000000081525061184a565b6111fb8461184a565b61187890919063ffffffff16565b915061122e6112178561184a565b6112208461184a565b61187890919063ffffffff16565b91506112886112716040805190810160405280601081526020017f222c2261646472657373223a202230780000000000000000000000000000000081525061184a565b61127a8461184a565b61187890919063ffffffff16565b91506112ad6112968461184a565b61129f8461184a565b61187890919063ffffffff16565b91506113076112f06040805190810160405280600481526020017f227d5d7d0000000000000000000000000000000000000000000000000000000081525061184a565b6112f98461184a565b61187890919063ffffffff16565b91506113ac60038054600181600116156101000203166002900480601f0160208091040260200160405190810160405280929190818152602001828054600181600116156101000203166002900480156113a25780601f10611377576101008083540402835291602001916113a2565b820191906000526020600020905b81548152906001019060200180831161138557829003601f168201915b505050505061184a565b90506113fe6113ef6040805190810160405280600281526020017f5d7d00000000000000000000000000000000000000000000000000000000000081525061184a565b826118fa90919063ffffffff16565b5061141a61140b8361184a565b8261187890919063ffffffff16565b6003908051906020019061142f929190611ad0565b5050505050505050565b6060806000806000606060206040519080825280601f01601f1916602001820160405280156114775781602001602082028038833980820191505090505b50945060009350600092505b6020831015611541578260080260020a876001900402600102915060007f010000000000000000000000000000000000000000000000000000000000000002827effffffffffffffffffffffffffffffffffffffffffffffffffffffffffffff1916141515611534578185858151811015156114fb57fe5b9060200101907effffffffffffffffffffffffffffffffffffffffffffffffffffffffffffff1916908160001a90535083806001019450505b8280600101935050611483565b836040519080825280601f01601f1916602001820160405280156115745781602001602082028038833980820191505090505b509050600092505b8383101561162857848381518110151561159257fe5b9060200101517f010000000000000000000000000000000000000000000000000000000000000090047f01000000000000000000000000000000000000000000000000000000000000000281848151811015156115eb57fe5b9060200101907effffffffffffffffffffffffffffffffffffffffffffffffffffffffffffff1916908160001a905350828060010193505061157c565b8095505050505050919050565b60608060008060008060286040519080825280601f01601f1916602001820160405280156116725781602001602082028038833980820191505090505b509450600093505b601484101561183d578360130360080260020a8773ffffffffffffffffffffffffffffffffffffffff168115156116ad57fe5b047f01000000000000000000000000000000000000000000000000000000000000000292506010837f0100000000000000000000000000000000000000000000000000000000000000900460ff1681151561170457fe5b047f0100000000000000000000000000000000000000000000000000000000000000029150817f01000000000000000000000000000000000000000000000000000000000000009004601002837f01000000000000000000000000000000000000000000000000000000000000009004037f01000000000000000000000000000000000000000000000000000000000000000290506117a28261197b565b85856002028151811015156117b357fe5b9060200101907effffffffffffffffffffffffffffffffffffffffffffffffffffffffffffff1916908160001a9053506117ec8161197b565b856001866002020181518110151561180057fe5b9060200101907effffffffffffffffffffffffffffffffffffffffffffffffffffffffffffff1916908160001a905350838060010194505061167a565b8495505050505050919050565b611852611ab6565b600060208301905060408051908101604052808451815260200182815250915050919050565b606080600083600001518560000151016040519080825280601f01601f1916602001820160405280156118ba5781602001602082028038833980820191505090505b5091506020820190506118d68186602001518760000151611a6b565b6118ef8560000151820185602001518660000151611a6b565b819250505092915050565b611902611ab6565b60008083600001518560000151101561191d57849250611973565b8360000151856000015186602001510103915060019050836020015182141515611954578351602085015181812082852014925050505b801561196f5783600001518560000181815103915081815250505b8492505b505092915050565b6000600a7f010000000000000000000000000000000000000000000000000000000000000002827effffffffffffffffffffffffffffffffffffffffffffffffffffffffffffff19161015611a1a576030827f01000000000000000000000000000000000000000000000000000000000000009004017f0100000000000000000000000000000000000000000000000000000000000000029050611a66565b6057827f01000000000000000000000000000000000000000000000000000000000000009004017f01000000000000000000000000000000000000000000000000000000000000000290505b919050565b60005b602082101515611a935782518452602084019350602083019250602082039150611a6e565b6001826020036101000a0390508019835116818551168181178652505050505050565b604080519081016040528060008152602001600081525090565b828054600181600116156101000203166002900490600052602060002090601f016020900481019282601f10611b1157805160ff1916838001178555611b3f565b82800160010185558215611b3f579182015b82811115611b3e578251825591602001919060010190611b23565b5b509050611b4c9190611b50565b5090565b611b7291905b80821115611b6e576000816000905550600101611b56565b5090565b905600a165627a7a723058206c06d017d7260f80bc7b599afb419a095763722493dcbbc387c642ee068e88390029",
  "source": "pragma solidity ^0.4.18;\r\nimport \"./strings.sol\";\r\ncontract Builder{\r\n    function create(address) public returns (address) {}\r\n    function getName() public pure returns (bytes32){}\r\n    function getVersion() public pure returns (bytes32){}\r\n    function getAuthor() public pure returns (bytes32){}\r\n}\r\ncontract MiraFactory{\r\n    using strings for *;\r\n    \r\n    address public owner;\r\n    address private acl;\r\n    \r\n    mapping(bytes32 => address) public templates;\r\n    \r\n    string public templatesList;\r\n    bool private firstTemplate = true;\r\n    \r\n    function MiraFactory() public{\r\n        owner = msg.sender;\r\n        templatesList = '{\"templates\": []}';\r\n    }\r\n    \r\n    modifier onlyOwner {\r\n        require(msg.sender == owner);\r\n        _;\r\n    }\r\n    \r\n    modifier onlyACL{\r\n        require(acl != address(0) && msg.sender == acl);\r\n        _;\r\n    }\r\n    \r\n    function setOwner(address _owner) public onlyOwner{\r\n        require(_owner != address(0));\r\n        owner = _owner;\r\n    }\r\n    \r\n    function setACLcontract(address _acl) public onlyOwner{\r\n        acl = _acl;\r\n    }\r\n    \r\n    function bytes32ToString(bytes32 x) private pure returns (string) {\r\n        bytes memory bytesString = new bytes(32);\r\n        uint charCount = 0;\r\n        for (uint j = 0; j < 32; j++) {\r\n            byte char = byte(bytes32(uint(x) * 2 ** (8 * j)));\r\n            if (char != 0) {\r\n                bytesString[charCount] = char;\r\n                charCount++;\r\n            }\r\n        }\r\n        bytes memory bytesStringTrimmed = new bytes(charCount);\r\n        for (j = 0; j < charCount; j++) {\r\n            bytesStringTrimmed[j] = bytesString[j];\r\n        }\r\n        return string(bytesStringTrimmed);\r\n    }\r\n    \r\n    function toAsciiString(address x) pure private returns (string) {\r\n        bytes memory s = new bytes(40);\r\n        for (uint i = 0; i < 20; i++) {\r\n            byte b = byte(uint8(uint(x) / (2**(8*(19 - i)))));\r\n            byte hi = byte(uint8(b) / 16);\r\n            byte lo = byte(uint8(b) - 16 * uint8(hi));\r\n            s[2*i] = char(hi);\r\n            s[2*i+1] = char(lo);            \r\n        }\r\n        return string(s);\r\n    }\r\n\r\n    function char(byte b) pure private returns (byte c) {\r\n        if (b < 10) return byte(uint8(b) + 0x30);\r\n        else return byte(uint8(b) + 0x57);\r\n    }\r\n    \r\n    function addTemplate(address templateAddress) public onlyOwner returns(bool){\r\n        require(templateAddress != address(0)); \r\n        Builder template = Builder(templateAddress);\r\n        if(templates[template.getName()] != address(0))\r\n            return false;\r\n        templates[template.getName()] = templateAddress;\r\n        addToTemplatesList(template);\r\n        return true;\r\n    }\r\n    \r\n    function addToTemplatesList(Builder template) private{\r\n        string memory name = bytes32ToString(template.getName());\r\n        string memory version = bytes32ToString(template.getVersion());\r\n        string memory author =  bytes32ToString(template.getAuthor());\r\n        string memory _address = toAsciiString(templates[template.getName()]);\r\n        if(firstTemplate){\r\n            var newContent = '{\"name\": \"'.toSlice().concat(name.toSlice());\r\n            firstTemplate = false;\r\n        }else{\r\n            newContent = ', {\"name\": \"'.toSlice().concat(name.toSlice());\r\n        }\r\n        newContent = newContent.toSlice().concat('\",\"version\": \"'.toSlice());\r\n        newContent = newContent.toSlice().concat(version.toSlice());\r\n        newContent = newContent.toSlice().concat('\",\"author\": \"'.toSlice());\r\n        newContent = newContent.toSlice().concat(author.toSlice());\r\n        newContent = newContent.toSlice().concat('\",\"address\": \"0x'.toSlice());\r\n        newContent = newContent.toSlice().concat(_address.toSlice());\r\n        newContent = newContent.toSlice().concat('\"}]}'.toSlice());\r\n        var prevContent = templatesList.toSlice();\r\n        prevContent.until(\"]}\".toSlice());\r\n        templatesList =  prevContent.concat(newContent.toSlice());\r\n    }\r\n    \r\n    function getTemplatesList() public view returns(string){\r\n        return templatesList;\r\n    }\r\n    \r\n    function createSmartOpener(bytes32 name, bytes32 documentid, address creator) public onlyACL returns(address){\r\n        require(name[0]!=0 && \r\n            documentid[0]!= 0 && \r\n            creator!=address(0) &&\r\n            templates[name] != address(0));\r\n        Builder templateInstance = Builder(templates[name]); \r\n        return templateInstance.create(creator);\r\n    }\r\n}\r\n",
  "sourcePath": "/home/thplease/Desktop/ERC20/contracts/SmartFactory/MiraFactory.sol",
  "compiler": {
    "name": "solc",
    "version": "0.4.24+commit.e67f0147.Emscripten.clang"
  },
  "schemaVersion": "2.0.1",
  "updatedAt": "2018-08-22T07:32:04.022Z"
}