{
  "contractName": "MiraFactory",
  "abi": [
    {
      "constant": true,
      "inputs": [
        {
          "name": "",
          "type": "bytes32"
        }
      ],
      "name": "templates",
      "outputs": [
        {
          "name": "",
          "type": "address"
        }
      ],
      "payable": false,
      "stateMutability": "view",
      "type": "function"
    },
    {
      "constant": true,
      "inputs": [],
      "name": "owner",
      "outputs": [
        {
          "name": "",
          "type": "address"
        }
      ],
      "payable": false,
      "stateMutability": "view",
      "type": "function"
    },
    {
      "constant": true,
      "inputs": [],
      "name": "templatesList",
      "outputs": [
        {
          "name": "",
          "type": "string"
        }
      ],
      "payable": false,
      "stateMutability": "view",
      "type": "function"
    },
    {
      "constant": true,
      "inputs": [],
      "name": "licenseAddress",
      "outputs": [
        {
          "name": "",
          "type": "address"
        }
      ],
      "payable": false,
      "stateMutability": "view",
      "type": "function"
    },
    {
      "constant": true,
      "inputs": [],
      "name": "bufferAddress",
      "outputs": [
        {
          "name": "",
          "type": "address"
        }
      ],
      "payable": false,
      "stateMutability": "view",
      "type": "function"
    },
    {
      "inputs": [],
      "payable": false,
      "stateMutability": "nonpayable",
      "type": "constructor"
    },
    {
      "constant": false,
      "inputs": [
        {
          "name": "_licenseAddress",
          "type": "address"
        }
      ],
      "name": "setLicenseContract",
      "outputs": [],
      "payable": false,
      "stateMutability": "nonpayable",
      "type": "function"
    },
    {
      "constant": false,
      "inputs": [
        {
          "name": "_bufferAddress",
          "type": "address"
        }
      ],
      "name": "setBuffer",
      "outputs": [],
      "payable": false,
      "stateMutability": "nonpayable",
      "type": "function"
    },
    {
      "constant": false,
      "inputs": [
        {
          "name": "_owner",
          "type": "address"
        }
      ],
      "name": "setOwner",
      "outputs": [],
      "payable": false,
      "stateMutability": "nonpayable",
      "type": "function"
    },
    {
      "constant": false,
      "inputs": [
        {
          "name": "templateAddress",
          "type": "address"
        }
      ],
      "name": "addTemplate",
      "outputs": [
        {
          "name": "",
          "type": "bool"
        }
      ],
      "payable": false,
      "stateMutability": "nonpayable",
      "type": "function"
    },
    {
      "constant": true,
      "inputs": [],
      "name": "getTemplatesList",
      "outputs": [
        {
          "name": "",
          "type": "string"
        }
      ],
      "payable": false,
      "stateMutability": "view",
      "type": "function"
    },
    {
      "constant": false,
      "inputs": [
        {
          "name": "templateName",
          "type": "bytes32"
        },
        {
          "name": "creator",
          "type": "address"
        }
      ],
      "name": "createMiraboxContract",
      "outputs": [
        {
          "name": "",
          "type": "address"
        }
      ],
      "payable": false,
      "stateMutability": "nonpayable",
      "type": "function"
    }
  ],
  "bytecode": "0x60806040526001600560006101000a81548160ff0219169083151502179055503480156200002c57600080fd5b50336000806101000a81548173ffffffffffffffffffffffffffffffffffffffff021916908373ffffffffffffffffffffffffffffffffffffffff1602179055506040805190810160405280601181526020017f7b2274656d706c61746573223a205b5d7d00000000000000000000000000000081525060049080519060200190620000ba929190620000c1565b5062000170565b828054600181600116156101000203166002900490600052602060002090601f016020900481019282601f106200010457805160ff191683800117855562000135565b8280016001018555821562000135579182015b828111156200013457825182559160200191906001019062000117565b5b50905062000144919062000148565b5090565b6200016d91905b80821115620001695760008160009055506001016200014f565b5090565b90565b611e9a80620001806000396000f3006080604052600436106100af576000357c0100000000000000000000000000000000000000000000000000000000900463ffffffff1680630a631576146100b457806313af40351461012557806355b3026614610168578063788a1699146101c35780638da5cb5b14610253578063905ffeb9146102aa5780639ae3aff81461033a5780639c7d1e701461037d578063c04c06411461040e578063c0dc93e214610465578063e95c41c3146104bc575b600080fd5b3480156100c057600080fd5b506100e360048036038101908080356000191690602001909291905050506104ff565b604051808273ffffffffffffffffffffffffffffffffffffffff1673ffffffffffffffffffffffffffffffffffffffff16815260200191505060405180910390f35b34801561013157600080fd5b50610166600480360381019080803573ffffffffffffffffffffffffffffffffffffffff169060200190929190505050610532565b005b34801561017457600080fd5b506101a9600480360381019080803573ffffffffffffffffffffffffffffffffffffffff16906020019092919050505061060c565b604051808215151515815260200191505060405180910390f35b3480156101cf57600080fd5b506101d86108cd565b6040518080602001828103825283818151815260200191508051906020019080838360005b838110156102185780820151818401526020810190506101fd565b50505050905090810190601f1680156102455780820380516001836020036101000a031916815260200191505b509250505060405180910390f35b34801561025f57600080fd5b5061026861096f565b604051808273ffffffffffffffffffffffffffffffffffffffff1673ffffffffffffffffffffffffffffffffffffffff16815260200191505060405180910390f35b3480156102b657600080fd5b506102bf610994565b6040518080602001828103825283818151815260200191508051906020019080838360005b838110156102ff5780820151818401526020810190506102e4565b50505050905090810190601f16801561032c5780820380516001836020036101000a031916815260200191505b509250505060405180910390f35b34801561034657600080fd5b5061037b600480360381019080803573ffffffffffffffffffffffffffffffffffffffff169060200190929190505050610a32565b005b34801561038957600080fd5b506103cc6004803603810190808035600019169060200190929190803573ffffffffffffffffffffffffffffffffffffffff169060200190929190505050610ad1565b604051808273ffffffffffffffffffffffffffffffffffffffff1673ffffffffffffffffffffffffffffffffffffffff16815260200191505060405180910390f35b34801561041a57600080fd5b50610423610f26565b604051808273ffffffffffffffffffffffffffffffffffffffff1673ffffffffffffffffffffffffffffffffffffffff16815260200191505060405180910390f35b34801561047157600080fd5b5061047a610f4c565b604051808273ffffffffffffffffffffffffffffffffffffffff1673ffffffffffffffffffffffffffffffffffffffff16815260200191505060405180910390f35b3480156104c857600080fd5b506104fd600480360381019080803573ffffffffffffffffffffffffffffffffffffffff169060200190929190505050610f72565b005b60036020528060005260406000206000915054906101000a900473ffffffffffffffffffffffffffffffffffffffff1681565b6000809054906101000a900473ffffffffffffffffffffffffffffffffffffffff1673ffffffffffffffffffffffffffffffffffffffff163373ffffffffffffffffffffffffffffffffffffffff1614151561058d57600080fd5b600073ffffffffffffffffffffffffffffffffffffffff168173ffffffffffffffffffffffffffffffffffffffff16141515156105c957600080fd5b806000806101000a81548173ffffffffffffffffffffffffffffffffffffffff021916908373ffffffffffffffffffffffffffffffffffffffff16021790555050565b6000806000809054906101000a900473ffffffffffffffffffffffffffffffffffffffff1673ffffffffffffffffffffffffffffffffffffffff163373ffffffffffffffffffffffffffffffffffffffff1614151561066a57600080fd5b600073ffffffffffffffffffffffffffffffffffffffff168373ffffffffffffffffffffffffffffffffffffffff16141515156106a657600080fd5b829050600073ffffffffffffffffffffffffffffffffffffffff16600360008373ffffffffffffffffffffffffffffffffffffffff166317d7de7c6040518163ffffffff167c0100000000000000000000000000000000000000000000000000000000028152600401602060405180830381600087803b15801561072957600080fd5b505af115801561073d573d6000803e3d6000fd5b505050506040513d602081101561075357600080fd5b81019080805190602001909291905050506000191660001916815260200190815260200160002060009054906101000a900473ffffffffffffffffffffffffffffffffffffffff1673ffffffffffffffffffffffffffffffffffffffff161415156107c157600091506108c7565b82600360008373ffffffffffffffffffffffffffffffffffffffff166317d7de7c6040518163ffffffff167c0100000000000000000000000000000000000000000000000000000000028152600401602060405180830381600087803b15801561082a57600080fd5b505af115801561083e573d6000803e3d6000fd5b505050506040513d602081101561085457600080fd5b81019080805190602001909291905050506000191660001916815260200190815260200160002060006101000a81548173ffffffffffffffffffffffffffffffffffffffff021916908373ffffffffffffffffffffffffffffffffffffffff1602179055506108c281611052565b600191505b50919050565b606060048054600181600116156101000203166002900480601f0160208091040260200160405190810160405280929190818152602001828054600181600116156101000203166002900480156109655780601f1061093a57610100808354040283529160200191610965565b820191906000526020600020905b81548152906001019060200180831161094857829003601f168201915b5050505050905090565b6000809054906101000a900473ffffffffffffffffffffffffffffffffffffffff1681565b60048054600181600116156101000203166002900480601f016020809104026020016040519081016040528092919081815260200182805460018160011615610100020316600290048015610a2a5780601f106109ff57610100808354040283529160200191610a2a565b820191906000526020600020905b815481529060010190602001808311610a0d57829003601f168201915b505050505081565b6000809054906101000a900473ffffffffffffffffffffffffffffffffffffffff1673ffffffffffffffffffffffffffffffffffffffff163373ffffffffffffffffffffffffffffffffffffffff16141515610a8d57600080fd5b80600160006101000a81548173ffffffffffffffffffffffffffffffffffffffff021916908373ffffffffffffffffffffffffffffffffffffffff16021790555050565b600060606000600160009054906101000a900473ffffffffffffffffffffffffffffffffffffffff1673ffffffffffffffffffffffffffffffffffffffff163373ffffffffffffffffffffffffffffffffffffffff16141515610b3357600080fd5b60007f010000000000000000000000000000000000000000000000000000000000000002856000602081101515610b6657fe5b1a7f0100000000000000000000000000000000000000000000000000000000000000027effffffffffffffffffffffffffffffffffffffffffffffffffffffffffffff191614158015610c215750600073ffffffffffffffffffffffffffffffffffffffff1660036000876000191660001916815260200190815260200160002060009054906101000a900473ffffffffffffffffffffffffffffffffffffffff1673ffffffffffffffffffffffffffffffffffffffff1614155b1515610c2c57600080fd5b600560019054906101000a900473ffffffffffffffffffffffffffffffffffffffff1673ffffffffffffffffffffffffffffffffffffffff1663e9d850976040518163ffffffff167c0100000000000000000000000000000000000000000000000000000000028152600401600060405180830381600087803b158015610cb257600080fd5b505af1158015610cc6573d6000803e3d6000fd5b505050506040513d6000823e3d601f19601f820116820180604052506020811015610cf057600080fd5b810190808051640100000000811115610d0857600080fd5b82810190506020810184811115610d1e57600080fd5b8151856001820283011164010000000082111715610d3b57600080fd5b5050929190505050915060036000866000191660001916815260200190815260200160002060009054906101000a900473ffffffffffffffffffffffffffffffffffffffff1690508073ffffffffffffffffffffffffffffffffffffffff1663c7b05fd48584600260009054906101000a900473ffffffffffffffffffffffffffffffffffffffff166040518463ffffffff167c0100000000000000000000000000000000000000000000000000000000028152600401808473ffffffffffffffffffffffffffffffffffffffff1673ffffffffffffffffffffffffffffffffffffffff168152602001806020018373ffffffffffffffffffffffffffffffffffffffff1673ffffffffffffffffffffffffffffffffffffffff168152602001828103825284818151815260200191508051906020019080838360005b83811015610e93578082015181840152602081019050610e78565b50505050905090810190601f168015610ec05780820380516001836020036101000a031916815260200191505b50945050505050602060405180830381600087803b158015610ee157600080fd5b505af1158015610ef5573d6000803e3d6000fd5b505050506040513d6020811015610f0b57600080fd5b81019080805190602001909291905050509250505092915050565b600160009054906101000a900473ffffffffffffffffffffffffffffffffffffffff1681565b600260009054906101000a900473ffffffffffffffffffffffffffffffffffffffff1681565b6000809054906101000a900473ffffffffffffffffffffffffffffffffffffffff1673ffffffffffffffffffffffffffffffffffffffff163373ffffffffffffffffffffffffffffffffffffffff16141515610fcd57600080fd5b80600260006101000a81548173ffffffffffffffffffffffffffffffffffffffff021916908373ffffffffffffffffffffffffffffffffffffffff16021790555080600560016101000a81548173ffffffffffffffffffffffffffffffffffffffff021916908373ffffffffffffffffffffffffffffffffffffffff16021790555050565b6060806060806060611062611daf565b6111098773ffffffffffffffffffffffffffffffffffffffff166317d7de7c6040518163ffffffff167c0100000000000000000000000000000000000000000000000000000000028152600401602060405180830381600087803b1580156110c957600080fd5b505af11580156110dd573d6000803e3d6000fd5b505050506040513d60208110156110f357600080fd5b8101908080519060200190929190505050611732565b95506111b28773ffffffffffffffffffffffffffffffffffffffff16630d8e6e2c6040518163ffffffff167c0100000000000000000000000000000000000000000000000000000000028152600401602060405180830381600087803b15801561117257600080fd5b505af1158015611186573d6000803e3d6000fd5b505050506040513d602081101561119c57600080fd5b8101908080519060200190929190505050611732565b945061125b8773ffffffffffffffffffffffffffffffffffffffff1663a5faa1256040518163ffffffff167c0100000000000000000000000000000000000000000000000000000000028152600401602060405180830381600087803b15801561121b57600080fd5b505af115801561122f573d6000803e3d6000fd5b505050506040513d602081101561124557600080fd5b8101908080519060200190929190505050611732565b935061133f600360008973ffffffffffffffffffffffffffffffffffffffff166317d7de7c6040518163ffffffff167c0100000000000000000000000000000000000000000000000000000000028152600401602060405180830381600087803b1580156112c857600080fd5b505af11580156112dc573d6000803e3d6000fd5b505050506040513d60208110156112f257600080fd5b81019080805190602001909291905050506000191660001916815260200190815260200160002060009054906101000a900473ffffffffffffffffffffffffffffffffffffffff1661192e565b9250600560009054906101000a900460ff16156113d0576113ae61136287611b43565b6113a06040805190810160405280600a81526020017f7b226e616d65223a202200000000000000000000000000000000000000000000815250611b43565b611b7190919063ffffffff16565b91506000600560006101000a81548160ff02191690831515021790555061142b565b6114286113dc87611b43565b61141a6040805190810160405280600c81526020017f2c207b226e616d65223a20220000000000000000000000000000000000000000815250611b43565b611b7190919063ffffffff16565b91505b61148361146c6040805190810160405280600e81526020017f222c2276657273696f6e223a2022000000000000000000000000000000000000815250611b43565b61147584611b43565b611b7190919063ffffffff16565b91506114a861149186611b43565b61149a84611b43565b611b7190919063ffffffff16565b91506115026114eb6040805190810160405280600d81526020017f222c22617574686f72223a202200000000000000000000000000000000000000815250611b43565b6114f484611b43565b611b7190919063ffffffff16565b915061152761151085611b43565b61151984611b43565b611b7190919063ffffffff16565b915061158161156a6040805190810160405280601081526020017f222c2261646472657373223a2022307800000000000000000000000000000000815250611b43565b61157384611b43565b611b7190919063ffffffff16565b91506115a661158f84611b43565b61159884611b43565b611b7190919063ffffffff16565b91506116006115e96040805190810160405280600481526020017f227d5d7d00000000000000000000000000000000000000000000000000000000815250611b43565b6115f284611b43565b611b7190919063ffffffff16565b91506116a560048054600181600116156101000203166002900480601f01602080910402602001604051908101604052809291908181526020018280546001816001161561010002031660029004801561169b5780601f106116705761010080835404028352916020019161169b565b820191906000526020600020905b81548152906001019060200180831161167e57829003601f168201915b5050505050611b43565b90506116f76116e86040805190810160405280600281526020017f5d7d000000000000000000000000000000000000000000000000000000000000815250611b43565b82611bf390919063ffffffff16565b5061171361170483611b43565b82611b7190919063ffffffff16565b60049080519060200190611728929190611dc9565b5050505050505050565b6060806000806000606060206040519080825280601f01601f1916602001820160405280156117705781602001602082028038833980820191505090505b50945060009350600092505b602083101561183a578260080260020a876001900402600102915060007f010000000000000000000000000000000000000000000000000000000000000002827effffffffffffffffffffffffffffffffffffffffffffffffffffffffffffff191614151561182d578185858151811015156117f457fe5b9060200101907effffffffffffffffffffffffffffffffffffffffffffffffffffffffffffff1916908160001a90535083806001019450505b828060010193505061177c565b836040519080825280601f01601f19166020018201604052801561186d5781602001602082028038833980820191505090505b509050600092505b8383101561192157848381518110151561188b57fe5b9060200101517f010000000000000000000000000000000000000000000000000000000000000090047f01000000000000000000000000000000000000000000000000000000000000000281848151811015156118e457fe5b9060200101907effffffffffffffffffffffffffffffffffffffffffffffffffffffffffffff1916908160001a9053508280600101935050611875565b8095505050505050919050565b60608060008060008060286040519080825280601f01601f19166020018201604052801561196b5781602001602082028038833980820191505090505b509450600093505b6014841015611b36578360130360080260020a8773ffffffffffffffffffffffffffffffffffffffff168115156119a657fe5b047f01000000000000000000000000000000000000000000000000000000000000000292506010837f0100000000000000000000000000000000000000000000000000000000000000900460ff168115156119fd57fe5b047f0100000000000000000000000000000000000000000000000000000000000000029150817f01000000000000000000000000000000000000000000000000000000000000009004601002837f01000000000000000000000000000000000000000000000000000000000000009004037f0100000000000000000000000000000000000000000000000000000000000000029050611a9b82611c74565b8585600202815181101515611aac57fe5b9060200101907effffffffffffffffffffffffffffffffffffffffffffffffffffffffffffff1916908160001a905350611ae581611c74565b8560018660020201815181101515611af957fe5b9060200101907effffffffffffffffffffffffffffffffffffffffffffffffffffffffffffff1916908160001a9053508380600101945050611973565b8495505050505050919050565b611b4b611daf565b600060208301905060408051908101604052808451815260200182815250915050919050565b606080600083600001518560000151016040519080825280601f01601f191660200182016040528015611bb35781602001602082028038833980820191505090505b509150602082019050611bcf8186602001518760000151611d64565b611be88560000151820185602001518660000151611d64565b819250505092915050565b611bfb611daf565b600080836000015185600001511015611c1657849250611c6c565b8360000151856000015186602001510103915060019050836020015182141515611c4d578351602085015181812082852014925050505b8015611c685783600001518560000181815103915081815250505b8492505b505092915050565b6000600a7f010000000000000000000000000000000000000000000000000000000000000002827effffffffffffffffffffffffffffffffffffffffffffffffffffffffffffff19161015611d13576030827f01000000000000000000000000000000000000000000000000000000000000009004017f0100000000000000000000000000000000000000000000000000000000000000029050611d5f565b6057827f01000000000000000000000000000000000000000000000000000000000000009004017f01000000000000000000000000000000000000000000000000000000000000000290505b919050565b60005b602082101515611d8c5782518452602084019350602083019250602082039150611d67565b6001826020036101000a0390508019835116818551168181178652505050505050565b604080519081016040528060008152602001600081525090565b828054600181600116156101000203166002900490600052602060002090601f016020900481019282601f10611e0a57805160ff1916838001178555611e38565b82800160010185558215611e38579182015b82811115611e37578251825591602001919060010190611e1c565b5b509050611e459190611e49565b5090565b611e6b91905b80821115611e67576000816000905550600101611e4f565b5090565b905600a165627a7a72305820986bbe798b3978a094e46216f3e019ccc3e736ae522107101310f77436b9278d0029",
  "source": "pragma solidity ^0.4.18;\r\n\r\nimport \"./strings.sol\";\r\nimport '../Buffer/Buffer.sol';\r\n\r\ncontract Builder{\r\n    function create(address, string, address) public returns (address) {}\r\n    function getName() public pure returns (bytes32){}\r\n    function getVersion() public pure returns (bytes32){}\r\n    function getAuthor() public pure returns (bytes32){}\r\n}\r\n\r\ncontract MiraFactory{\r\n    using strings for *;\r\n    \r\n    address public owner;\r\n    address public licenseAddress;\r\n    address public bufferAddress;\r\n    mapping(bytes32 => address) public templates;\r\n    \r\n    string public templatesList;\r\n    bool private firstTemplate = true;\r\n\r\n    Buffer private buffer;\r\n\r\n\r\n    function MiraFactory() public{\r\n        owner = msg.sender;\r\n        templatesList = '{\"templates\": []}';\r\n    }\r\n    \r\n    modifier onlyOwner {\r\n        require(msg.sender == owner);\r\n        _;\r\n    }\r\n\r\n    modifier onlyLicense {\r\n        require(msg.sender == licenseAddress);\r\n        _;\r\n    }\r\n\r\n    function setLicenseContract(address _licenseAddress) public onlyOwner {\r\n        licenseAddress = _licenseAddress;\r\n    }\r\n\r\n    function setBuffer(address _bufferAddress) onlyOwner public{\r\n        bufferAddress = _bufferAddress;\r\n        buffer = Buffer(_bufferAddress);\r\n    }\r\n    \r\n    function setOwner(address _owner) public onlyOwner{\r\n        require(_owner != address(0));\r\n        owner = _owner;\r\n    }\r\n\r\n    function bytes32ToString(bytes32 x) private pure returns (string) {\r\n        bytes memory bytesString = new bytes(32);\r\n        uint charCount = 0;\r\n        for (uint j = 0; j < 32; j++) {\r\n            byte char = byte(bytes32(uint(x) * 2 ** (8 * j)));\r\n            if (char != 0) {\r\n                bytesString[charCount] = char;\r\n                charCount++;\r\n            }\r\n        }\r\n        bytes memory bytesStringTrimmed = new bytes(charCount);\r\n        for (j = 0; j < charCount; j++) {\r\n            bytesStringTrimmed[j] = bytesString[j];\r\n        }\r\n        return string(bytesStringTrimmed);\r\n    }\r\n    \r\n    function toAsciiString(address x) pure private returns (string) {\r\n        bytes memory s = new bytes(40);\r\n        for (uint i = 0; i < 20; i++) {\r\n            byte b = byte(uint8(uint(x) / (2**(8*(19 - i)))));\r\n            byte hi = byte(uint8(b) / 16);\r\n            byte lo = byte(uint8(b) - 16 * uint8(hi));\r\n            s[2*i] = char(hi);\r\n            s[2*i+1] = char(lo);            \r\n        }\r\n        return string(s);\r\n    }\r\n\r\n    function char(byte b) pure private returns (byte c) {\r\n        if (b < 10) return byte(uint8(b) + 0x30);\r\n        else return byte(uint8(b) + 0x57);\r\n    }\r\n    \r\n    function addTemplate(address templateAddress) public onlyOwner returns(bool){\r\n        require(templateAddress != address(0)); \r\n        Builder template = Builder(templateAddress);\r\n        if(templates[template.getName()] != address(0))\r\n            return false;\r\n        templates[template.getName()] = templateAddress;\r\n        addToTemplatesList(template);\r\n        return true;\r\n    }\r\n    \r\n    function addToTemplatesList(Builder template) private{\r\n        string memory name = bytes32ToString(template.getName());\r\n        string memory version = bytes32ToString(template.getVersion());\r\n        string memory author =  bytes32ToString(template.getAuthor());\r\n        string memory _address = toAsciiString(templates[template.getName()]);\r\n        if(firstTemplate){\r\n            var newContent = '{\"name\": \"'.toSlice().concat(name.toSlice());\r\n            firstTemplate = false;\r\n        }else{\r\n            newContent = ', {\"name\": \"'.toSlice().concat(name.toSlice());\r\n        }\r\n        newContent = newContent.toSlice().concat('\",\"version\": \"'.toSlice());\r\n        newContent = newContent.toSlice().concat(version.toSlice());\r\n        newContent = newContent.toSlice().concat('\",\"author\": \"'.toSlice());\r\n        newContent = newContent.toSlice().concat(author.toSlice());\r\n        newContent = newContent.toSlice().concat('\",\"address\": \"0x'.toSlice());\r\n        newContent = newContent.toSlice().concat(_address.toSlice());\r\n        newContent = newContent.toSlice().concat('\"}]}'.toSlice());\r\n        var prevContent = templatesList.toSlice();\r\n        prevContent.until(\"]}\".toSlice());\r\n        templatesList =  prevContent.concat(newContent.toSlice());\r\n    }\r\n    \r\n    function getTemplatesList() public view returns(string){\r\n        return templatesList;\r\n    }\r\n\r\n    \r\n    function createMiraboxContract(bytes32 templateName, address creator) public onlyLicense returns(address){\r\n        require(templateName[0] != 0 &&\r\n                templates[templateName] != address(0));\r\n        string memory publicKey = buffer.giveKey();\r\n        Builder templateInstance = Builder(templates[templateName]);\r\n        return templateInstance.create(creator, publicKey, bufferAddress);\r\n    }\r\n}\r\n",
  "sourcePath": "/home/thplease/Desktop/ERC20/contracts/SmartFactory/MiraFactory.sol",
  "compiler": {
    "name": "solc",
    "version": "0.4.24+commit.e67f0147.Emscripten.clang"
  },
  "schemaVersion": "2.0.1",
  "updatedAt": "2018-08-28T17:34:25.803Z"
}