{
  "contractName": "Onrequest",
  "abi": [
    {
      "constant": true,
      "inputs": [],
      "name": "publicKey",
      "outputs": [
        {
          "name": "",
          "type": "string"
        }
      ],
      "payable": false,
      "stateMutability": "view",
      "type": "function"
    },
    {
      "inputs": [
        {
          "name": "creator",
          "type": "address"
        },
        {
          "name": "_bufferAddress",
          "type": "address"
        }
      ],
      "payable": false,
      "stateMutability": "nonpayable",
      "type": "constructor"
    },
    {
      "anonymous": false,
      "inputs": [
        {
          "indexed": false,
          "name": "_value",
          "type": "string"
        }
      ],
      "name": "PrivateKey",
      "type": "event"
    },
    {
      "anonymous": false,
      "inputs": [],
      "name": "Open",
      "type": "event"
    },
    {
      "anonymous": false,
      "inputs": [
        {
          "indexed": false,
          "name": "_receiver",
          "type": "address"
        }
      ],
      "name": "UpdateReceiver",
      "type": "event"
    },
    {
      "anonymous": false,
      "inputs": [
        {
          "indexed": false,
          "name": "contractAddress",
          "type": "address"
        }
      ],
      "name": "ContractCreated",
      "type": "event"
    },
    {
      "constant": false,
      "inputs": [
        {
          "name": "newOwner",
          "type": "address"
        }
      ],
      "name": "changeOwner",
      "outputs": [],
      "payable": false,
      "stateMutability": "nonpayable",
      "type": "function"
    },
    {
      "constant": true,
      "inputs": [],
      "name": "askOpen",
      "outputs": [
        {
          "name": "",
          "type": "bool"
        }
      ],
      "payable": false,
      "stateMutability": "view",
      "type": "function"
    },
    {
      "constant": false,
      "inputs": [
        {
          "name": "newReceiverAddress",
          "type": "address"
        }
      ],
      "name": "changeReceiver",
      "outputs": [
        {
          "name": "",
          "type": "bool"
        }
      ],
      "payable": false,
      "stateMutability": "nonpayable",
      "type": "function"
    },
    {
      "constant": false,
      "inputs": [],
      "name": "open",
      "outputs": [
        {
          "name": "",
          "type": "bool"
        }
      ],
      "payable": false,
      "stateMutability": "nonpayable",
      "type": "function"
    },
    {
      "constant": false,
      "inputs": [],
      "name": "getPublicKey",
      "outputs": [
        {
          "name": "",
          "type": "string"
        }
      ],
      "payable": false,
      "stateMutability": "nonpayable",
      "type": "function"
    },
    {
      "constant": false,
      "inputs": [
        {
          "name": "_value",
          "type": "string"
        }
      ],
      "name": "publishPrivateKey",
      "outputs": [
        {
          "name": "",
          "type": "string"
        }
      ],
      "payable": false,
      "stateMutability": "nonpayable",
      "type": "function"
    },
    {
      "constant": false,
      "inputs": [
        {
          "name": "_publicKey",
          "type": "string"
        }
      ],
      "name": "setPublicKey",
      "outputs": [
        {
          "name": "",
          "type": "bool"
        }
      ],
      "payable": false,
      "stateMutability": "nonpayable",
      "type": "function"
    }
  ],
  "bytecode": "0x608060405260008060006101000a81548160ff0219169083151502179055506020604051908101604052806000815250600290805190602001906100449291906101cd565b5034801561005157600080fd5b50604051604080610dce833981018060405281019080805190602001909291908051906020019092919050505081600160006101000a81548173ffffffffffffffffffffffffffffffffffffffff021916908373ffffffffffffffffffffffffffffffffffffffff16021790555080600460006101000a81548173ffffffffffffffffffffffffffffffffffffffff021916908373ffffffffffffffffffffffffffffffffffffffff160217905550600460009054906101000a900473ffffffffffffffffffffffffffffffffffffffff16600360006101000a81548173ffffffffffffffffffffffffffffffffffffffff021916908373ffffffffffffffffffffffffffffffffffffffff1602179055507fcf78cf0d6f3d8371e1075c69c492ab4ec5d8cf23a1a239b6a51a1d00be7ca31230604051808273ffffffffffffffffffffffffffffffffffffffff1673ffffffffffffffffffffffffffffffffffffffff16815260200191505060405180910390a15050610272565b828054600181600116156101000203166002900490600052602060002090601f016020900481019282601f1061020e57805160ff191683800117855561023c565b8280016001018555821561023c579182015b8281111561023b578251825591602001919060010190610220565b5b509050610249919061024d565b5090565b61026f91905b8082111561026b576000816000905550600101610253565b5090565b90565b610b4d806102816000396000f30060806040526004361061008e576000357c0100000000000000000000000000000000000000000000000000000000900463ffffffff1680632e33445214610093578063547e3f061461012357806363ffab311461017e5780636f6fc0771461020e5780638041cf491461028f578063a6f9dae114610371578063d6409545146103b4578063fcfff16f146103e3575b600080fd5b34801561009f57600080fd5b506100a8610412565b6040518080602001828103825283818151815260200191508051906020019080838360005b838110156100e85780820151818401526020810190506100cd565b50505050905090810190601f1680156101155780820380516001836020036101000a031916815260200191505b509250505060405180910390f35b34801561012f57600080fd5b50610164600480360381019080803573ffffffffffffffffffffffffffffffffffffffff1690602001909291905050506104b4565b604051808215151515815260200191505060405180910390f35b34801561018a57600080fd5b506101936105fb565b6040518080602001828103825283818151815260200191508051906020019080838360005b838110156101d35780820151818401526020810190506101b8565b50505050905090810190601f1680156102005780820380516001836020036101000a031916815260200191505b509250505060405180910390f35b34801561021a57600080fd5b50610275600480360381019080803590602001908201803590602001908080601f0160208091040260200160405190810160405280939291908181526020018383808284378201915050505050509192919290505050610699565b604051808215151515815260200191505060405180910390f35b34801561029b57600080fd5b506102f6600480360381019080803590602001908201803590602001908080601f0160208091040260200160405190810160405280939291908181526020018383808284378201915050505050509192919290505050610717565b6040518080602001828103825283818151815260200191508051906020019080838360005b8381101561033657808201518184015260208101905061031b565b50505050905090810190601f1680156103635780820380516001836020036101000a031916815260200191505b509250505060405180910390f35b34801561037d57600080fd5b506103b2600480360381019080803573ffffffffffffffffffffffffffffffffffffffff1690602001909291905050506108c0565b005b3480156103c057600080fd5b506103c9610960565b604051808215151515815260200191505060405180910390f35b3480156103ef57600080fd5b506103f8610976565b604051808215151515815260200191505060405180910390f35b606060028054600181600116156101000203166002900480601f0160208091040260200160405190810160405280929190818152602001828054600181600116156101000203166002900480156104aa5780601f1061047f576101008083540402835291602001916104aa565b820191906000526020600020905b81548152906001019060200180831161048d57829003601f168201915b5050505050905090565b6000600160009054906101000a900473ffffffffffffffffffffffffffffffffffffffff1673ffffffffffffffffffffffffffffffffffffffff163373ffffffffffffffffffffffffffffffffffffffff1614151561051257600080fd5b600073ffffffffffffffffffffffffffffffffffffffff168273ffffffffffffffffffffffffffffffffffffffff161415151561054e57600080fd5b81600060016101000a81548173ffffffffffffffffffffffffffffffffffffffff021916908373ffffffffffffffffffffffffffffffffffffffff1602179055507fed372f12d7a4444f7182316b3a21904ed182b1df492066f85a103c4087d59fcb82604051808273ffffffffffffffffffffffffffffffffffffffff1673ffffffffffffffffffffffffffffffffffffffff16815260200191505060405180910390a160019050919050565b60028054600181600116156101000203166002900480601f0160208091040260200160405190810160405280929190818152602001828054600181600116156101000203166002900480156106915780601f1061066657610100808354040283529160200191610691565b820191906000526020600020905b81548152906001019060200180831161067457829003601f168201915b505050505081565b6000600460009054906101000a900473ffffffffffffffffffffffffffffffffffffffff1673ffffffffffffffffffffffffffffffffffffffff163373ffffffffffffffffffffffffffffffffffffffff161415156106f757600080fd5b816002908051906020019061070d929190610a7c565b5060019050919050565b6060600360009054906101000a900473ffffffffffffffffffffffffffffffffffffffff1673ffffffffffffffffffffffffffffffffffffffff16630458a335336040518263ffffffff167c0100000000000000000000000000000000000000000000000000000000028152600401808273ffffffffffffffffffffffffffffffffffffffff1673ffffffffffffffffffffffffffffffffffffffff168152602001915050602060405180830381600087803b1580156107d657600080fd5b505af11580156107ea573d6000803e3d6000fd5b505050506040513d602081101561080057600080fd5b8101908080519060200190929190505050151561081c57600080fd5b7fe43f583156267bee3009c69d3c9c63c0ba5e3e9f25c2cd8819f1b9bfaaa31826826040518080602001828103825283818151815260200191508051906020019080838360005b8381101561087e578082015181840152602081019050610863565b50505050905090810190601f1680156108ab5780820380516001836020036101000a031916815260200191505b509250505060405180910390a1819050919050565b600160009054906101000a900473ffffffffffffffffffffffffffffffffffffffff1673ffffffffffffffffffffffffffffffffffffffff163373ffffffffffffffffffffffffffffffffffffffff1614151561091c57600080fd5b80600160006101000a81548173ffffffffffffffffffffffffffffffffffffffff021916908373ffffffffffffffffffffffffffffffffffffffff16021790555050565b60008060009054906101000a900460ff16905090565b60008060019054906101000a900473ffffffffffffffffffffffffffffffffffffffff1673ffffffffffffffffffffffffffffffffffffffff163373ffffffffffffffffffffffffffffffffffffffff161480610a205750600160009054906101000a900473ffffffffffffffffffffffffffffffffffffffff1673ffffffffffffffffffffffffffffffffffffffff163373ffffffffffffffffffffffffffffffffffffffff16145b15610a745760016000806101000a81548160ff0219169083151502179055507f59ebeb90bc63057b6515673c3ecf9438e5058bca0f92585014eced636878c9a560405160405180910390a160019050610a79565b600090505b90565b828054600181600116156101000203166002900490600052602060002090601f016020900481019282601f10610abd57805160ff1916838001178555610aeb565b82800160010185558215610aeb579182015b82811115610aea578251825591602001919060010190610acf565b5b509050610af89190610afc565b5090565b610b1e91905b80821115610b1a576000816000905550600101610b02565b5090565b905600a165627a7a72305820f4fa287b0f9dff6060f07cac55e7fdfe4ca6c83b1d7e560b760f0748c834787d0029",
  "source": "pragma solidity ^0.4.18;\n\nimport '../Buffer/Buffer.sol';\n\ncontract Onrequest is MiraboxContract{\n    \n    bool private isOpen = false;\n    address private receiverAddress;\n    address private owner;\n    string public publicKey = '';\n    Buffer buffer;\n    address bufferAddress;\n\n\n\n    constructor (address creator, address _bufferAddress) public{\n        owner = creator;\n        bufferAddress = _bufferAddress;\n        buffer = Buffer(bufferAddress);\n        emit ContractCreated(address(this));\n    }\n    \n    modifier onlyOwner{\n        require(msg.sender == owner);\n        _;\n    }\n    \n    function changeOwner(address newOwner) public onlyOwner{\n        owner = newOwner;\n    }\n   \n    function askOpen() public view returns (bool){\n        return isOpen;\n    }\n\n    function changeReceiver(address newReceiverAddress) public onlyOwner returns(bool){\n        require(newReceiverAddress != address(0));\n        receiverAddress = newReceiverAddress;\n        emit UpdateReceiver(newReceiverAddress);\n        return true;\n    }\n\n    function open() public returns(bool){\n        if(msg.sender == receiverAddress || msg.sender == owner){\n            isOpen = true;\n            emit Open();\n            return true;\n        }\n        return false;\n    }\n\n    function getPublicKey() public returns (string){\n        return publicKey;\n    }\n\n    function publishPrivateKey(string _value) public returns (string)\n    {\n        require(buffer.isMasterNode(msg.sender));\n        emit PrivateKey(_value);\n        return _value;\n    }\n\n    function setPublicKey(string _publicKey) public returns (bool){\n        require(msg.sender == bufferAddress);\n        publicKey = _publicKey;\n        return true;\n    }\n}\n",
  "sourcePath": "/home/thplease/Desktop/ERC20/contracts/SmartFactory/Onrequest.sol",
  "compiler": {
    "name": "solc",
    "version": "0.4.24+commit.e67f0147.Emscripten.clang"
  },
  "schemaVersion": "2.0.1",
  "updatedAt": "2018-08-31T09:01:47.479Z"
}