{
  "contractName": "Onrequest2fa",
  "abi": [
    {
      "constant": true,
      "inputs": [],
      "name": "publicKey",
      "outputs": [
        {
          "name": "",
          "type": "string"
        }
      ],
      "payable": false,
      "stateMutability": "view",
      "type": "function"
    },
    {
      "constant": true,
      "inputs": [],
      "name": "canChangeReceiver",
      "outputs": [
        {
          "name": "",
          "type": "bool"
        }
      ],
      "payable": false,
      "stateMutability": "view",
      "type": "function"
    },
    {
      "constant": true,
      "inputs": [],
      "name": "confirmOpen2fa",
      "outputs": [
        {
          "name": "",
          "type": "bool"
        }
      ],
      "payable": false,
      "stateMutability": "view",
      "type": "function"
    },
    {
      "constant": true,
      "inputs": [],
      "name": "receiver",
      "outputs": [
        {
          "name": "",
          "type": "string"
        }
      ],
      "payable": false,
      "stateMutability": "view",
      "type": "function"
    },
    {
      "inputs": [
        {
          "name": "creator",
          "type": "address"
        },
        {
          "name": "_bufferAddress",
          "type": "address"
        }
      ],
      "payable": false,
      "stateMutability": "nonpayable",
      "type": "constructor"
    },
    {
      "anonymous": false,
      "inputs": [
        {
          "indexed": false,
          "name": "_value",
          "type": "string"
        }
      ],
      "name": "PrivateKey",
      "type": "event"
    },
    {
      "anonymous": false,
      "inputs": [],
      "name": "Open",
      "type": "event"
    },
    {
      "anonymous": false,
      "inputs": [
        {
          "indexed": false,
          "name": "receiver",
          "type": "string"
        }
      ],
      "name": "UpdateReceiver",
      "type": "event"
    },
    {
      "anonymous": false,
      "inputs": [
        {
          "indexed": true,
          "name": "contractAddress",
          "type": "address"
        }
      ],
      "name": "ContractCreated",
      "type": "event"
    },
    {
      "constant": false,
      "inputs": [
        {
          "name": "newOwner",
          "type": "address"
        }
      ],
      "name": "changeOwner",
      "outputs": [],
      "payable": false,
      "stateMutability": "nonpayable",
      "type": "function"
    },
    {
      "constant": true,
      "inputs": [],
      "name": "askOpen",
      "outputs": [
        {
          "name": "",
          "type": "bool"
        }
      ],
      "payable": false,
      "stateMutability": "view",
      "type": "function"
    },
    {
      "constant": false,
      "inputs": [
        {
          "name": "_address2fa",
          "type": "address"
        }
      ],
      "name": "add2Fa",
      "outputs": [
        {
          "name": "",
          "type": "bool"
        }
      ],
      "payable": false,
      "stateMutability": "nonpayable",
      "type": "function"
    },
    {
      "constant": false,
      "inputs": [
        {
          "name": "_receiver",
          "type": "string"
        }
      ],
      "name": "confirmOpen",
      "outputs": [
        {
          "name": "",
          "type": "bool"
        }
      ],
      "payable": false,
      "stateMutability": "nonpayable",
      "type": "function"
    },
    {
      "constant": false,
      "inputs": [
        {
          "name": "newReceiver",
          "type": "string"
        }
      ],
      "name": "changeReceiver",
      "outputs": [
        {
          "name": "",
          "type": "bool"
        }
      ],
      "payable": false,
      "stateMutability": "nonpayable",
      "type": "function"
    },
    {
      "constant": false,
      "inputs": [],
      "name": "open",
      "outputs": [
        {
          "name": "",
          "type": "bool"
        }
      ],
      "payable": false,
      "stateMutability": "nonpayable",
      "type": "function"
    },
    {
      "constant": false,
      "inputs": [],
      "name": "getPublicKey",
      "outputs": [
        {
          "name": "",
          "type": "string"
        }
      ],
      "payable": false,
      "stateMutability": "nonpayable",
      "type": "function"
    },
    {
      "constant": false,
      "inputs": [
        {
          "name": "_value",
          "type": "string"
        }
      ],
      "name": "publishPrivateKey",
      "outputs": [
        {
          "name": "",
          "type": "string"
        }
      ],
      "payable": false,
      "stateMutability": "nonpayable",
      "type": "function"
    },
    {
      "constant": false,
      "inputs": [
        {
          "name": "_publicKey",
          "type": "string"
        }
      ],
      "name": "setPublicKey",
      "outputs": [
        {
          "name": "",
          "type": "bool"
        }
      ],
      "payable": false,
      "stateMutability": "nonpayable",
      "type": "function"
    }
  ],
  "bytecode": "0x608060405260008060006101000a81548160ff0219169083151502179055506001600060016101000a81548160ff0219169083151502179055506001600060026101000a81548160ff02191690831515021790555060206040519081016040528060008152506002908051906020019061007a9291906101e4565b5034801561008757600080fd5b50604051604080620012fc833981018060405281019080805190602001909291908051906020019092919050505081600360006101000a81548173ffffffffffffffffffffffffffffffffffffffff021916908373ffffffffffffffffffffffffffffffffffffffff16021790555080600460006101000a81548173ffffffffffffffffffffffffffffffffffffffff021916908373ffffffffffffffffffffffffffffffffffffffff160217905550600460009054906101000a900473ffffffffffffffffffffffffffffffffffffffff16600660006101000a81548173ffffffffffffffffffffffffffffffffffffffff021916908373ffffffffffffffffffffffffffffffffffffffff1602179055503073ffffffffffffffffffffffffffffffffffffffff167fcf78cf0d6f3d8371e1075c69c492ab4ec5d8cf23a1a239b6a51a1d00be7ca31260405160405180910390a25050610289565b828054600181600116156101000203166002900490600052602060002090601f016020900481019282601f1061022557805160ff1916838001178555610253565b82800160010185558215610253579182015b82811115610252578251825591602001919060010190610237565b5b5090506102609190610264565b5090565b61028691905b8082111561028257600081600090555060010161026a565b5090565b90565b61106380620002996000396000f3006080604052600436106100c5576000357c0100000000000000000000000000000000000000000000000000000000900463ffffffff168063257c7d0a146100ca5780632e33445214610125578063578c95f0146101b557806363ffab31146102365780636f6fc077146102c65780638041cf4914610347578063a50f7fa614610429578063a6f9dae114610458578063c63d71df1461049b578063d64095451461051c578063f61e38181461054b578063f7260d3e1461057a578063fcfff16f1461060a575b600080fd5b3480156100d657600080fd5b5061010b600480360381019080803573ffffffffffffffffffffffffffffffffffffffff169060200190929190505050610639565b604051808215151515815260200191505060405180910390f35b34801561013157600080fd5b5061013a6106fb565b6040518080602001828103825283818151815260200191508051906020019080838360005b8381101561017a57808201518184015260208101905061015f565b50505050905090810190601f1680156101a75780820380516001836020036101000a031916815260200191505b509250505060405180910390f35b3480156101c157600080fd5b5061021c600480360381019080803590602001908201803590602001908080601f016020809104026020016040519081016040528093929190818152602001838380828437820191505050505050919291929050505061079d565b604051808215151515815260200191505060405180910390f35b34801561024257600080fd5b5061024b61091e565b6040518080602001828103825283818151815260200191508051906020019080838360005b8381101561028b578082015181840152602081019050610270565b50505050905090810190601f1680156102b85780820380516001836020036101000a031916815260200191505b509250505060405180910390f35b3480156102d257600080fd5b5061032d600480360381019080803590602001908201803590602001908080601f01602080910402602001604051908101604052809392919081815260200183838082843782019150505050505091929192905050506109bc565b604051808215151515815260200191505060405180910390f35b34801561035357600080fd5b506103ae600480360381019080803590602001908201803590602001908080601f0160208091040260200160405190810160405280939291908181526020018383808284378201915050505050509192919290505050610a3a565b6040518080602001828103825283818151815260200191508051906020019080838360005b838110156103ee5780820151818401526020810190506103d3565b50505050905090810190601f16801561041b5780820380516001836020036101000a031916815260200191505b509250505060405180910390f35b34801561043557600080fd5b5061043e610bfa565b604051808215151515815260200191505060405180910390f35b34801561046457600080fd5b50610499600480360381019080803573ffffffffffffffffffffffffffffffffffffffff169060200190929190505050610c0d565b005b3480156104a757600080fd5b50610502600480360381019080803590602001908201803590602001908080601f0160208091040260200160405190810160405280939291908181526020018383808284378201915050505050509192919290505050610cad565b604051808215151515815260200191505060405180910390f35b34801561052857600080fd5b50610531610e04565b604051808215151515815260200191505060405180910390f35b34801561055757600080fd5b50610560610e1a565b604051808215151515815260200191505060405180910390f35b34801561058657600080fd5b5061058f610e2d565b6040518080602001828103825283818151815260200191508051906020019080838360005b838110156105cf5780820151818401526020810190506105b4565b50505050905090810190601f1680156105fc5780820380516001836020036101000a031916815260200191505b509250505060405180910390f35b34801561061657600080fd5b5061061f610ecb565b604051808215151515815260200191505060405180910390f35b6000600360009054906101000a900473ffffffffffffffffffffffffffffffffffffffff1673ffffffffffffffffffffffffffffffffffffffff163373ffffffffffffffffffffffffffffffffffffffff1614151561069757600080fd5b60008060016101000a81548160ff02191690831515021790555081600560006101000a81548173ffffffffffffffffffffffffffffffffffffffff021916908373ffffffffffffffffffffffffffffffffffffffff16021790555060019050919050565b606060028054600181600116156101000203166002900480601f0160208091040260200160405190810160405280929190818152602001828054600181600116156101000203166002900480156107935780601f1061076857610100808354040283529160200191610793565b820191906000526020600020905b81548152906001019060200180831161077657829003601f168201915b5050505050905090565b6000600560009054906101000a900473ffffffffffffffffffffffffffffffffffffffff1673ffffffffffffffffffffffffffffffffffffffff163373ffffffffffffffffffffffffffffffffffffffff161415156107fb57600080fd5b816040518082805190602001908083835b602083101515610831578051825260208201915060208101905060208303925061080c565b6001836020036101000a038019825116818451168082178552505050505050905001915050604051809103902060001916600160405180828054600181600116156101000203166002900480156108bf5780601f1061089d5761010080835404028352918201916108bf565b820191906000526020600020905b8154815290600101906020018083116108ab575b50509150506040518091039020600019161415610914576001600060016101000a81548160ff02191690831515021790555060008060026101000a81548160ff02191690831515021790555060019050610919565b600090505b919050565b60028054600181600116156101000203166002900480601f0160208091040260200160405190810160405280929190818152602001828054600181600116156101000203166002900480156109b45780601f10610989576101008083540402835291602001916109b4565b820191906000526020600020905b81548152906001019060200180831161099757829003601f168201915b505050505081565b6000600460009054906101000a900473ffffffffffffffffffffffffffffffffffffffff1673ffffffffffffffffffffffffffffffffffffffff163373ffffffffffffffffffffffffffffffffffffffff16141515610a1a57600080fd5b8160029080519060200190610a30929190610f92565b5060019050919050565b6060600660009054906101000a900473ffffffffffffffffffffffffffffffffffffffff1673ffffffffffffffffffffffffffffffffffffffff16630458a335336040518263ffffffff167c0100000000000000000000000000000000000000000000000000000000028152600401808273ffffffffffffffffffffffffffffffffffffffff1673ffffffffffffffffffffffffffffffffffffffff168152602001915050602060405180830381600087803b158015610af957600080fd5b505af1158015610b0d573d6000803e3d6000fd5b505050506040513d6020811015610b2357600080fd5b81019080805190602001909291905050508015610b4b57506000809054906101000a900460ff165b1515610b5657600080fd5b7fe43f583156267bee3009c69d3c9c63c0ba5e3e9f25c2cd8819f1b9bfaaa31826826040518080602001828103825283818151815260200191508051906020019080838360005b83811015610bb8578082015181840152602081019050610b9d565b50505050905090810190601f168015610be55780820380516001836020036101000a031916815260200191505b509250505060405180910390a1819050919050565b600060029054906101000a900460ff1681565b600360009054906101000a900473ffffffffffffffffffffffffffffffffffffffff1673ffffffffffffffffffffffffffffffffffffffff163373ffffffffffffffffffffffffffffffffffffffff16141515610c6957600080fd5b80600360006101000a81548173ffffffffffffffffffffffffffffffffffffffff021916908373ffffffffffffffffffffffffffffffffffffffff16021790555050565b6000600360009054906101000a900473ffffffffffffffffffffffffffffffffffffffff1673ffffffffffffffffffffffffffffffffffffffff163373ffffffffffffffffffffffffffffffffffffffff16141515610d0b57600080fd5b600060029054906101000a900460ff1615610dfa578160019080519060200190610d36929190610f92565b507ffea7433eaf3da19b31aace36b2cc0589574c1b1ec64a132c10d46d6b586657ad60016040518080602001828103825283818154600181600116156101000203166002900481526020019150805460018160011615610100020316600290048015610de35780601f10610db857610100808354040283529160200191610de3565b820191906000526020600020905b815481529060010190602001808311610dc657829003601f168201915b50509250505060405180910390a160019050610dff565b600090505b919050565b60008060009054906101000a900460ff16905090565b600060019054906101000a900460ff1681565b60018054600181600116156101000203166002900480601f016020809104026020016040519081016040528092919081815260200182805460018160011615610100020316600290048015610ec35780601f10610e9857610100808354040283529160200191610ec3565b820191906000526020600020905b815481529060010190602001808311610ea657829003601f168201915b505050505081565b6000600360009054906101000a900473ffffffffffffffffffffffffffffffffffffffff1673ffffffffffffffffffffffffffffffffffffffff163373ffffffffffffffffffffffffffffffffffffffff16148015610f365750600060019054906101000a900460ff165b15610f8a5760016000806101000a81548160ff0219169083151502179055507f59ebeb90bc63057b6515673c3ecf9438e5058bca0f92585014eced636878c9a560405160405180910390a160019050610f8f565b600090505b90565b828054600181600116156101000203166002900490600052602060002090601f016020900481019282601f10610fd357805160ff1916838001178555611001565b82800160010185558215611001579182015b82811115611000578251825591602001919060010190610fe5565b5b50905061100e9190611012565b5090565b61103491905b80821115611030576000816000905550600101611018565b5090565b905600a165627a7a72305820af587f6ad3e5c5844f5da48a0c889b18afd8b84b7c12dc3043c77735b1c533e70029",
  "source": "pragma solidity ^0.4.18;\n\nimport '../Buffer/Buffer.sol';\n\ncontract Onrequest2fa is MiraboxContract{\n\n    bool private isOpen = false;\n    bool public confirmOpen2fa = true;\n    bool public canChangeReceiver = true;\n\n    string public receiver;\n    string public publicKey = '';\n\n    address private owner;\n    address bufferAddress;\n    address address2fa;\n\n    Buffer buffer;\n\n    constructor (address creator, address _bufferAddress) public{\n        owner = creator;\n        bufferAddress = _bufferAddress;\n        buffer = Buffer(bufferAddress);\n        emit ContractCreated(address(this));\n    }\n\n    modifier onlyOwner{\n        require(msg.sender == owner);\n        _;\n    }\n\n    function changeOwner(address newOwner) public onlyOwner{\n        owner = newOwner;\n    }\n\n    function askOpen() public view returns (bool){\n        return isOpen;\n    }\n\n    function add2Fa(address _address2fa) public onlyOwner returns(bool){\n        confirmOpen2fa = false;\n        address2fa = _address2fa;\n        return true;\n    }\n\n    function confirmOpen(string _receiver) public returns(bool){\n        require(msg.sender == address2fa);\n        if(keccak256(receiver) == keccak256(_receiver)){\n            confirmOpen2fa = true;\n            canChangeReceiver = false;\n            return true;\n        }else{\n            return false;\n        }\n    }\n\n    function changeReceiver(string newReceiver) public onlyOwner returns(bool){\n        if(canChangeReceiver){\n            receiver = newReceiver;\n            emit UpdateReceiver(receiver);\n            return true;\n        }else{\n            return false;\n        }\n    }\n\n    function open() public returns(bool){\n        if((msg.sender == owner) && confirmOpen2fa){\n            isOpen = true;\n            emit Open();\n            return true;\n        }\n        return false;\n    }\n\n    function getPublicKey() public returns (string){\n        return publicKey;\n    }\n\n    function publishPrivateKey(string _value) public returns (string)\n    {\n        require(buffer.isMasterNode(msg.sender) && isOpen);\n        emit PrivateKey(_value);\n        return _value;\n    }\n\n    function setPublicKey(string _publicKey) public returns (bool){\n        require(msg.sender == bufferAddress);\n        publicKey = _publicKey;\n        return true;\n    }\n}\n",
  "sourcePath": "/home/thplease/Desktop/ERC20/contracts/SmartFactory/Onrequest2fa.sol",
  "compiler": {
    "name": "solc",
    "version": "0.4.24+commit.e67f0147.Emscripten.clang"
  },
  "schemaVersion": "2.0.1",
  "updatedAt": "2018-09-05T14:31:08.734Z"
}