{
  "contractName": "PinSecretStorePermissions",
  "abi": [
    {
      "inputs": [
        {
          "name": "factoryAddress",
          "type": "address"
        }
      ],
      "payable": false,
      "stateMutability": "nonpayable",
      "type": "constructor"
    },
    {
      "constant": false,
      "inputs": [
        {
          "name": "newFactoryAddress",
          "type": "address"
        }
      ],
      "name": "setMiraBoxFactory",
      "outputs": [],
      "payable": false,
      "stateMutability": "nonpayable",
      "type": "function"
    },
    {
      "constant": false,
      "inputs": [
        {
          "name": "document",
          "type": "bytes32"
        }
      ],
      "name": "openMiraBox",
      "outputs": [
        {
          "name": "",
          "type": "bool"
        }
      ],
      "payable": false,
      "stateMutability": "nonpayable",
      "type": "function"
    },
    {
      "constant": true,
      "inputs": [
        {
          "name": "document",
          "type": "bytes32"
        }
      ],
      "name": "getMiraBoxOpened",
      "outputs": [
        {
          "name": "",
          "type": "bool"
        }
      ],
      "payable": false,
      "stateMutability": "view",
      "type": "function"
    },
    {
      "constant": false,
      "inputs": [
        {
          "name": "document",
          "type": "bytes32"
        },
        {
          "name": "templateName",
          "type": "bytes32"
        }
      ],
      "name": "addKey",
      "outputs": [
        {
          "name": "",
          "type": "bool"
        }
      ],
      "payable": false,
      "stateMutability": "nonpayable",
      "type": "function"
    },
    {
      "constant": true,
      "inputs": [
        {
          "name": "document",
          "type": "bytes32"
        }
      ],
      "name": "getMiraBoxContract",
      "outputs": [
        {
          "name": "",
          "type": "address"
        }
      ],
      "payable": false,
      "stateMutability": "view",
      "type": "function"
    },
    {
      "constant": true,
      "inputs": [
        {
          "name": "document",
          "type": "bytes32"
        }
      ],
      "name": "askContractOpen",
      "outputs": [
        {
          "name": "",
          "type": "bool"
        }
      ],
      "payable": false,
      "stateMutability": "view",
      "type": "function"
    },
    {
      "constant": true,
      "inputs": [
        {
          "name": "document",
          "type": "bytes32"
        }
      ],
      "name": "checkPermissions",
      "outputs": [
        {
          "name": "",
          "type": "bool"
        }
      ],
      "payable": false,
      "stateMutability": "view",
      "type": "function"
    }
  ],
  "bytecode": "0x608060405234801561001057600080fd5b50604051602080610a1183398101806040528101908080519060200190929190505050336000806101000a81548173ffffffffffffffffffffffffffffffffffffffff021916908373ffffffffffffffffffffffffffffffffffffffff16021790555080600160006101000a81548173ffffffffffffffffffffffffffffffffffffffff021916908373ffffffffffffffffffffffffffffffffffffffff1602179055505061094d806100c46000396000f300608060405260043610610083576000357c0100000000000000000000000000000000000000000000000000000000900463ffffffff1680631b90433914610088578063320de618146100d1578063347e750a1461011a578063575bf6be146101635780636f711fd9146101ba57806389da7da514610203578063bc5c606f14610274575b600080fd5b34801561009457600080fd5b506100b760048036038101908080356000191690602001909291905050506102b7565b604051808215151515815260200191505060405180910390f35b3480156100dd57600080fd5b50610100600480360381019080803560001916906020019092919050505061037f565b604051808215151515815260200191505060405180910390f35b34801561012657600080fd5b5061014960048036038101908080356000191690602001909291905050506103b4565b604051808215151515815260200191505060405180910390f35b34801561016f57600080fd5b506101a060048036038101908080356000191690602001909291908035600019169060200190929190505050610519565b604051808215151515815260200191505060405180910390f35b3480156101c657600080fd5b506101e960048036038101908080356000191690602001909291905050506107a0565b604051808215151515815260200191505060405180910390f35b34801561020f57600080fd5b50610232600480360381019080803560001916906020019092919050505061083a565b604051808273ffffffffffffffffffffffffffffffffffffffff1673ffffffffffffffffffffffffffffffffffffffff16815260200191505060405180910390f35b34801561028057600080fd5b506102b5600480360381019080803573ffffffffffffffffffffffffffffffffffffffff169060200190929190505050610882565b005b60006102c2826103b4565b80156103395750600073ffffffffffffffffffffffffffffffffffffffff1660026000846000191660001916815260200190815260200160002060000160009054906101000a900473ffffffffffffffffffffffffffffffffffffffff1673ffffffffffffffffffffffffffffffffffffffff1614155b1561037657600160026000846000191660001916815260200190815260200160002060000160146101000a81548160ff0219169083151502179055505b60009050919050565b600060026000836000191660001916815260200190815260200160002060000160149054906101000a900460ff169050919050565b600080600073ffffffffffffffffffffffffffffffffffffffff1660026000856000191660001916815260200190815260200160002060000160009054906101000a900473ffffffffffffffffffffffffffffffffffffffff1673ffffffffffffffffffffffffffffffffffffffff161415151561043157600080fd5b60026000846000191660001916815260200190815260200160002060000160009054906101000a900473ffffffffffffffffffffffffffffffffffffffff1690508073ffffffffffffffffffffffffffffffffffffffff1663d64095456040518163ffffffff167c0100000000000000000000000000000000000000000000000000000000028152600401602060405180830381600087803b1580156104d657600080fd5b505af11580156104ea573d6000803e3d6000fd5b505050506040513d602081101561050057600080fd5b8101908080519060200190929190505050915050919050565b600080600073ffffffffffffffffffffffffffffffffffffffff1660026000866000191660001916815260200190815260200160002060000160009054906101000a900473ffffffffffffffffffffffffffffffffffffffff1673ffffffffffffffffffffffffffffffffffffffff1614151561059557600080fd5b600160009054906101000a900473ffffffffffffffffffffffffffffffffffffffff1673ffffffffffffffffffffffffffffffffffffffff166306bb29da8486336040518463ffffffff167c010000000000000000000000000000000000000000000000000000000002815260040180846000191660001916815260200183600019166000191681526020018273ffffffffffffffffffffffffffffffffffffffff1673ffffffffffffffffffffffffffffffffffffffff1681526020019350505050602060405180830381600087803b15801561067257600080fd5b505af1158015610686573d6000803e3d6000fd5b505050506040513d602081101561069c57600080fd5b81019080805190602001909291905050509050600073ffffffffffffffffffffffffffffffffffffffff168173ffffffffffffffffffffffffffffffffffffffff161415156107995760408051908101604052808273ffffffffffffffffffffffffffffffffffffffff1681526020016000151581525060026000866000191660001916815260200190815260200160002060008201518160000160006101000a81548173ffffffffffffffffffffffffffffffffffffffff021916908373ffffffffffffffffffffffffffffffffffffffff16021790555060208201518160000160146101000a81548160ff0219169083151502179055509050505b5092915050565b60006107ab826103b4565b80156108225750600073ffffffffffffffffffffffffffffffffffffffff1660026000846000191660001916815260200190815260200160002060000160009054906101000a900473ffffffffffffffffffffffffffffffffffffffff1673ffffffffffffffffffffffffffffffffffffffff1614155b156108305760019050610835565b600090505b919050565b600060026000836000191660001916815260200190815260200160002060000160009054906101000a900473ffffffffffffffffffffffffffffffffffffffff169050919050565b3373ffffffffffffffffffffffffffffffffffffffff166000809054906101000a900473ffffffffffffffffffffffffffffffffffffffff1673ffffffffffffffffffffffffffffffffffffffff161415156108dd57600080fd5b80600160006101000a81548173ffffffffffffffffffffffffffffffffffffffff021916908373ffffffffffffffffffffffffffffffffffffffff160217905550505600a165627a7a72305820aaac9d8005c6bec76e8c6efc0c7877106515bf4b0aca71026625283af9a514000029",
  "source": "pragma solidity ^0.4.19;\r\n\r\nimport './MiraFactory.sol';\r\n\r\ncontract Template{\r\n    function askOpen() view public returns (bool){}\r\n}\r\ncontract PinSecretStorePermissions {\r\n    \r\n    address private owner;\r\n    MiraFactory private miraFactory;\r\n\r\n    \r\n    struct MiraBox{\r\n        address contractAddress;\r\n        bool opened;\r\n    }\r\n    \r\n    mapping (bytes32 => MiraBox) miraboxes;\r\n\r\n\r\n    modifier onlyOwner {\r\n        require(owner == msg.sender);\r\n        _;\r\n    }\r\n    \r\n    function PinSecretStorePermissions(address factoryAddress) public {\r\n        owner = msg.sender;\r\n        miraFactory = MiraFactory(factoryAddress);\r\n    }\r\n    \r\n    function setMiraBoxFactory(address newFactoryAddress) onlyOwner public{\r\n        miraFactory = MiraFactory(newFactoryAddress);\r\n    }\r\n    \r\n    function openMiraBox(bytes32 document) public returns (bool) {\r\n        if(askContractOpen(document) && miraboxes[document].contractAddress != address(0)){\r\n            miraboxes[document].opened = true;\r\n        }\r\n        return false;\r\n    }\r\n\r\n    function getMiraBoxOpened(bytes32 document) public view returns (bool) {\r\n        return miraboxes[document].opened;\r\n    }\r\n\r\n\r\n    function addKey(bytes32 document, bytes32 templateName) public returns (bool) {\r\n        require(miraboxes[document].contractAddress == address(0));\r\n        address contractAddress = miraFactory.createSmartOpener(templateName, document, msg.sender);\r\n        if(contractAddress != address(0)){\r\n            miraboxes[document] = MiraBox({\r\n            contractAddress:contractAddress,\r\n            opened: false\r\n            });\r\n        }\r\n    }\r\n    \r\n    function getMiraBoxContract(bytes32 document) public view returns (address) {\r\n        return miraboxes[document].contractAddress;\r\n    }\r\n    \r\n    function askContractOpen(bytes32 document) public view returns (bool){\r\n        require(miraboxes[document].contractAddress != address(0));\r\n        Template template = Template(miraboxes[document].contractAddress);\r\n        return template.askOpen();\r\n    }\r\n    \r\n    function checkPermissions(bytes32 document) public view returns (bool) {\r\n         if(askContractOpen(document) && miraboxes[document].contractAddress != address(0)){\r\n             return true;\r\n         }\r\n         return false;\r\n    }\r\n}\r\n",
  "sourcePath": "/home/thplease/Desktop/ERC20/contracts/SmartFactory/PinSecretStorePermissions.sol",
  "compiler": {
    "name": "solc",
    "version": "0.4.24+commit.e67f0147.Emscripten.clang"
  },
  "schemaVersion": "2.0.1",
  "updatedAt": "2018-08-22T07:32:04.007Z"
}