{
  "contractName": "SimpleTime",
  "abi": [
    {
      "constant": true,
      "inputs": [],
      "name": "owner",
      "outputs": [
        {
          "name": "",
          "type": "address"
        }
      ],
      "payable": false,
      "stateMutability": "view",
      "type": "function"
    },
    {
      "constant": true,
      "inputs": [],
      "name": "timeToOpen",
      "outputs": [
        {
          "name": "",
          "type": "uint256"
        }
      ],
      "payable": false,
      "stateMutability": "view",
      "type": "function"
    },
    {
      "inputs": [
        {
          "name": "creator",
          "type": "address"
        },
        {
          "name": "_publicKey",
          "type": "bytes32"
        }
      ],
      "payable": false,
      "stateMutability": "nonpayable",
      "type": "constructor"
    },
    {
      "constant": true,
      "inputs": [],
      "name": "askOpen",
      "outputs": [
        {
          "name": "",
          "type": "bool"
        }
      ],
      "payable": false,
      "stateMutability": "view",
      "type": "function"
    },
    {
      "constant": true,
      "inputs": [],
      "name": "askNow",
      "outputs": [
        {
          "name": "",
          "type": "uint256"
        }
      ],
      "payable": false,
      "stateMutability": "view",
      "type": "function"
    },
    {
      "constant": false,
      "inputs": [
        {
          "name": "year",
          "type": "uint16"
        },
        {
          "name": "month",
          "type": "uint8"
        },
        {
          "name": "day",
          "type": "uint8"
        },
        {
          "name": "hour",
          "type": "uint8"
        },
        {
          "name": "minute",
          "type": "uint8"
        },
        {
          "name": "second",
          "type": "uint8"
        }
      ],
      "name": "setSettings",
      "outputs": [],
      "payable": false,
      "stateMutability": "nonpayable",
      "type": "function"
    },
    {
      "constant": true,
      "inputs": [],
      "name": "getSettings",
      "outputs": [
        {
          "name": "",
          "type": "uint256"
        }
      ],
      "payable": false,
      "stateMutability": "view",
      "type": "function"
    },
    {
      "constant": false,
      "inputs": [],
      "name": "getPublicKey",
      "outputs": [
        {
          "name": "",
          "type": "bytes32"
        }
      ],
      "payable": false,
      "stateMutability": "nonpayable",
      "type": "function"
    },
    {
      "constant": false,
      "inputs": [
        {
          "name": "_privateKey",
          "type": "bytes32"
        }
      ],
      "name": "setPrivateKey",
      "outputs": [],
      "payable": false,
      "stateMutability": "nonpayable",
      "type": "function"
    }
  ],
  "bytecode": "0x608060405234801561001057600080fd5b506040516040806113748339810180604052810190808051906020019092919080519060200190929190505050600082600260006101000a81548173ffffffffffffffffffffffffffffffffffffffff021916908373ffffffffffffffffffffffffffffffffffffffff16021790555081600181600019169055506100936100fb565b604051809103906000f0801580156100af573d6000803e3d6000fd5b50905080600460006101000a81548173ffffffffffffffffffffffffffffffffffffffff021916908373ffffffffffffffffffffffffffffffffffffffff16021790555050505061010b565b604051610dba806105ba83390190565b6104a08061011a6000396000f30060806040526004361061008e576000357c0100000000000000000000000000000000000000000000000000000000900463ffffffff168063298a3920146100935780632e334452146100be57806378c0ace0146100f157806385b4bb53146101635780638da5cb5b1461018e578063d6409545146101e5578063d9f4dd8f14610214578063ff02198614610245575b600080fd5b34801561009f57600080fd5b506100a8610270565b6040518082815260200191505060405180910390f35b3480156100ca57600080fd5b506100d3610278565b60405180826000191660001916815260200191505060405180910390f35b3480156100fd57600080fd5b50610161600480360381019080803561ffff169060200190929190803560ff169060200190929190803560ff169060200190929190803560ff169060200190929190803560ff169060200190929190803560ff169060200190929190505050610282565b005b34801561016f57600080fd5b50610178610406565b6040518082815260200191505060405180910390f35b34801561019a57600080fd5b506101a361040f565b604051808273ffffffffffffffffffffffffffffffffffffffff1673ffffffffffffffffffffffffffffffffffffffff16815260200191505060405180910390f35b3480156101f157600080fd5b506101fa610435565b604051808215151515815260200191505060405180910390f35b34801561022057600080fd5b506102436004803603810190808035600019169060200190929190505050610460565b005b34801561025157600080fd5b5061025a61046e565b6040518082815260200191505060405180910390f35b600042905090565b6000600154905090565b600260009054906101000a900473ffffffffffffffffffffffffffffffffffffffff1673ffffffffffffffffffffffffffffffffffffffff163373ffffffffffffffffffffffffffffffffffffffff161415156102de57600080fd5b600460009054906101000a900473ffffffffffffffffffffffffffffffffffffffff1673ffffffffffffffffffffffffffffffffffffffff16639054bdec8787878787876040518763ffffffff167c0100000000000000000000000000000000000000000000000000000000028152600401808761ffff1661ffff1681526020018660ff1660ff1681526020018560ff1660ff1681526020018460ff1660ff1681526020018360ff1660ff1681526020018260ff1660ff1681526020019650505050505050602060405180830381600087803b1580156103bd57600080fd5b505af11580156103d1573d6000803e3d6000fd5b505050506040513d60208110156103e757600080fd5b8101908080519060200190929190505050600081905550505050505050565b60008054905090565b600260009054906101000a900473ffffffffffffffffffffffffffffffffffffffff1681565b60008054421015801561044a57506000805414155b15610458576001905061045d565b600090505b90565b806003816000191690555050565b600054815600a165627a7a723058207805663a2bebe3b96af0aa0f123c0eedee51f878a213713a74e8bd3185482bab0029608060405234801561001057600080fd5b50610d9a806100206000396000f3006080604052600436106100d0576000357c0100000000000000000000000000000000000000000000000000000000900463ffffffff1680633e239e1a146100d55780634ac1ad781461011c57806362ba96871461016357806365c72840146101dc5780637f791833146102235780638aa001fc1461028f5780638c8d98a0146102d65780639054bdec1461033557806392d66313146103bb578063a324ad2414610404578063a6f0e5771461044b578063b199993714610494578063b238ad0e146104d5578063fa93f8831461052d575b600080fd5b3480156100e157600080fd5b5061010060048036038101908080359060200190929190505050610574565b604051808260ff1660ff16815260200191505060405180910390f35b34801561012857600080fd5b50610147600480360381019080803590602001909291905050506105a1565b604051808260ff1660ff16815260200191505060405180910390f35b34801561016f57600080fd5b506101c6600480360381019080803561ffff169060200190929190803560ff169060200190929190803560ff169060200190929190803560ff169060200190929190803560ff1690602001909291905050506105c8565b6040518082815260200191505060405180910390f35b3480156101e857600080fd5b50610207600480360381019080803590602001909291905050506105e4565b604051808260ff1660ff16815260200191505060405180910390f35b34801561022f57600080fd5b50610279600480360381019080803561ffff169060200190929190803560ff169060200190929190803560ff169060200190929190803560ff1690602001909291905050506105fa565b6040518082815260200191505060405180910390f35b34801561029b57600080fd5b506102ba60048036038101908080359060200190929190505050610615565b604051808260ff1660ff16815260200191505060405180910390f35b3480156102e257600080fd5b5061031f600480360381019080803561ffff169060200190929190803560ff169060200190929190803560ff16906020019092919050505061062b565b6040518082815260200191505060405180910390f35b34801561034157600080fd5b506103a5600480360381019080803561ffff169060200190929190803560ff169060200190929190803560ff169060200190929190803560ff169060200190929190803560ff169060200190929190803560ff169060200190929190505050610646565b6040518082815260200191505060405180910390f35b3480156103c757600080fd5b506103e6600480360381019080803590602001909291905050506108ed565b604051808261ffff1661ffff16815260200191505060405180910390f35b34801561041057600080fd5b5061042f60048036038101908080359060200190929190505050610998565b604051808260ff1660ff16815260200191505060405180910390f35b34801561045757600080fd5b5061047a600480360381019080803561ffff1690602001909291905050506109ae565b604051808215151515815260200191505060405180910390f35b3480156104a057600080fd5b506104bf60048036038101908080359060200190929190505050610a2f565b6040518082815260200191505060405180910390f35b3480156104e157600080fd5b50610511600480360381019080803560ff169060200190929190803561ffff169060200190929190505050610a68565b604051808260ff1660ff16815260200191505060405180910390f35b34801561053957600080fd5b5061055860048036038101908080359060200190929190505050610b34565b604051808260ff1660ff16815260200191505060405180910390f35b60006018603c808481151561058557fe5b0481151561058f57fe5b0481151561059957fe5b069050919050565b60006007600462015180848115156105b557fe5b04018115156105c057fe5b069050919050565b60006105d986868686866000610646565b905095945050505050565b60006105ef82610b55565b604001519050919050565b600061060b85858585600080610646565b9050949350505050565b6000603c8281151561062357fe5b069050919050565b600061063d8484846000806000610646565b90509392505050565b600080610651610cf6565b6107b291505b8861ffff168261ffff16101561069a57610670826109ae565b15610683576301e285008301925061068d565b6301e13380830192505b8180600101925050610657565b601f816000600c811015156106ab57fe5b602002019060ff16908160ff16815250506106c5896109ae565b156106f157601d816001600c811015156106db57fe5b602002019060ff16908160ff1681525050610714565b601c816001600c8110151561070257fe5b602002019060ff16908160ff16815250505b601f816002600c8110151561072557fe5b602002019060ff16908160ff1681525050601e816003600c8110151561074757fe5b602002019060ff16908160ff1681525050601f816004600c8110151561076957fe5b602002019060ff16908160ff1681525050601e816005600c8110151561078b57fe5b602002019060ff16908160ff1681525050601f816006600c811015156107ad57fe5b602002019060ff16908160ff1681525050601f816007600c811015156107cf57fe5b602002019060ff16908160ff1681525050601e816008600c811015156107f157fe5b602002019060ff16908160ff1681525050601f816009600c8110151561081357fe5b602002019060ff16908160ff1681525050601e81600a600c8110151561083557fe5b602002019060ff16908160ff1681525050601f81600b600c8110151561085757fe5b602002019060ff16908160ff1681525050600191505b8760ff168261ffff1610156108af57806001830361ffff16600c8110151561089157fe5b602002015160ff16620151800283019250818060010192505061086d565b6001870360ff166201518002830192508560ff16610e1002830192508460ff16603c02830192508360ff168301925082925050509695505050505050565b600080600080600092506301e133808581151561090657fe5b046107b261ffff160191506109206107b261ffff16610a2f565b61092d8361ffff16610a2f565b039050806301e285000283019250806107b2830361ffff16036301e1338002830192505b8483111561098d57610965600183036109ae565b15610978576301e2850083039250610982565b6301e13380830392505b600182039150610951565b819350505050919050565b60006109a382610b55565b602001519050919050565b60008060048361ffff168115156109c157fe5b0661ffff161415156109d65760009050610a2a565b600060648361ffff168115156109e857fe5b0661ffff161415156109fd5760019050610a2a565b60006101908361ffff16811515610a1057fe5b0661ffff16141515610a255760009050610a2a565b600190505b919050565b600060018203915061019082811515610a4457fe5b04606483811515610a5157fe5b04600484811515610a5e57fe5b0403019050919050565b600060018360ff161480610a7f575060038360ff16145b80610a8d575060058360ff16145b80610a9b575060078360ff16145b80610aa9575060088360ff16145b80610ab75750600a8360ff16145b80610ac55750600c8360ff16145b15610ad357601f9050610b2e565b60048360ff161480610ae8575060068360ff16145b80610af6575060098360ff16145b80610b045750600b8360ff16145b15610b1257601e9050610b2e565b610b1b826109ae565b15610b2957601d9050610b2e565b601c90505b92915050565b6000603c8083811515610b4357fe5b04811515610b4d57fe5b069050919050565b610b5d610d1a565b60008060008060009350610b70866108ed565b856000019061ffff16908161ffff1681525050610b926107b261ffff16610a2f565b610ba3866000015161ffff16610a2f565b039250826301e285000284019350826107b286600001510361ffff16036301e133800284019350600191505b600c8260ff16111515610c2757610bea828660000151610a68565b60ff1662015180029050858482011115610c155781856020019060ff16908160ff1681525050610c27565b80840193508180600101925050610bcf565b600191505b610c3e85602001518660000151610a68565b60ff168260ff16111515610c8557858462015180011115610c705781856040019060ff16908160ff1681525050610c85565b62015180840193508180600101925050610c2c565b610c8e86610574565b856060019060ff16908160ff1681525050610ca886610b34565b856080019060ff16908160ff1681525050610cc286610615565b8560a0019060ff16908160ff1681525050610cdc866105a1565b8560c0019060ff16908160ff168152505050505050919050565b61018060405190810160405280600c90602082028038833980820191505090505090565b60e060405190810160405280600061ffff168152602001600060ff168152602001600060ff168152602001600060ff168152602001600060ff168152602001600060ff168152602001600060ff16815250905600a165627a7a72305820757a35aa51a5ba32ba7f8fe70dcd3c7375d55fe76f6a24812e365f5e5641db140029",
  "source": "pragma solidity ^0.4.18;\r\n\r\nimport './DateTime.sol';\r\n\r\ncontract SimpleTime{\r\n    uint public timeToOpen;\r\n    bytes32 publicKey;\r\n    address public owner;\r\n    bytes32 private privateKey;\r\n    DateTime private datetimeInstance;\r\n    modifier onlyOwner{\r\n        require(msg.sender == owner);\r\n        _;\r\n    }\r\n    function SimpleTime(address creator, bytes32 _publicKey) public{\r\n        owner = creator;\r\n        publicKey = _publicKey;\r\n        address datetimeAddress = new DateTime();\r\n        datetimeInstance = DateTime(datetimeAddress);\r\n    }\r\n    function askOpen() public view returns (bool){\r\n        if(now >= timeToOpen && timeToOpen != 0){\r\n            return true;\r\n        }\r\n        return false;\r\n    }\r\n    function askNow() view public returns(uint){\r\n        return now;\r\n    }\r\n    function setSettings(uint16 year, uint8 month, uint8 day, uint8 hour, uint8 minute, uint8 second) public onlyOwner{\r\n        timeToOpen = datetimeInstance.toTimestamp(year, month, day, hour, minute, second);\r\n    }\r\n    function getSettings() view public returns(uint){\r\n        return timeToOpen;\r\n    }\r\n    function getPublicKey() public returns (bytes32){\r\n        return publicKey;\r\n    }\r\n    function setPrivateKey(bytes32 _privateKey) public{\r\n        privateKey = _privateKey;\r\n    }\r\n}\r\n",
  "sourcePath": "/home/thplease/Desktop/miracontracts/contracts/SmartFactory/SimpleTime.sol",
  "compiler": {
    "name": "solc",
    "version": "0.4.24+commit.e67f0147.Emscripten.clang"
  },
  "schemaVersion": "2.0.1",
  "updatedAt": "2018-09-18T10:01:13.787Z"
}