{
  "contractName": "Template",
  "abi": [
    {
      "constant": true,
      "inputs": [],
      "name": "askOpen",
      "outputs": [
        {
          "name": "",
          "type": "bool"
        }
      ],
      "payable": false,
      "stateMutability": "view",
      "type": "function"
    }
  ],
  "bytecode": "0x6080604052348015600f57600080fd5b5060a18061001e6000396000f300608060405260043610603f576000357c0100000000000000000000000000000000000000000000000000000000900463ffffffff168063d6409545146044575b600080fd5b348015604f57600080fd5b5060566070565b604051808215151515815260200191505060405180910390f35b6000905600a165627a7a7230582061d7a8c8f7e655a593c32694f26674966ead971e13871dd1f60bbed599b1eac10029",
  "source": "pragma solidity ^0.4.19;\r\n\r\nimport './MiraFactory.sol';\r\n\r\ncontract Template{\r\n    function askOpen() view public returns (bool){}\r\n}\r\ncontract PinSecretStorePermissions {\r\n    \r\n    address private owner;\r\n    MiraFactory private miraFactory;\r\n\r\n    \r\n    struct MiraBox{\r\n        address contractAddress;\r\n        bool opened;\r\n    }\r\n    \r\n    mapping (bytes32 => MiraBox) miraboxes;\r\n\r\n\r\n    modifier onlyOwner {\r\n        require(owner == msg.sender);\r\n        _;\r\n    }\r\n    \r\n    function PinSecretStorePermissions(address factoryAddress) public {\r\n        owner = msg.sender;\r\n        miraFactory = MiraFactory(factoryAddress);\r\n    }\r\n    \r\n    function setMiraBoxFactory(address newFactoryAddress) onlyOwner public{\r\n        miraFactory = MiraFactory(newFactoryAddress);\r\n    }\r\n    \r\n    function openMiraBox(bytes32 document) public returns (bool) {\r\n        if(askContractOpen(document) && miraboxes[document].contractAddress != address(0)){\r\n            miraboxes[document].opened = true;\r\n        }\r\n        return false;\r\n    }\r\n\r\n    function getMiraBoxOpened(bytes32 document) public view returns (bool) {\r\n        return miraboxes[document].opened;\r\n    }\r\n\r\n\r\n    function addKey(bytes32 document, bytes32 templateName) public returns (bool) {\r\n        require(miraboxes[document].contractAddress == address(0));\r\n        address contractAddress = miraFactory.createSmartOpener(templateName, document, msg.sender);\r\n        if(contractAddress != address(0)){\r\n            miraboxes[document] = MiraBox({\r\n            contractAddress:contractAddress,\r\n            opened: false\r\n            });\r\n        }\r\n    }\r\n    \r\n    function getMiraBoxContract(bytes32 document) public view returns (address) {\r\n        return miraboxes[document].contractAddress;\r\n    }\r\n    \r\n    function askContractOpen(bytes32 document) public view returns (bool){\r\n        require(miraboxes[document].contractAddress != address(0));\r\n        Template template = Template(miraboxes[document].contractAddress);\r\n        return template.askOpen();\r\n    }\r\n    \r\n    function checkPermissions(bytes32 document) public view returns (bool) {\r\n         if(askContractOpen(document) && miraboxes[document].contractAddress != address(0)){\r\n             return true;\r\n         }\r\n         return false;\r\n    }\r\n}\r\n",
  "sourcePath": "/home/thplease/Desktop/ERC20/contracts/SmartFactory/PinSecretStorePermissions.sol",
  "compiler": {
    "name": "solc",
    "version": "0.4.24+commit.e67f0147.Emscripten.clang"
  },
  "schemaVersion": "2.0.1",
  "updatedAt": "2018-08-22T07:32:02.006Z"
}